{"contracts/HTS1400Test.sol":{"HTS1400":{"abi":[{"inputs":[{"internalType":"string","name":"_tokenName","type":"string"},{"internalType":"string","name":"_tokenSymbol","type":"string"},{"internalType":"string","name":"_tokenMemo","type":"string"},{"internalType":"int64","name":"_initSupply","type":"int64"},{"internalType":"int32","name":"_decimals","type":"int32"},{"internalType":"address","name":"_initOwner","type":"address"},{"internalType":"address","name":"_controller","type":"address"},{"internalType":"bytes32","name":"_defaultPartition_","type":"bytes32"}],"stateMutability":"payable","type":"constructor"},{"inputs":[{"internalType":"address","name":"owner","type":"address"}],"name":"OwnableInvalidOwner","type":"error"},{"inputs":[{"internalType":"address","name":"account","type":"address"}],"name":"OwnableUnauthorizedAccount","type":"error"},{"anonymous":false,"inputs":[{"indexed":true,"internalType":"address","name":"owner","type":"address"},{"indexed":true,"internalType":"address","name":"spender","type":"address"},{"indexed":false,"internalType":"uint256","name":"value","type":"uint256"}],"name":"Approval","type":"event"},{"anonymous":false,"inputs":[{"indexed":true,"internalType":"address","name":"operator","type":"address"},{"indexed":true,"internalType":"address","name":"tokenHolder","type":"address"}],"name":"AuthorizedOperator","type":"event"},{"anonymous":false,"inputs":[{"indexed":true,"internalType":"bytes32","name":"partition","type":"bytes32"},{"indexed":true,"internalType":"address","name":"operator","type":"address"},{"indexed":true,"internalType":"address","name":"tokenHolder","type":"address"}],"name":"AuthorizedOperatorByPartition","type":"event"},{"anonymous":false,"inputs":[{"indexed":false,"internalType":"bool","name":"","type":"bool"},{"indexed":false,"internalType":"bytes","name":"","type":"bytes"}],"name":"CallResponseEvent","type":"event"},{"anonymous":false,"inputs":[{"indexed":false,"internalType":"address","name":"_controller","type":"address"},{"indexed":true,"internalType":"address","name":"_tokenHolder","type":"address"},{"indexed":false,"internalType":"uint256","name":"_value","type":"uint256"},{"indexed":false,"internalType":"bytes","name":"_data","type":"bytes"},{"indexed":false,"internalType":"bytes","name":"_operatorData","type":"bytes"}],"name":"ControllerRedemption","type":"event"},{"anonymous":false,"inputs":[{"indexed":false,"internalType":"address","name":"_controller","type":"address"},{"indexed":true,"internalType":"address","name":"_from","type":"address"},{"indexed":true,"internalType":"address","name":"_to","type":"address"},{"indexed":false,"internalType":"bytes32","name":"_partition","type":"bytes32"},{"indexed":false,"internalType":"uint256","name":"_value","type":"uint256"},{"indexed":false,"internalType":"bytes","name":"_data","type":"bytes"},{"indexed":false,"internalType":"bytes","name":"_operatorData","type":"bytes"}],"name":"ControllerTransfer","type":"event"},{"anonymous":false,"inputs":[{"indexed":true,"internalType":"bytes32","name":"name","type":"bytes32"},{"indexed":false,"internalType":"string","name":"uri","type":"string"},{"indexed":false,"internalType":"bytes32","name":"documentHash","type":"bytes32"}],"name":"DocumentRemoved","type":"event"},{"anonymous":false,"inputs":[{"indexed":true,"internalType":"bytes32","name":"name","type":"bytes32"},{"indexed":false,"internalType":"string","name":"uri","type":"string"},{"indexed":false,"internalType":"bytes32","name":"documentHash","type":"bytes32"}],"name":"DocumentUpdated","type":"event"},{"anonymous":false,"inputs":[],"name":"FinalizedControllerFeature","type":"event"},{"anonymous":false,"inputs":[{"indexed":true,"internalType":"address","name":"_operator","type":"address"},{"indexed":true,"internalType":"address","name":"_to","type":"address"},{"indexed":false,"internalType":"uint256","name":"_value","type":"uint256"},{"indexed":false,"internalType":"bytes","name":"_data","type":"bytes"}],"name":"Issued","type":"event"},{"anonymous":false,"inputs":[{"indexed":true,"internalType":"bytes32","name":"partition","type":"bytes32"},{"indexed":true,"internalType":"address","name":"to","type":"address"},{"indexed":false,"internalType":"uint256","name":"amount","type":"uint256"},{"indexed":false,"internalType":"bytes","name":"data","type":"bytes"}],"name":"IssuedByPartition","type":"event"},{"anonymous":false,"inputs":[{"indexed":true,"internalType":"address","name":"previousOwner","type":"address"},{"indexed":true,"internalType":"address","name":"newOwner","type":"address"}],"name":"OwnershipTransferred","type":"event"},{"anonymous":false,"inputs":[{"indexed":true,"internalType":"address","name":"_operator","type":"address"},{"indexed":true,"internalType":"address","name":"_from","type":"address"},{"indexed":false,"internalType":"uint256","name":"_value","type":"uint256"},{"indexed":false,"internalType":"bytes","name":"_data","type":"bytes"}],"name":"Redeemed","type":"event"},{"anonymous":false,"inputs":[{"indexed":true,"internalType":"bytes32","name":"partition","type":"bytes32"},{"indexed":true,"internalType":"address","name":"operator","type":"address"},{"indexed":true,"internalType":"address","name":"from","type":"address"},{"indexed":false,"internalType":"uint256","name":"amount","type":"uint256"},{"indexed":false,"internalType":"bytes","name":"data","type":"bytes"}],"name":"RedeemedByPartition","type":"event"},{"anonymous":false,"inputs":[{"indexed":true,"internalType":"address","name":"operator","type":"address"},{"indexed":true,"internalType":"address","name":"tokenHolder","type":"address"}],"name":"RevokedOperator","type":"event"},{"anonymous":false,"inputs":[{"indexed":true,"internalType":"bytes32","name":"partition","type":"bytes32"},{"indexed":true,"internalType":"address","name":"operator","type":"address"},{"indexed":true,"internalType":"address","name":"tokenHolder","type":"address"}],"name":"RevokedOperatorByPartition","type":"event"},{"anonymous":false,"inputs":[{"indexed":true,"internalType":"address","name":"from","type":"address"},{"indexed":true,"internalType":"address","name":"to","type":"address"},{"indexed":false,"internalType":"uint256","name":"value","type":"uint256"}],"name":"Transfer","type":"event"},{"anonymous":false,"inputs":[{"indexed":true,"internalType":"bytes32","name":"_fromPartition","type":"bytes32"},{"indexed":false,"internalType":"address","name":"_operator","type":"address"},{"indexed":true,"internalType":"address","name":"_from","type":"address"},{"indexed":true,"internalType":"address","name":"_to","type":"address"},{"indexed":false,"internalType":"uint256","name":"_value","type":"uint256"},{"indexed":false,"internalType":"bytes","name":"_data","type":"bytes"},{"indexed":false,"internalType":"bytes","name":"_operatorData","type":"bytes"}],"name":"TransferByPartition","type":"event"},{"inputs":[{"internalType":"bytes32","name":"_partition","type":"bytes32"},{"internalType":"address","name":"_to","type":"address"}],"name":"_validPartitionForReceiver","outputs":[{"internalType":"bool","name":"","type":"bool"}],"stateMutability":"view","type":"function"},{"inputs":[{"internalType":"address","name":"_owner","type":"address"},{"internalType":"address","name":"_spender","type":"address"}],"name":"allowance","outputs":[{"internalType":"uint256","name":"","type":"uint256"}],"stateMutability":"view","type":"function"},{"inputs":[{"internalType":"address","name":"_spender","type":"address"},{"internalType":"uint256","name":"_value","type":"uint256"}],"name":"approve","outputs":[{"internalType":"bool","name":"","type":"bool"}],"stateMutability":"nonpayable","type":"function"},{"inputs":[{"internalType":"address","name":"_operator","type":"address"}],"name":"authorizeOperator","outputs":[],"stateMutability":"nonpayable","type":"function"},{"inputs":[{"internalType":"bytes32","name":"_partition","type":"bytes32"},{"internalType":"address","name":"_operator","type":"address"}],"name":"authorizeOperatorByPartition","outputs":[],"stateMutability":"nonpayable","type":"function"},{"inputs":[{"internalType":"address","name":"_tokenHolder","type":"address"}],"name":"balanceOf","outputs":[{"internalType":"uint256","name":"","type":"uint256"}],"stateMutability":"view","type":"function"},{"inputs":[{"internalType":"bytes32","name":"_partition","type":"bytes32"},{"internalType":"address","name":"_tokenHolder","type":"address"}],"name":"balanceOfByPartition","outputs":[{"internalType":"uint256","name":"","type":"uint256"}],"stateMutability":"view","type":"function"},{"inputs":[{"internalType":"address","name":"_to","type":"address"},{"internalType":"uint256","name":"_value","type":"uint256"},{"internalType":"bytes","name":"_data","type":"bytes"}],"name":"canTransfer","outputs":[{"internalType":"bool","name":"","type":"bool"},{"internalType":"bytes1","name":"","type":"bytes1"},{"internalType":"bytes32","name":"","type":"bytes32"}],"stateMutability":"view","type":"function"},{"inputs":[{"internalType":"address","name":"_from","type":"address"},{"internalType":"address","name":"_to","type":"address"},{"internalType":"bytes32","name":"_partition","type":"bytes32"},{"internalType":"uint256","name":"_value","type":"uint256"},{"internalType":"bytes","name":"_data","type":"bytes"}],"name":"canTransferByPartition","outputs":[{"internalType":"bytes1","name":"","type":"bytes1"},{"internalType":"bytes32","name":"","type":"bytes32"},{"internalType":"bytes32","name":"","type":"bytes32"}],"stateMutability":"view","type":"function"},{"inputs":[{"internalType":"address","name":"_from","type":"address"},{"internalType":"address","name":"_to","type":"address"},{"internalType":"uint256","name":"_value","type":"uint256"},{"internalType":"bytes","name":"_data","type":"bytes"}],"name":"canTransferFrom","outputs":[{"internalType":"bool","name":"","type":"bool"},{"internalType":"bytes1","name":"","type":"bytes1"},{"internalType":"bytes32","name":"","type":"bytes32"}],"stateMutability":"view","type":"function"},{"inputs":[],"name":"controller","outputs":[{"internalType":"address","name":"","type":"address"}],"stateMutability":"view","type":"function"},{"inputs":[{"internalType":"address","name":"_from","type":"address"},{"internalType":"bytes32","name":"_partition","type":"bytes32"},{"internalType":"uint256","name":"_value","type":"uint256"},{"internalType":"bytes","name":"_data","type":"bytes"},{"internalType":"bytes","name":"_operatorData","type":"bytes"}],"name":"controllerRedeem","outputs":[],"stateMutability":"nonpayable","type":"function"},{"inputs":[{"internalType":"address","name":"_from","type":"address"},{"internalType":"address","name":"_to","type":"address"},{"internalType":"bytes32","name":"_partition","type":"bytes32"},{"internalType":"uint256","name":"_value","type":"uint256"},{"internalType":"bytes","name":"_data","type":"bytes"},{"internalType":"bytes","name":"_operatorData","type":"bytes"}],"name":"controllerTransfer","outputs":[],"stateMutability":"nonpayable","type":"function"},{"inputs":[],"name":"finalizeControllable","outputs":[],"stateMutability":"nonpayable","type":"function"},{"inputs":[],"name":"getAllDocuments","outputs":[{"internalType":"bytes32[]","name":"","type":"bytes32[]"}],"stateMutability":"view","type":"function"},{"inputs":[{"internalType":"bytes32","name":"_name","type":"bytes32"}],"name":"getDocument","outputs":[{"internalType":"string","name":"","type":"string"},{"internalType":"bytes32","name":"","type":"bytes32"},{"internalType":"uint256","name":"","type":"uint256"}],"stateMutability":"view","type":"function"},{"inputs":[],"name":"isControllable","outputs":[{"internalType":"bool","name":"","type":"bool"}],"stateMutability":"view","type":"function"},{"inputs":[],"name":"isIssuable","outputs":[{"internalType":"bool","name":"","type":"bool"}],"stateMutability":"view","type":"function"},{"inputs":[{"internalType":"address","name":"_operator","type":"address"},{"internalType":"address","name":"_tokenHolder","type":"address"}],"name":"isOperator","outputs":[{"internalType":"bool","name":"","type":"bool"}],"stateMutability":"view","type":"function"},{"inputs":[{"internalType":"bytes32","name":"_partition","type":"bytes32"},{"internalType":"address","name":"_operator","type":"address"},{"internalType":"address","name":"_tokenHolder","type":"address"}],"name":"isOperatorForPartition","outputs":[{"internalType":"bool","name":"","type":"bool"}],"stateMutability":"view","type":"function"},{"inputs":[{"internalType":"address","name":"_tokenHolder","type":"address"},{"internalType":"uint256","name":"_value","type":"uint256"},{"internalType":"bytes","name":"_data","type":"bytes"}],"name":"issue","outputs":[],"stateMutability":"nonpayable","type":"function"},{"inputs":[{"internalType":"bytes32","name":"_partition","type":"bytes32"},{"internalType":"address","name":"_tokenHolder","type":"address"},{"internalType":"uint256","name":"_value","type":"uint256"},{"internalType":"bytes","name":"_data","type":"bytes"}],"name":"issueByPartition","outputs":[],"stateMutability":"nonpayable","type":"function"},{"inputs":[{"internalType":"bytes32","name":"_partition","type":"bytes32"},{"internalType":"address","name":"_tokenHolder","type":"address"},{"internalType":"uint256","name":"_value","type":"uint256"},{"internalType":"bytes","name":"_data","type":"bytes"},{"internalType":"bytes","name":"_operatorData","type":"bytes"}],"name":"operatorRedeemByPartition","outputs":[],"stateMutability":"nonpayable","type":"function"},{"inputs":[{"internalType":"bytes32","name":"_partition","type":"bytes32"},{"internalType":"address","name":"_from","type":"address"},{"internalType":"address","name":"_to","type":"address"},{"internalType":"uint256","name":"_value","type":"uint256"},{"internalType":"bytes","name":"_data","type":"bytes"},{"internalType":"bytes","name":"_operatorData","type":"bytes"}],"name":"operatorTransferByPartition","outputs":[{"internalType":"bytes32","name":"","type":"bytes32"}],"stateMutability":"nonpayable","type":"function"},{"inputs":[],"name":"owner","outputs":[{"internalType":"address","name":"","type":"address"}],"stateMutability":"view","type":"function"},{"inputs":[{"internalType":"address","name":"account","type":"address"}],"name":"ownerGrantTokenKyc","outputs":[{"internalType":"int64","name":"","type":"int64"}],"stateMutability":"nonpayable","type":"function"},{"inputs":[],"name":"ownerPauseToken","outputs":[{"internalType":"int64","name":"","type":"int64"}],"stateMutability":"nonpayable","type":"function"},{"inputs":[{"internalType":"address","name":"account","type":"address"}],"name":"ownerRevokeTokenKyc","outputs":[{"internalType":"int64","name":"","type":"int64"}],"stateMutability":"nonpayable","type":"function"},{"inputs":[{"components":[{"internalType":"uint256","name":"keyType","type":"uint256"},{"components":[{"internalType":"bool","name":"inheritAccountKey","type":"bool"},{"internalType":"address","name":"contractId","type":"address"},{"internalType":"bytes","name":"ed25519","type":"bytes"},{"internalType":"bytes","name":"ECDSA_secp256k1","type":"bytes"},{"internalType":"address","name":"delegatableContractId","type":"address"}],"internalType":"struct IHederaTokenService.KeyValue","name":"key","type":"tuple"}],"internalType":"struct IHederaTokenService.TokenKey[]","name":"keys","type":"tuple[]"}],"name":"ownerUpdateTokenKeys","outputs":[{"internalType":"int64","name":"","type":"int64"}],"stateMutability":"nonpayable","type":"function"},{"inputs":[{"internalType":"address","name":"_tokenHolder","type":"address"}],"name":"partitionsOf","outputs":[{"internalType":"bytes32[]","name":"","type":"bytes32[]"}],"stateMutability":"view","type":"function"},{"inputs":[{"internalType":"uint256","name":"_value","type":"uint256"},{"internalType":"bytes","name":"_data","type":"bytes"}],"name":"redeem","outputs":[],"stateMutability":"nonpayable","type":"function"},{"inputs":[{"internalType":"bytes32","name":"_partition","type":"bytes32"},{"internalType":"uint256","name":"_value","type":"uint256"},{"internalType":"bytes","name":"_data","type":"bytes"}],"name":"redeemByPartition","outputs":[],"stateMutability":"nonpayable","type":"function"},{"inputs":[{"internalType":"address","name":"_tokenHolder","type":"address"},{"internalType":"uint256","name":"_value","type":"uint256"},{"internalType":"bytes","name":"_data","type":"bytes"}],"name":"redeemFrom","outputs":[],"stateMutability":"nonpayable","type":"function"},{"inputs":[{"internalType":"address","name":"token","type":"address"},{"internalType":"bytes","name":"encodedFunctionSelector","type":"bytes"}],"name":"redirectForToken","outputs":[{"internalType":"int256","name":"responseCode","type":"int256"},{"internalType":"bytes","name":"response","type":"bytes"}],"stateMutability":"nonpayable","type":"function"},{"inputs":[{"internalType":"bytes32","name":"_name","type":"bytes32"}],"name":"removeDocument","outputs":[],"stateMutability":"nonpayable","type":"function"},{"inputs":[],"name":"renounceOwnership","outputs":[],"stateMutability":"nonpayable","type":"function"},{"inputs":[{"internalType":"address","name":"_operator","type":"address"}],"name":"revokeOperator","outputs":[],"stateMutability":"nonpayable","type":"function"},{"inputs":[{"internalType":"bytes32","name":"_partition","type":"bytes32"},{"internalType":"address","name":"_operator","type":"address"}],"name":"revokeOperatorByPartition","outputs":[],"stateMutability":"nonpayable","type":"function"},{"inputs":[{"internalType":"bytes32","name":"_name","type":"bytes32"},{"internalType":"string","name":"_uri","type":"string"},{"internalType":"bytes32","name":"_documentHash","type":"bytes32"}],"name":"setDocument","outputs":[],"stateMutability":"nonpayable","type":"function"},{"inputs":[],"name":"token","outputs":[{"internalType":"address","name":"","type":"address"}],"stateMutability":"view","type":"function"},{"inputs":[],"name":"totalSupply","outputs":[{"internalType":"uint256","name":"","type":"uint256"}],"stateMutability":"view","type":"function"},{"inputs":[{"internalType":"address","name":"_to","type":"address"},{"internalType":"uint256","name":"_value","type":"uint256"}],"name":"transfer","outputs":[{"internalType":"bool","name":"","type":"bool"}],"stateMutability":"nonpayable","type":"function"},{"inputs":[{"internalType":"bytes32","name":"_partition","type":"bytes32"},{"internalType":"address","name":"_to","type":"address"},{"internalType":"uint256","name":"_value","type":"uint256"},{"internalType":"bytes","name":"_data","type":"bytes"}],"name":"transferByPartition","outputs":[{"internalType":"bytes32","name":"","type":"bytes32"}],"stateMutability":"nonpayable","type":"function"},{"inputs":[{"internalType":"address","name":"token","type":"address"},{"internalType":"address","name":"from","type":"address"},{"internalType":"address","name":"to","type":"address"},{"internalType":"uint256","name":"amount","type":"uint256"}],"name":"transferFrom","outputs":[{"internalType":"int64","name":"responseCode","type":"int64"}],"stateMutability":"nonpayable","type":"function"},{"inputs":[{"internalType":"address","name":"_from","type":"address"},{"internalType":"address","name":"_to","type":"address"},{"internalType":"uint256","name":"_value","type":"uint256"}],"name":"transferFrom","outputs":[{"internalType":"bool","name":"","type":"bool"}],"stateMutability":"nonpayable","type":"function"},{"inputs":[{"internalType":"address","name":"token","type":"address"},{"internalType":"address","name":"from","type":"address"},{"internalType":"address","name":"to","type":"address"},{"internalType":"uint256","name":"serialNumber","type":"uint256"}],"name":"transferFromNFT","outputs":[{"internalType":"int64","name":"responseCode","type":"int64"}],"stateMutability":"nonpayable","type":"function"},{"inputs":[{"internalType":"address","name":"_from","type":"address"},{"internalType":"address","name":"_to","type":"address"},{"internalType":"uint256","name":"_value","type":"uint256"},{"internalType":"bytes","name":"_data","type":"bytes"}],"name":"transferFromWithData","outputs":[],"stateMutability":"nonpayable","type":"function"},{"inputs":[{"internalType":"address","name":"newOwner","type":"address"}],"name":"transferOwnership","outputs":[],"stateMutability":"nonpayable","type":"function"},{"inputs":[{"internalType":"address","name":"_to","type":"address"},{"internalType":"uint256","name":"_value","type":"uint256"},{"internalType":"bytes","name":"_data","type":"bytes"}],"name":"transferWithData","outputs":[],"stateMutability":"nonpayable","type":"function"},{"inputs":[{"internalType":"uint256","name":"_amount","type":"uint256"}],"name":"withdrawHbar","outputs":[],"stateMutability":"nonpayable","type":"function"}],"evm":{"bytecode":{"linkReferences":{},"object":"60a060408190526005805460ff1916600117905562006de43881900390819083398101604081905262000032916200054d565b826001600160a01b0381166200006257604051631e4fbdf760e01b81526000600482015260240160405180910390fd5b6200006d816200024d565b506040805160a081018252600080825260208201819052606082840181905280830152608082018190528251600780825261010082019094529092839190816020015b620000ba620003d1565b815260200190600190039081620000b057905050905060005b60078160ff1610156200014557600160ff82161b84173060208086019190915260408051808201909152828152908101859052835191955090839060ff841690811062000124576200012462000633565b602002602001018190525080806200013c9062000649565b915050620000d3565b506040805160608082018352600080835230602080850191909152627a1200848601528451610120810186528381528082018490528086018390528084018490526080810183905260a0810183905260c0810183905260e081018490528551938401865282845290830182905293820152610100830152908c8152602081018c9052606081018b9052306040820152610100810182905260e08101839052600160c0820152600080620001fa838d8d6200029d565b9092509050601682146200020d57600080fd5b6001600160a01b03908116608052600980546001600160a01b0319169990911698909817909755505050600a929092555062000902975050505050505050565b600080546001600160a01b038381166001600160a01b0319831681178455604051919092169283917f8be0079c531659141344cd1fd0a4f28419497f9722a3daafe3b4186f6b6457e09190a35050565b600080848061010001516000015160070b6000148015620002c857506101008101516040015160070b155b15620002df576101008101516276a7006040909101525b6000806101676001600160a01b031634630fb65bf360e01b8a8a8a6040516024016200030e939291906200076e565b60408051601f198184030181529181526020820180516001600160e01b03166001600160e01b03199094169390931790925290516200034e9190620008a8565b60006040518083038185875af1925050503d80600081146200038d576040519150601f19603f3d011682016040523d82523d6000602084013e62000392565b606091505b509150915081620003a75760156000620003bd565b80806020019051810190620003bd9190620008c6565b60039190910b999098509650505050505050565b6040518060400160405280600081526020016200042a6040518060a0016040528060001515815260200160006001600160a01b03168152602001606081526020016060815260200160006001600160a01b031681525090565b905290565b634e487b7160e01b600052604160045260246000fd5b60005b838110156200046257818101518382015260200162000448565b50506000910152565b600082601f8301126200047d57600080fd5b81516001600160401b03808211156200049a576200049a6200042f565b604051601f8301601f19908116603f01168101908282118183101715620004c557620004c56200042f565b81604052838152866020858801011115620004df57600080fd5b620004f284602083016020890162000445565b9695505050505050565b8051600781900b81146200050f57600080fd5b919050565b8051600381900b81146200050f57600080fd5b6001600160a01b03811681146200053d57600080fd5b50565b80516200050f8162000527565b600080600080600080600080610100898b0312156200056b57600080fd5b88516001600160401b03808211156200058357600080fd5b620005918c838d016200046b565b995060208b0151915080821115620005a857600080fd5b620005b68c838d016200046b565b985060408b0151915080821115620005cd57600080fd5b50620005dc8b828c016200046b565b965050620005ed60608a01620004fc565b9450620005fd60808a0162000514565b93506200060d60a08a0162000540565b92506200061d60c08a0162000540565b915060e089015190509295985092959890939650565b634e487b7160e01b600052603260045260246000fd5b600060ff821660ff81036200066e57634e487b7160e01b600052601160045260246000fd5b60010192915050565b600081518084526200069181602086016020860162000445565b601f01601f19169290920160200192915050565b600081518084526020808501808196508360051b8101915082860160005b858110156200076157828403895281516040815186528682015191508087870152815115158187015286820151606060018060a01b03808316828a015283850151935060a09250608083818b01526200072060e08b018662000677565b928601518a8403603f1901858c01529294506200073e858462000677565b9501511660c09890980197909752505098850198935090840190600101620006c3565b5091979650505050505050565b60608152600084516101608060608501526200078f6101c085018362000677565b91506020870151605f1980868503016080870152620007af848362000677565b935060408901519150620007ce60a08701836001600160a01b03169052565b60608901519150808685030160c0870152620007eb848362000677565b9350608089015191506200080360e087018315159052565b60a089015191506101006200081c8188018460070b9052565b60c08a0151151561012088015260e08a015187860383016101408901529250620008478584620006a5565b9450808a01519250505062000882828601828051600790810b83526020808301516001600160a01b031690840152604091820151900b910152565b5050600785900b60208401529050620008a0604083018460030b9052565b949350505050565b60008251620008bc81846020870162000445565b9190910192915050565b60008060408385031215620008da57600080fd5b620008e58362000514565b91506020830151620008f78162000527565b809150509250929050565b608051616402620009e26000396000818161082501528181610acf01528181610c2801528181610d1101528181610e44015281816112ef015281816113cd015281816114fe01528181611710015281816119f001528181611af2015281816121490152818161217d0152818161285f0152818161292201528181612c2201528181612e6801528181612e97015281816130e8015281816134e5015281816139ac015281816139d701528181613a0701528181613b1d01528181613db401528181613ddf01528181614006015281816143c8015261442901526164026000f3fe608060405234801561001057600080fd5b50600436106103365760003560e01c80638da5cb5b116101b2578063b1e35092116100f9578063ee532f31116100a2578063f3d490db1161007c578063f3d490db146107da578063f77c4791146107ed578063fad8b32a1461080d578063fc0c546a1461082057600080fd5b8063ee532f31146107a1578063f2e35647146107b4578063f2fde38b146107c757600080fd5b8063c3501848116100d3578063c350184814610768578063dd62ed3e1461077b578063e77c646d1461078e57600080fd5b8063b1e3509214610703578063b6363cf21461070b578063bb3acde91461075557600080fd5b80639fa5f50b1161015b578063a9059cbb11610135578063a9059cbb146106bb578063b0a7fea4146106ce578063b10d6b41146106e157600080fd5b80639fa5f50b14610698578063a213934f146106a0578063a5a8404e146106a857600080fd5b80639675193c1161018c5780639675193c146106215780639945e70e146106345780639b23d3d91461068557600080fd5b80638da5cb5b146105bc5780639464fb8c146105fb578063959b8c3f1461060e57600080fd5b80632f1cae851161028157806367c849191161022a578063715018a611610204578063715018a61461056e578063740ab8f41461057657806376420f8f146105965780638c0dee9c146105a957600080fd5b806367c84919146104f75780636d77cad61461050a57806370a082311461055b57600080fd5b8063618dc65e1161025b578063618dc65e146104b057806362eb0068146104d157806364d53b4f146104e457600080fd5b80632f1cae851461048a57806330e82803146104955780634c783bf5146104a857600080fd5b8063168ecec5116102e357806323b872dd116102bd57806323b872dd146104515780632414d303146104645780632535f7621461047757600080fd5b8063168ecec51461041557806318160ddd146104285780631badb25c1461043e57600080fd5b8063122eb57511610314578063122eb5751461038b57806313d557bc146103dc57806315dacbea146103ef57600080fd5b8063010648ca1461033b578063095ea7b314610350578063103ef9e114610378575b600080fd5b61034e61034936600461518c565b610847565b005b61036361035e366004615214565b610a80565b60405190151581526020015b60405180910390f35b61034e61038636600461523e565b610b47565b61039e6103993660046152b3565b610bd6565b6040805193151584527fff0000000000000000000000000000000000000000000000000000000000000090921660208401529082015260600161036f565b61034e6103ea366004615322565b610f20565b6104026103fd3660046153b6565b6110fa565b60405160079190910b815260200161036f565b61034e61042336600461523e565b61125f565b6104306112eb565b60405190815260200161036f565b61039e61044c366004615401565b611381565b61036361045f36600461545b565b611596565b610402610472366004615497565b611701565b61034e610485366004615401565b61173d565b60055460ff16610363565b6104306104a336600461523e565b61178a565b61036361180f565b6104c36104be3660046154d2565b611819565b60405161036f92919061558e565b61034e6104df3660046155af565b61198f565b6104026104f236600461561c565b6119e1565b61034e6105053660046157bc565b611a15565b6103636105183660046157e4565b73ffffffffffffffffffffffffffffffffffffffff9081166000908152600360209081526040808320958352948152848220939092168152919052205460ff1690565b610430610569366004615497565b611aaa565b61034e611b5f565b610589610584366004615497565b611b73565b60405161036f9190615820565b61034e6105a4366004615864565b611c90565b6104306105b736600461587d565b611d66565b60005473ffffffffffffffffffffffffffffffffffffffff165b60405173ffffffffffffffffffffffffffffffffffffffff909116815260200161036f565b61034e610609366004615921565b611ec8565b61034e61061c366004615497565b612453565b61034e61062f366004615401565b6124d6565b61064761064236600461597f565b612699565b604080517fff00000000000000000000000000000000000000000000000000000000000000909416845260208401929092529082015260600161036f565b6104026106933660046153b6565b6129fd565b610589612a68565b61034e612ac0565b6104026106b6366004615497565b612c13565b6103636106c9366004615214565b612c47565b61034e6106dc3660046159f7565b612c75565b6106f46106ef366004615864565b61301e565b60405161036f93929190615a46565b6104026130d9565b610363610719366004615a6b565b73ffffffffffffffffffffffffffffffffffffffff80821660009081526004602090815260408083209386168352929052205460ff1692915050565b61034e610763366004615401565b61310c565b61034e610776366004615864565b613269565b610430610789366004615a6b565b613495565b61034e61079c366004615a95565b613552565b61034e6107af3660046152b3565b6135dd565b6103636107c236600461523e565b613624565b61034e6107d5366004615497565b6136cc565b6104306107e83660046157bc565b613730565b6009546105d69073ffffffffffffffffffffffffffffffffffffffff1681565b61034e61081b366004615497565b61378f565b6105d67f000000000000000000000000000000000000000000000000000000000000000081565b60095473ffffffffffffffffffffffffffffffffffffffff1633146108cd576040517f08c379a000000000000000000000000000000000000000000000000000000000815260206004820152600e60248201527f4e6f7420417574686f726973656400000000000000000000000000000000000060448201526064015b60405180910390fd5b82610934576040517f08c379a000000000000000000000000000000000000000000000000000000000815260206004820152601960248201527f5a65726f2076616c7565206973206e6f7420616c6c6f7765640000000000000060448201526064016108c4565b600082511161099f576040517f08c379a000000000000000000000000000000000000000000000000000000000815260206004820152601960248201527f53686f756c64206e6f74206265206120656d707479207572690000000000000060448201526064016108c4565b6000838152600660205260409020600101546109f557600880546001810182557ff3f7a9fe364faab93b216da50a3214154f22a0a2b415b23a84c8169e8b636ee301849055546000848152600760205260409020555b6040805160608101825282815242602080830191825282840186815260008881526006909252939020825181559051600182015591519091906002820190610a3d9082615b83565b50905050827fb4c22d60cd550a815744f04e3ff5278bf19684565ee00e2b084041b6024bd6f68383604051610a73929190615c9d565b60405180910390a2505050565b6040517f095ea7b300000000000000000000000000000000000000000000000000000000815273ffffffffffffffffffffffffffffffffffffffff8381166004830152602482018390526000917f00000000000000000000000000000000000000000000000000000000000000009091169063095ea7b3906044016020604051808303816000875af1158015610b1a573d6000803e3d6000fd5b505050506040513d601f19601f82011682018060405250810190610b3e9190615cbf565b90505b92915050565b336000818152600360209081526040808320868452825280832073ffffffffffffffffffffffffffffffffffffffff8616808552925280832080547fffffffffffffffffffffffffffffffffffffffffffffffffffffffffffffff0016600117905551909185917f3646a897c70797ecc134b0adc32f471b07bf1d6f451133b0384badab531e3fd69190a45050565b6040517fdd62ed3e00000000000000000000000000000000000000000000000000000000815273ffffffffffffffffffffffffffffffffffffffff8681166004830152336024830152600091829182917f00000000000000000000000000000000000000000000000000000000000000009091169063dd62ed3e90604401602060405180830381865afa158015610c71573d6000803e3d6000fd5b505050506040513d601f19601f82011682018060405250810190610c959190615ce3565b861115610cca5750600091507f5300000000000000000000000000000000000000000000000000000000000000905081610f15565b6040517f70a0823100000000000000000000000000000000000000000000000000000000815273ffffffffffffffffffffffffffffffffffffffff898116600483015287917f0000000000000000000000000000000000000000000000000000000000000000909116906370a0823190602401602060405180830381865afa158015610d5a573d6000803e3d6000fd5b505050506040513d601f19601f82011682018060405250810190610d7e9190615ce3565b1015610db25750600091507f5200000000000000000000000000000000000000000000000000000000000000905081610f15565b73ffffffffffffffffffffffffffffffffffffffff8716610dfb5750600091507f5700000000000000000000000000000000000000000000000000000000000000905081610f15565b6040517f70a0823100000000000000000000000000000000000000000000000000000000815273ffffffffffffffffffffffffffffffffffffffff8881166004830152610eb8917f0000000000000000000000000000000000000000000000000000000000000000909116906370a08231906024015b602060405180830381865afa158015610e8e573d6000803e3d6000fd5b505050506040513d601f19601f82011682018060405250810190610eb29190615ce3565b8761380f565b610eea5750600091507f5000000000000000000000000000000000000000000000000000000000000000905081610f15565b50600191507f5100000000000000000000000000000000000000000000000000000000000000905060005b955095509592505050565b73ffffffffffffffffffffffffffffffffffffffff8616610f9d576040517f08c379a000000000000000000000000000000000000000000000000000000000815260206004820152601460248201527f496e76616c69642066726f6d206164647265737300000000000000000000000060448201526064016108c4565b73ffffffffffffffffffffffffffffffffffffffff8616600090815260046020908152604080832033845290915290205460ff1680611014575073ffffffffffffffffffffffffffffffffffffffff861660009081526003602090815260408083208a8452825280832033845290915290205460ff165b61107a576040517f08c379a000000000000000000000000000000000000000000000000000000000815260206004820152600e60248201527f4e6f7420617574686f726973656400000000000000000000000000000000000060448201526064016108c4565b6110f18787338888888080601f01602080910402602001604051908101604052809392919081815260200183838082843760009201919091525050604080516020601f8c018190048102820181019092528a815292508a915089908190840183828082843760009201919091525061383a92505050565b50505050505050565b60405173ffffffffffffffffffffffffffffffffffffffff85811660248301528481166044830152831660648201526084810182905260009081908190610167907f15dacbea000000000000000000000000000000000000000000000000000000009060a4015b604080517fffffffffffffffffffffffffffffffffffffffffffffffffffffffffffffffe08184030181529181526020820180517bffffffffffffffffffffffffffffffffffffffffffffffffffffffff167fffffffff000000000000000000000000000000000000000000000000000000009094169390931790925290516111ea9190615cfc565b6000604051808303816000865af19150503d8060008114611227576040519150601f19603f3d011682016040523d82523d6000602084013e61122c565b606091505b50915091508161123d576015611251565b808060200190518101906112519190615d2a565b60030b979650505050505050565b336000818152600360209081526040808320868452825280832073ffffffffffffffffffffffffffffffffffffffff8616808552925280832080547fffffffffffffffffffffffffffffffffffffffffffffffffffffffffffffff0016905551909185917f3b287c4f1bab4df949b33bceacef984f544dc5d5479930d00e4ee8c9d8dd96f29190a45050565b60007f000000000000000000000000000000000000000000000000000000000000000073ffffffffffffffffffffffffffffffffffffffff166318160ddd6040518163ffffffff1660e01b8152600401602060405180830381865afa158015611358573d6000803e3d6000fd5b505050506040513d601f19601f8201168201806040525081019061137c9190615ce3565b905090565b6040517f70a0823100000000000000000000000000000000000000000000000000000000815233600482015260009081908190869073ffffffffffffffffffffffffffffffffffffffff7f000000000000000000000000000000000000000000000000000000000000000016906370a0823190602401602060405180830381865afa158015611414573d6000803e3d6000fd5b505050506040513d601f19601f820116820180604052508101906114389190615ce3565b101561146c5750600091507f520000000000000000000000000000000000000000000000000000000000000090508161158c565b73ffffffffffffffffffffffffffffffffffffffff87166114b55750600091507f570000000000000000000000000000000000000000000000000000000000000090508161158c565b6040517f70a0823100000000000000000000000000000000000000000000000000000000815273ffffffffffffffffffffffffffffffffffffffff888116600483015261152f917f0000000000000000000000000000000000000000000000000000000000000000909116906370a0823190602401610e71565b6115615750600091507f500000000000000000000000000000000000000000000000000000000000000090508161158c565b50600191507f5100000000000000000000000000000000000000000000000000000000000000905060005b9450945094915050565b73ffffffffffffffffffffffffffffffffffffffff8316600090815260046020908152604080832033845290915281205460ff168061160f5750600a5473ffffffffffffffffffffffffffffffffffffffff851660009081526003602090815260408083209383529281528282203383529052205460ff165b611675576040517f08c379a000000000000000000000000000000000000000000000000000000000815260206004820152600260248201527f353300000000000000000000000000000000000000000000000000000000000060448201526064016108c4565b6116f7848484600a54600067ffffffffffffffff8111156116985761169861504c565b6040519080825280601f01601f1916602001820160405280156116c2576020820181803683370190505b503360005b6040519080825280601f01601f1916602001820160405280156116f1576020820181803683370190505b50613bb4565b5060019392505050565b600061170b6140a3565b6117357f0000000000000000000000000000000000000000000000000000000000000000836140f6565b90505b919050565b611784338585600a5486868080601f016020809104026020016040519081016040528093929190818152602001838380828437600092018290525033935091506116c79050565b50505050565b6000611796838361424a565b156118075773ffffffffffffffffffffffffffffffffffffffff8216600090815260016020818152604080842060028352818520888652909252909220546117de9190615d74565b815481106117ee576117ee615d87565b9060005260206000209060020201600001549050610b41565b506000610b41565b600061137c6142d7565b6000606060008061016773ffffffffffffffffffffffffffffffffffffffff1663618dc65e60e01b8787604051602401611854929190615db6565b604080517fffffffffffffffffffffffffffffffffffffffffffffffffffffffffffffffe08184030181529181526020820180517bffffffffffffffffffffffffffffffffffffffffffffffffffffffff167fffffffff000000000000000000000000000000000000000000000000000000009094169390931790925290516118dd9190615cfc565b6000604051808303816000865af19150503d806000811461191a576040519150601f19603f3d011682016040523d82523d6000602084013e61191f565b606091505b50915091507f4af4780e06fe8cb9df64b0794fa6f01399af979175bb988e35e0e57e594567bc8282604051611955929190615de5565b60405180910390a1816119795760156040518060200160405280600081525061197d565b6016815b60039190910b97909650945050505050565b611784843360008686868080601f01602080910402602001604051908101604052809392919081815260200183838082843760009201829052506040805160208101909152908152925061383a915050565b60006119eb6140a3565b6117357f000000000000000000000000000000000000000000000000000000000000000083614303565b60095473ffffffffffffffffffffffffffffffffffffffff163314611a96576040517f08c379a000000000000000000000000000000000000000000000000000000000815260206004820152600e60248201527f4e6f7420417574686f726973656400000000000000000000000000000000000060448201526064016108c4565b611aa3858585858561433c565b5050505050565b6040517f70a0823100000000000000000000000000000000000000000000000000000000815273ffffffffffffffffffffffffffffffffffffffff82811660048301526000917f0000000000000000000000000000000000000000000000000000000000000000909116906370a0823190602401602060405180830381865afa158015611b3b573d6000803e3d6000fd5b505050506040513d601f19601f820116820180604052508101906117359190615ce3565b611b676140a3565b611b7160006145f8565b565b73ffffffffffffffffffffffffffffffffffffffff81166000908152600160205260408120546060919067ffffffffffffffff811115611bb557611bb561504c565b604051908082528060200260200182016040528015611bde578160200160208202803683370190505b50905060005b73ffffffffffffffffffffffffffffffffffffffff8416600090815260016020526040902054811015611c895773ffffffffffffffffffffffffffffffffffffffff84166000908152600160205260409020805482908110611c4857611c48615d87565b906000526020600020906002020160010154828281518110611c6c57611c6c615d87565b602090810291909101015280611c8181615e00565b915050611be4565b5092915050565b611c986140a3565b6000805460405173ffffffffffffffffffffffffffffffffffffffff9091169083908381818185875af1925050503d8060008114611cf2576040519150601f19603f3d011682016040523d82523d6000602084013e611cf7565b606091505b5050905080611d62576040517f08c379a000000000000000000000000000000000000000000000000000000000815260206004820152601360248201527f776974686472617748626172206661696c65640000000000000000000000000060448201526064016108c4565b5050565b73ffffffffffffffffffffffffffffffffffffffff8716600090815260046020908152604080832033845290915281205460ff1680611ddd575073ffffffffffffffffffffffffffffffffffffffff881660009081526003602090815260408083208c8452825280832033845290915290205460ff165b611e43576040517f08c379a000000000000000000000000000000000000000000000000000000000815260206004820152600e60248201527f4e6f7420617574686f726973656400000000000000000000000000000000000060448201526064016108c4565b611ebc8888888c89898080601f01602080910402602001604051908101604052809392919081815260200183838082843760009201919091525050604080516020601f8d018190048102820181019092528b815233935091508b908b9081908401838280828437600092019190915250613bb492505050565b98975050505050505050565b60095473ffffffffffffffffffffffffffffffffffffffff163314611f49576040517f08c379a000000000000000000000000000000000000000000000000000000000815260206004820152600e60248201527f4e6f7420417574686f726973656400000000000000000000000000000000000060448201526064016108c4565b611f53868961424a565b611fb9576040517f08c379a000000000000000000000000000000000000000000000000000000000815260206004820152601160248201527f496e76616c696420706172746974696f6e00000000000000000000000000000060448201526064016108c4565b73ffffffffffffffffffffffffffffffffffffffff88166000908152600160208181526040808420600283528185208b865290925290922054879291611ffe91615d74565b8154811061200e5761200e615d87565b9060005260206000209060020201600001541015612088576040517f08c379a000000000000000000000000000000000000000000000000000000000815260206004820152601460248201527f496e73756666696369656e742062616c616e636500000000000000000000000060448201526064016108c4565b73ffffffffffffffffffffffffffffffffffffffff8716612105576040517f08c379a000000000000000000000000000000000000000000000000000000000815260206004820152601660248201527f30782061646472657373206e6f7420616c6c6f7765640000000000000000000060448201526064016108c4565b73ffffffffffffffffffffffffffffffffffffffff8816600090815260026020908152604080832089845290915281205461214290600190615d74565b90506121777f00000000000000000000000000000000000000000000000000000000000000008a6121728961466d565b61470b565b506121ac7f0000000000000000000000000000000000000000000000000000000000000000308a6121a78a61466d565b614825565b506121b78789613624565b6122295773ffffffffffffffffffffffffffffffffffffffff88166000818152600160208181526040808420815180830183528581528084018e815282548087018455838852858820925160029182029093019283559051919095015594845293549181528383208b84529052919020555b73ffffffffffffffffffffffffffffffffffffffff881660009081526002602090815260408083208a845290915281205461226690600190615d74565b90506122d387600160008d73ffffffffffffffffffffffffffffffffffffffff1673ffffffffffffffffffffffffffffffffffffffff16815260200190815260200160002084815481106122bc576122bc615d87565b600091825260209091206002909102015490614893565b73ffffffffffffffffffffffffffffffffffffffff8b16600090815260016020526040902080548490811061230a5761230a615d87565b90600052602060002090600202016000018190555061238a87600160008c73ffffffffffffffffffffffffffffffffffffffff1673ffffffffffffffffffffffffffffffffffffffff168152602001908152602001600020838154811061237357612373615d87565b6000918252602090912060029091020154906148af565b73ffffffffffffffffffffffffffffffffffffffff8a1660009081526001602052604090208054839081106123c1576123c1615d87565b9060005260206000209060020201600001819055508873ffffffffffffffffffffffffffffffffffffffff168a73ffffffffffffffffffffffffffffffffffffffff167fa017302cf04cd9e7b51a582bd2579d952fad0f052330f26180e1af4ab126eb0f338b8b8b8b8b8b60405161243f9796959493929190615e81565b60405180910390a350505050505050505050565b33600081815260046020908152604080832073ffffffffffffffffffffffffffffffffffffffff8616808552925280832080547fffffffffffffffffffffffffffffffffffffffffffffffffffffffffffffff001660011790555190917ff4caeb2d6ca8932a215a353d0703c326ec2d81fc68170f320eb2ab49e9df61f991a350565b73ffffffffffffffffffffffffffffffffffffffff8416600090815260046020908152604080832033845290915290205460ff168061254f5750600a5473ffffffffffffffffffffffffffffffffffffffff851660009081526003602090815260408083209383529281528282203383529052205460ff165b6125b5576040517f08c379a000000000000000000000000000000000000000000000000000000000815260206004820152600260248201527f353300000000000000000000000000000000000000000000000000000000000060448201526064016108c4565b61262a600a5485338686868080601f016020809104026020016040519081016040528093929190818152602001838380828437600092018290525092506125fa915050565b6040519080825280601f01601f191660200182016040528015612624576020820181803683370190505b5061383a565b8373ffffffffffffffffffffffffffffffffffffffff163373ffffffffffffffffffffffffffffffffffffffff167fb7d0d6b60740753e9f16692a2f479472a1385aec2420fa43225b02f2ffa1afe785858560405161268b93929190615ede565b60405180910390a350505050565b60008060006126a8878a61424a565b6126fa57507f500000000000000000000000000000000000000000000000000000000000000091507f506172746974696f6e206e6f7420657869737473000000000000000000000000905060006129f1565b73ffffffffffffffffffffffffffffffffffffffff89166000908152600160209081526040808320600283528184208b855290925290912054815488929190811061274757612747615d87565b90600052602060002090600202016000015410156127ad57507f520000000000000000000000000000000000000000000000000000000000000091507f496e737566666963656e742062616c616e636500000000000000000000000000905060006129f1565b73ffffffffffffffffffffffffffffffffffffffff881661281657507f570000000000000000000000000000000000000000000000000000000000000091507f496e76616c696420726563656976657200000000000000000000000000000000905060006129f1565b6040517f70a0823100000000000000000000000000000000000000000000000000000000815273ffffffffffffffffffffffffffffffffffffffff8a811660048301526128d2917f0000000000000000000000000000000000000000000000000000000000000000909116906370a0823190602401602060405180830381865afa1580156128a8573d6000803e3d6000fd5b505050506040513d601f19601f820116820180604052508101906128cc9190615ce3565b876148cd565b158061295557506040517f70a0823100000000000000000000000000000000000000000000000000000000815273ffffffffffffffffffffffffffffffffffffffff8981166004830152612953917f0000000000000000000000000000000000000000000000000000000000000000909116906370a0823190602401610e71565b155b156129a857507f500000000000000000000000000000000000000000000000000000000000000091507f4f766572666c6f77000000000000000000000000000000000000000000000000905060006129f1565b507f510000000000000000000000000000000000000000000000000000000000000091507f53756363657373000000000000000000000000000000000000000000000000009050855b96509650969350505050565b60405173ffffffffffffffffffffffffffffffffffffffff85811660248301528481166044830152831660648201526084810182905260009081908190610167907f9b23d3d9000000000000000000000000000000000000000000000000000000009060a401611161565b60606008805480602002602001604051908101604052809291908181526020018280548015612ab657602002820191906000526020600020905b815481526020019060010190808311612aa2575b5050505050905090565b60095473ffffffffffffffffffffffffffffffffffffffff163314612b41576040517f08c379a000000000000000000000000000000000000000000000000000000000815260206004820152600e60248201527f4e6f7420417574686f726973656400000000000000000000000000000000000060448201526064016108c4565b60095473ffffffffffffffffffffffffffffffffffffffff16612bc0576040517f08c379a000000000000000000000000000000000000000000000000000000000815260206004820152601160248201527f416c72656164792066696e616c697a656400000000000000000000000000000060448201526064016108c4565b600980547fffffffffffffffffffffffff00000000000000000000000000000000000000001690556040517f777c956560861bdf04a77b9eb7199e6bc3f770f1c569970f35ac416b86d8d87290600090a1565b6000612c1d6140a3565b6117357f0000000000000000000000000000000000000000000000000000000000000000836148de565b6000612c6c338484600a54600067ffffffffffffffff8111156116985761169861504c565b50600192915050565b60095473ffffffffffffffffffffffffffffffffffffffff163314612cf6576040517f08c379a000000000000000000000000000000000000000000000000000000000815260206004820152600e60248201527f4e6f7420417574686f726973656400000000000000000000000000000000000060448201526064016108c4565b612d00868661493a565b612d0a868861424a565b612d70576040517f08c379a000000000000000000000000000000000000000000000000000000000815260206004820152601160248201527f496e76616c696420706172746974696f6e00000000000000000000000000000060448201526064016108c4565b73ffffffffffffffffffffffffffffffffffffffff87166000908152600260209081526040808320898452909152812054612dad90600190615d74565b73ffffffffffffffffffffffffffffffffffffffff891660009081526001602052604090208054919250879183908110612de957612de9615d87565b9060005260206000209060020201600001541015612e63576040517f08c379a000000000000000000000000000000000000000000000000000000000815260206004820152601260248201527f496e73756666696369656e742076616c7565000000000000000000000000000060448201526064016108c4565b612e917f0000000000000000000000000000000000000000000000000000000000000000896121728961466d565b50612ed37f0000000000000000000000000000000000000000000000000000000000000000612ebf8861466d565b604080516000815260208101909152614a08565b505073ffffffffffffffffffffffffffffffffffffffff88166000908152600160205260409020805487919083908110612f0f57612f0f615d87565b90600052602060002090600202016000015403612f3657612f31888883614b49565b612fbc565b73ffffffffffffffffffffffffffffffffffffffff881660009081526001602052604090208054612f73918891849081106122bc576122bc615d87565b73ffffffffffffffffffffffffffffffffffffffff89166000908152600160205260409020805483908110612faa57612faa615d87565b60009182526020909120600290910201555b8773ffffffffffffffffffffffffffffffffffffffff167f876b7cb47aa150b3a5516188b19ed308752ad4d0ae9a702543353b78163f758933888888888860405161300c96959493929190615f01565b60405180910390a25050505050505050565b6000818152600660205260408120805460018201546002909201805460609493849391839061304c90615ae1565b80601f016020809104026020016040519081016040528092919081815260200182805461307890615ae1565b80156130c55780601f1061309a576101008083540402835291602001916130c5565b820191906000526020600020905b8154815290600101906020018083116130a857829003601f168201915b505050505092509250925092509193909250565b60006130e36140a3565b61137c7f0000000000000000000000000000000000000000000000000000000000000000614cee565b60095473ffffffffffffffffffffffffffffffffffffffff16331461318d576040517f08c379a000000000000000000000000000000000000000000000000000000000815260206004820152600e60248201527f4e6f7420417574686f726973656400000000000000000000000000000000000060448201526064016108c4565b60055460ff166131f9576040517f08c379a000000000000000000000000000000000000000000000000000000000815260206004820152601260248201527f49737375616e636520697320636c6f736564000000000000000000000000000060448201526064016108c4565b613208600a548585858561433c565b8373ffffffffffffffffffffffffffffffffffffffff163373ffffffffffffffffffffffffffffffffffffffff167f0e9905d62635f049c2f4e11678ebf9dc3d1f8c4a653e290759b772e47ba00d0085858560405161268b93929190615ede565b60095473ffffffffffffffffffffffffffffffffffffffff1633146132ea576040517f08c379a000000000000000000000000000000000000000000000000000000000815260206004820152600e60248201527f4e6f7420417574686f726973656400000000000000000000000000000000000060448201526064016108c4565b600081815260066020526040902060010154613362576040517f08c379a000000000000000000000000000000000000000000000000000000000815260206004820152601a60248201527f446f63756d656e742073686f756c64206265206578697374656400000000000060448201526064016108c4565b60008181526007602052604081205461337d90600190615d74565b60085490915061338f90600190615d74565b811461341f57600880546133a590600190615d74565b815481106133b5576133b5615d87565b9060005260206000200154600882815481106133d3576133d3615d87565b6000918252602090912001556133ea816001615f57565b600760006008848154811061340157613401615d87565b90600052602060002001548152602001908152602001600020819055505b600082815260066020526040908190208054915184927f3d9bba27d3e360d8c80645beed7e991454a8271bf6f269a24f7782be0f0d0654926134679260029091019190615f6a565b60405180910390a2600082815260066020526040812081815560018101829055906117846002830182615002565b6040517fdd62ed3e00000000000000000000000000000000000000000000000000000000815273ffffffffffffffffffffffffffffffffffffffff838116600483015282811660248301526000917f00000000000000000000000000000000000000000000000000000000000000009091169063dd62ed3e90604401602060405180830381865afa15801561352e573d6000803e3d6000fd5b505050506040513d601f19601f82011682018060405250810190610b3e9190615ce3565b613597600a5433338686868080601f016020809104026020016040519081016040528093929190818152602001838380828437600092018290525092506125fa915050565b60405133906000907fb7d0d6b60740753e9f16692a2f479472a1385aec2420fa43225b02f2ffa1afe7906135d090879087908790615ede565b60405180910390a3505050565b611aa3338585600a5486868080601f016020809104026020016040519081016040528093929190818152602001838380828437600092018290525033935091506116c79050565b6000805b73ffffffffffffffffffffffffffffffffffffffff83166000908152600160205260409020548110156136c25773ffffffffffffffffffffffffffffffffffffffff8316600090815260016020526040902080548591908390811061368f5761368f615d87565b906000526020600020906002020160010154036136b0576001915050610b41565b806136ba81615e00565b915050613628565b5060009392505050565b6136d46140a3565b73ffffffffffffffffffffffffffffffffffffffff8116613724576040517f1e4fbdf7000000000000000000000000000000000000000000000000000000008152600060048201526024016108c4565b61372d816145f8565b50565b60006137853386868987878080601f016020809104026020016040519081016040528093929190818152602001838380828437600092018290525060408051602081019091529081523393509150613bb49050565b5093949350505050565b33600081815260046020908152604080832073ffffffffffffffffffffffffffffffffffffffff8616808552925280832080547fffffffffffffffffffffffffffffffffffffffffffffffffffffffffffffff001690555190917f50546e66e5f44d728365dc3908c63bc5cfeeab470722c1677e3073a6ac294aa191a350565b60008061381c8385615f57565b905083811015613830576000915050610b41565b6001915050610b41565b613844868461493a565b61384e868661424a565b6138b4576040517f08c379a000000000000000000000000000000000000000000000000000000000815260206004820152601160248201527f496e76616c696420706172746974696f6e00000000000000000000000000000060448201526064016108c4565b73ffffffffffffffffffffffffffffffffffffffff851660009081526002602090815260408083208984529091528120546138f190600190615d74565b73ffffffffffffffffffffffffffffffffffffffff87166000908152600160205260409020805491925085918390811061392d5761392d615d87565b90600052602060002090600202016000015410156139a7576040517f08c379a000000000000000000000000000000000000000000000000000000000815260206004820152601260248201527f496e73756666696369656e742076616c7565000000000000000000000000000060448201526064016108c4565b6139d17f000000000000000000000000000000000000000000000000000000000000000087614df4565b50613a017f000000000000000000000000000000000000000000000000000000000000000087306121a78861466d565b50613a2f7f0000000000000000000000000000000000000000000000000000000000000000612ebf8661466d565b505073ffffffffffffffffffffffffffffffffffffffff86166000908152600160205260409020805485919083908110613a6b57613a6b615d87565b90600052602060002090600202016000015403613a9257613a8d868883614b49565b613b18565b73ffffffffffffffffffffffffffffffffffffffff861660009081526001602052604090208054613acf918691849081106122bc576122bc615d87565b73ffffffffffffffffffffffffffffffffffffffff87166000908152600160205260409020805483908110613b0657613b06615d87565b60009182526020909120600290910201555b613b427f000000000000000000000000000000000000000000000000000000000000000087614e50565b508573ffffffffffffffffffffffffffffffffffffffff168573ffffffffffffffffffffffffffffffffffffffff16887fce306c3dbc4a497124b5a4f2be8388b41084c1d74663da27ecee1186c00239bf8787604051613ba392919061558e565b60405180910390a450505050505050565b613bbe848861424a565b613c24576040517f08c379a000000000000000000000000000000000000000000000000000000000815260206004820152601160248201527f496e76616c696420706172746974696f6e00000000000000000000000000000060448201526064016108c4565b73ffffffffffffffffffffffffffffffffffffffff871660009081526001602081815260408084206002835281852089865290925290922054879291613c6991615d74565b81548110613c7957613c79615d87565b9060005260206000209060020201600001541015613cf3576040517f08c379a000000000000000000000000000000000000000000000000000000000815260206004820152601460248201527f496e73756666696369656e742062616c616e636500000000000000000000000060448201526064016108c4565b73ffffffffffffffffffffffffffffffffffffffff8616613d70576040517f08c379a000000000000000000000000000000000000000000000000000000000815260206004820152601660248201527f30782061646472657373206e6f7420616c6c6f7765640000000000000000000060448201526064016108c4565b73ffffffffffffffffffffffffffffffffffffffff87166000908152600260209081526040808320878452909152812054613dad90600190615d74565b9050613dd97f000000000000000000000000000000000000000000000000000000000000000089614df4565b50613e097f000000000000000000000000000000000000000000000000000000000000000089896121a78a61466d565b50613e148588613624565b613e865773ffffffffffffffffffffffffffffffffffffffff87166000818152600160208181526040808420815180830183528581528084018c815282548087018455838852858820925160029182029093019283559051919095015594845293549181528383208984529052919020555b73ffffffffffffffffffffffffffffffffffffffff87166000908152600260209081526040808320888452909152812054613ec390600190615d74565b9050613f1987600160008c73ffffffffffffffffffffffffffffffffffffffff1673ffffffffffffffffffffffffffffffffffffffff16815260200190815260200160002084815481106122bc576122bc615d87565b73ffffffffffffffffffffffffffffffffffffffff8a166000908152600160205260409020805484908110613f5057613f50615d87565b906000526020600020906002020160000181905550613fb987600160008b73ffffffffffffffffffffffffffffffffffffffff1673ffffffffffffffffffffffffffffffffffffffff168152602001908152602001600020838154811061237357612373615d87565b73ffffffffffffffffffffffffffffffffffffffff89166000908152600160205260409020805483908110613ff057613ff0615d87565b600091825260209091206002909102015561402b7f00000000000000000000000000000000000000000000000000000000000000008a614e50565b508773ffffffffffffffffffffffffffffffffffffffff168973ffffffffffffffffffffffffffffffffffffffff16877fff4e9a26af4eb73b8bacfaa4abd4fea03d9448e7b912dc5ff4019048875aa2d4878b8a89604051614090949392919061601c565b60405180910390a4505050505050505050565b60005473ffffffffffffffffffffffffffffffffffffffff163314611b71576040517f118cdaa70000000000000000000000000000000000000000000000000000000081523360048201526024016108c4565b60405173ffffffffffffffffffffffffffffffffffffffff83811660248301528216604482015260009081908190610167907faf99c63300000000000000000000000000000000000000000000000000000000906064015b604080517fffffffffffffffffffffffffffffffffffffffffffffffffffffffffffffffe08184030181529181526020820180517bffffffffffffffffffffffffffffffffffffffffffffffffffffffff167fffffffff000000000000000000000000000000000000000000000000000000009094169390931790925290516141d79190615cfc565b6000604051808303816000865af19150503d8060008114614214576040519150601f19603f3d011682016040523d82523d6000602084013e614219565b606091505b50915091508161422a57601561423e565b8080602001905181019061423e9190615d2a565b60030b95945050505050565b73ffffffffffffffffffffffffffffffffffffffff811660008181526002602090815260408083208684528252808320549383526001909152812054909111806142c2575073ffffffffffffffffffffffffffffffffffffffff82166000908152600260209081526040808320868452909152902054155b156142cf57506000610b41565b506001610b41565b60095460009073ffffffffffffffffffffffffffffffffffffffff166142fd5750600090565b50600190565b600080600061016773ffffffffffffffffffffffffffffffffffffffff16636fc3cbaf60e01b868660405160240161414e92919061606e565b614346858461493a565b73ffffffffffffffffffffffffffffffffffffffff84166143c3576040517f08c379a000000000000000000000000000000000000000000000000000000000815260206004820152601660248201527f496e76616c696420746f6b656e2072656365697665720000000000000000000060448201526064016108c4565b6144217f00000000000000000000000000000000000000000000000000000000000000006143f08561466d565b604080516000808252602082019092529061441b565b60608152602001906001900390816144065790505b50614eac565b5050506144537f000000000000000000000000000000000000000000000000000000000000000030866121a78761466d565b5073ffffffffffffffffffffffffffffffffffffffff84166000908152600260209081526040808320888452909152812054908190036144ff5773ffffffffffffffffffffffffffffffffffffffff85166000818152600160208181526040808420815180830183528a81528084018d815282548087018455838852858820925160029182029093019283559051919095015594845293549181528383208a845290529190205561459d565b73ffffffffffffffffffffffffffffffffffffffff85166000908152600160208190526040909120614548918691906145389085615d74565b8154811061237357612373615d87565b73ffffffffffffffffffffffffffffffffffffffff861660009081526001602081905260409091209061457b9084615d74565b8154811061458b5761458b615d87565b60009182526020909120600290910201555b8473ffffffffffffffffffffffffffffffffffffffff16867f6032e2468b0f94dfa63c61d6c8a84842a99c049263eae408a52b945020b6578d8686866040516145e893929190615ede565b60405180910390a3505050505050565b6000805473ffffffffffffffffffffffffffffffffffffffff8381167fffffffffffffffffffffffff0000000000000000000000000000000000000000831681178455604051919092169283917f8be0079c531659141344cd1fd0a4f28419497f9722a3daafe3b4186f6b6457e09190a35050565b600067ffffffffffffffff821115614707576040517f08c379a000000000000000000000000000000000000000000000000000000000815260206004820152602660248201527f53616665436173743a2076616c756520646f65736e27742066697420696e203660448201527f342062697473000000000000000000000000000000000000000000000000000060648201526084016108c4565b5090565b6040805173ffffffffffffffffffffffffffffffffffffffff858116602483015284166044820152600783900b60648083019190915282518083039091018152608490910182526020810180517bffffffffffffffffffffffffffffffffffffffffffffffffffffffff167fefef57f900000000000000000000000000000000000000000000000000000000179052905160009182918291610167916147b19190615cfc565b6000604051808303816000865af19150503d80600081146147ee576040519150601f19603f3d011682016040523d82523d6000602084013e6147f3565b606091505b509150915081614804576015614818565b808060200190518101906148189190615d2a565b60030b9695505050505050565b60405173ffffffffffffffffffffffffffffffffffffffff8581166024830152848116604483015283166064820152600782900b608482015260009081908190610167907feca36917000000000000000000000000000000000000000000000000000000009060a401611161565b6000828211156148a5576148a561618c565b610b3e8284615d74565b60006148bb8284615f57565b905082811015610b4157610b4161618c565b600082821161180757506001610b41565b60405173ffffffffffffffffffffffffffffffffffffffff83811660248301528216604482015260009081908190610167907f8f8d7f99000000000000000000000000000000000000000000000000000000009060640161414e565b806149a1576040517f08c379a000000000000000000000000000000000000000000000000000000000815260206004820152601660248201527f5a65726f2076616c7565206e6f7420616c6c6f7765640000000000000000000060448201526064016108c4565b81611d62576040517f08c379a000000000000000000000000000000000000000000000000000000000815260206004820152601160248201527f496e76616c696420706172746974696f6e00000000000000000000000000000060448201526064016108c4565b60008060008061016773ffffffffffffffffffffffffffffffffffffffff1663d6910d0660e01b888888604051602401614a44939291906161bb565b604080517fffffffffffffffffffffffffffffffffffffffffffffffffffffffffffffffe08184030181529181526020820180517bffffffffffffffffffffffffffffffffffffffffffffffffffffffff167fffffffff00000000000000000000000000000000000000000000000000000000909416939093179092529051614acd9190615cfc565b6000604051808303816000865af19150503d8060008114614b0a576040519150601f19603f3d011682016040523d82523d6000602084013e614b0f565b606091505b509150915081614b225760156000614b36565b80806020019051810190614b36919061623f565b60039190910b9890975095505050505050565b73ffffffffffffffffffffffffffffffffffffffff8316600090815260016020819052604090912054614b7c9190615d74565b8114614cb85773ffffffffffffffffffffffffffffffffffffffff8316600090815260016020819052604090912080549091614bb791615d74565b81548110614bc757614bc7615d87565b9060005260206000209060020201600160008573ffffffffffffffffffffffffffffffffffffffff1673ffffffffffffffffffffffffffffffffffffffff1681526020019081526020016000208281548110614c2557614c25615d87565b60009182526020909120825460029092020190815560019182015490820155614c4f908290615f57565b73ffffffffffffffffffffffffffffffffffffffff8416600090815260026020908152604080832060019092528220805491929185908110614c9357614c93615d87565b9060005260206000209060020201600101548152602001908152602001600020819055505b5073ffffffffffffffffffffffffffffffffffffffff909116600090815260026020908152604080832093835292905290812055565b6040805173ffffffffffffffffffffffffffffffffffffffff831660248083019190915282518083039091018152604490910182526020810180517bffffffffffffffffffffffffffffffffffffffffffffffffffffffff167f7c41ad2c0000000000000000000000000000000000000000000000000000000017905290516000918291829161016791614d829190615cfc565b6000604051808303816000865af19150503d8060008114614dbf576040519150601f19603f3d011682016040523d82523d6000602084013e614dc4565b606091505b509150915081614dd5576015614de9565b80806020019051810190614de99190615d2a565b60030b949350505050565b60405173ffffffffffffffffffffffffffffffffffffffff83811660248301528216604482015260009081908190610167907f52f91387000000000000000000000000000000000000000000000000000000009060640161414e565b60405173ffffffffffffffffffffffffffffffffffffffff83811660248301528216604482015260009081908190610167907f5b8f8584000000000000000000000000000000000000000000000000000000009060640161414e565b600080606060008061016773ffffffffffffffffffffffffffffffffffffffff1663e0f4059a60e01b898989604051602401614eea93929190616269565b604080517fffffffffffffffffffffffffffffffffffffffffffffffffffffffffffffffe08184030181529181526020820180517bffffffffffffffffffffffffffffffffffffffffffffffffffffffff167fffffffff00000000000000000000000000000000000000000000000000000000909416939093179092529051614f739190615cfc565b6000604051808303816000865af19150503d8060008114614fb0576040519150601f19603f3d011682016040523d82523d6000602084013e614fb5565b606091505b509150915081614fd8576040805160008082526020820190925260159190614fec565b80806020019051810190614fec9190616311565b60039290920b9a90995090975095505050505050565b50805461500e90615ae1565b6000825580601f1061501e575050565b601f01602090049060005260206000209081019061372d91905b808211156147075760008155600101615038565b7f4e487b7100000000000000000000000000000000000000000000000000000000600052604160045260246000fd5b6040805190810167ffffffffffffffff8111828210171561509e5761509e61504c565b60405290565b60405160a0810167ffffffffffffffff8111828210171561509e5761509e61504c565b604051601f82017fffffffffffffffffffffffffffffffffffffffffffffffffffffffffffffffe016810167ffffffffffffffff8111828210171561510e5761510e61504c565b604052919050565b600067ffffffffffffffff8311156151305761513061504c565b61516160207fffffffffffffffffffffffffffffffffffffffffffffffffffffffffffffffe0601f860116016150c7565b905082815283838301111561517557600080fd5b828260208301376000602084830101529392505050565b6000806000606084860312156151a157600080fd5b83359250602084013567ffffffffffffffff8111156151bf57600080fd5b8401601f810186136151d057600080fd5b6151df86823560208401615116565b925050604084013590509250925092565b803573ffffffffffffffffffffffffffffffffffffffff8116811461173857600080fd5b6000806040838503121561522757600080fd5b615230836151f0565b946020939093013593505050565b6000806040838503121561525157600080fd5b82359150615261602084016151f0565b90509250929050565b60008083601f84011261527c57600080fd5b50813567ffffffffffffffff81111561529457600080fd5b6020830191508360208285010111156152ac57600080fd5b9250929050565b6000806000806000608086880312156152cb57600080fd5b6152d4866151f0565b94506152e2602087016151f0565b935060408601359250606086013567ffffffffffffffff81111561530557600080fd5b6153118882890161526a565b969995985093965092949392505050565b600080600080600080600060a0888a03121561533d57600080fd5b8735965061534d602089016151f0565b955060408801359450606088013567ffffffffffffffff8082111561537157600080fd5b61537d8b838c0161526a565b909650945060808a013591508082111561539657600080fd5b506153a38a828b0161526a565b989b979a50959850939692959293505050565b600080600080608085870312156153cc57600080fd5b6153d5856151f0565b93506153e3602086016151f0565b92506153f1604086016151f0565b9396929550929360600135925050565b6000806000806060858703121561541757600080fd5b615420856151f0565b935060208501359250604085013567ffffffffffffffff81111561544357600080fd5b61544f8782880161526a565b95989497509550505050565b60008060006060848603121561547057600080fd5b615479846151f0565b9250615487602085016151f0565b9150604084013590509250925092565b6000602082840312156154a957600080fd5b610b3e826151f0565b600082601f8301126154c357600080fd5b610b3e83833560208501615116565b600080604083850312156154e557600080fd5b6154ee836151f0565b9150602083013567ffffffffffffffff81111561550a57600080fd5b615516858286016154b2565b9150509250929050565b60005b8381101561553b578181015183820152602001615523565b50506000910152565b6000815180845261555c816020860160208601615520565b601f017fffffffffffffffffffffffffffffffffffffffffffffffffffffffffffffffe0169290920160200192915050565b8281526040602082015260006155a76040830184615544565b949350505050565b600080600080606085870312156155c557600080fd5b8435935060208501359250604085013567ffffffffffffffff81111561544357600080fd5b600067ffffffffffffffff8211156156045761560461504c565b5060051b60200190565b801515811461372d57600080fd5b6000602080838503121561562f57600080fd5b823567ffffffffffffffff8082111561564757600080fd5b818501915085601f83011261565b57600080fd5b813561566e615669826155ea565b6150c7565b81815260059190911b8301840190848101908883111561568d57600080fd5b8585015b838110156157af578035858111156156a857600080fd5b86017fffffffffffffffffffffffffffffffffffffffffffffffffffffffffffffffe06040828d03820112156156dd57600080fd5b6156e561507b565b8983013581526040830135888111156156fd57600080fd5b929092019160a0838e038301121561571457600080fd5b61571c6150a4565b91508983013561572b8161560e565b8252615739604084016151f0565b8a83015260608301358881111561574f57600080fd5b61575d8e8c838701016154b2565b60408401525060808301358881111561577557600080fd5b6157838e8c838701016154b2565b60608401525061579560a084016151f0565b6080830152808a0191909152845250918601918601615691565b5098975050505050505050565b6000806000806000608086880312156157d457600080fd5b853594506152e2602087016151f0565b6000806000606084860312156157f957600080fd5b83359250615809602085016151f0565b9150615817604085016151f0565b90509250925092565b6020808252825182820181905260009190848201906040850190845b818110156158585783518352928401929184019160010161583c565b50909695505050505050565b60006020828403121561587657600080fd5b5035919050565b60008060008060008060008060c0898b03121561589957600080fd5b883597506158a960208a016151f0565b96506158b760408a016151f0565b955060608901359450608089013567ffffffffffffffff808211156158db57600080fd5b6158e78c838d0161526a565b909650945060a08b013591508082111561590057600080fd5b5061590d8b828c0161526a565b999c989b5096995094979396929594505050565b60008060008060008060008060c0898b03121561593d57600080fd5b615946896151f0565b975061595460208a016151f0565b96506040890135955060608901359450608089013567ffffffffffffffff808211156158db57600080fd5b60008060008060008060a0878903121561599857600080fd5b6159a1876151f0565b95506159af602088016151f0565b94506040870135935060608701359250608087013567ffffffffffffffff8111156159d957600080fd5b6159e589828a0161526a565b979a9699509497509295939492505050565b600080600080600080600060a0888a031215615a1257600080fd5b615a1b886151f0565b96506020880135955060408801359450606088013567ffffffffffffffff8082111561537157600080fd5b606081526000615a596060830186615544565b60208301949094525060400152919050565b60008060408385031215615a7e57600080fd5b615a87836151f0565b9150615261602084016151f0565b600080600060408486031215615aaa57600080fd5b83359250602084013567ffffffffffffffff811115615ac857600080fd5b615ad48682870161526a565b9497909650939450505050565b600181811c90821680615af557607f821691505b602082108103615b2e577f4e487b7100000000000000000000000000000000000000000000000000000000600052602260045260246000fd5b50919050565b601f821115615b7e57600081815260208120601f850160051c81016020861015615b5b5750805b601f850160051c820191505b81811015615b7a57828155600101615b67565b5050505b505050565b815167ffffffffffffffff811115615b9d57615b9d61504c565b615bb181615bab8454615ae1565b84615b34565b602080601f831160018114615c045760008415615bce5750858301515b7fffffffffffffffffffffffffffffffffffffffffffffffffffffffffffffffff600386901b1c1916600185901b178555615b7a565b6000858152602081207fffffffffffffffffffffffffffffffffffffffffffffffffffffffffffffffe08616915b82811015615c5157888601518255948401946001909101908401615c32565b5085821015615c8d57878501517fffffffffffffffffffffffffffffffffffffffffffffffffffffffffffffffff600388901b60f8161c191681555b5050505050600190811b01905550565b604081526000615cb06040830185615544565b90508260208301529392505050565b600060208284031215615cd157600080fd5b8151615cdc8161560e565b9392505050565b600060208284031215615cf557600080fd5b5051919050565b60008251615d0e818460208701615520565b9190910192915050565b8051600381900b811461173857600080fd5b600060208284031215615d3c57600080fd5b610b3e82615d18565b7f4e487b7100000000000000000000000000000000000000000000000000000000600052601160045260246000fd5b81810381811115610b4157610b41615d45565b7f4e487b7100000000000000000000000000000000000000000000000000000000600052603260045260246000fd5b73ffffffffffffffffffffffffffffffffffffffff831681526040602082015260006155a76040830184615544565b82151581526040602082015260006155a76040830184615544565b60007fffffffffffffffffffffffffffffffffffffffffffffffffffffffffffffffff8203615e3157615e31615d45565b5060010190565b8183528181602085013750600060208284010152600060207fffffffffffffffffffffffffffffffffffffffffffffffffffffffffffffffe0601f840116840101905092915050565b73ffffffffffffffffffffffffffffffffffffffff8816815286602082015285604082015260a060608201526000615ebd60a083018688615e38565b8281036080840152615ed0818587615e38565b9a9950505050505050505050565b838152604060208201526000615ef8604083018486615e38565b95945050505050565b73ffffffffffffffffffffffffffffffffffffffff87168152856020820152608060408201526000615f37608083018688615e38565b8281036060840152615f4a818587615e38565b9998505050505050505050565b80820180821115610b4157610b41615d45565b604081526000808454615f7c81615ae1565b8060408601526060600180841660008114615f9e5760018114615fd657616007565b7fffffffffffffffffffffffffffffffffffffffffffffffffffffffffffffff008516838901528284151560051b8901019550616007565b8960005260208060002060005b86811015615ffe5781548b8201870152908401908201615fe3565b8a018501975050505b50505050506020929092019290925292915050565b73ffffffffffffffffffffffffffffffffffffffff851681528360208201526080604082015260006160516080830185615544565b82810360608401526160638185615544565b979650505050505050565b6000604080830173ffffffffffffffffffffffffffffffffffffffff808716855260208381870152828751808552606094508488019150848160051b890101838a0160005b8381101561617b578a83037fffffffffffffffffffffffffffffffffffffffffffffffffffffffffffffffa00185528151805184528601518684018a9052805115158a850152808701518816898501528981015160a0608080870182905261611e60e0880184615544565b92508b8401517fffffffffffffffffffffffffffffffffffffffffffffffffffffffffffffffc088850301838901526161578482615544565b91909401518b1660c0979097019690965250505093850193908501906001016160b3565b50909b9a5050505050505050505050565b7f4e487b7100000000000000000000000000000000000000000000000000000000600052600160045260246000fd5b60006060820173ffffffffffffffffffffffffffffffffffffffff861683526020600786810b8286015260606040860152828651808552608087019150838801945060005b8181101561621e578551840b83529484019491840191600101616200565b50909998505050505050505050565b8051600781900b811461173857600080fd5b6000806040838503121561625257600080fd5b61625b83615d18565b91506152616020840161622d565b60006060820173ffffffffffffffffffffffffffffffffffffffff8616835260208560070b818501526060604085015281855180845260808601915060808160051b870101935082870160005b82811015616302577fffffffffffffffffffffffffffffffffffffffffffffffffffffffffffffff808887030184526162f0868351615544565b955092840192908401906001016162b6565b50939998505050505050505050565b60008060006060848603121561632657600080fd5b61632f84615d18565b9250602061633e81860161622d565b9250604085015167ffffffffffffffff81111561635a57600080fd5b8501601f8101871361636b57600080fd5b8051616379615669826155ea565b81815260059190911b8201830190838101908983111561639857600080fd5b928401925b828410156163bd576163ae8461622d565b8252928401929084019061639d565b8095505050505050925092509256fea2646970667358221220c058a8abb32293b579e5d97fd7dcd0c24a27e2d4920ddf81caace1e78435e7f464736f6c63430008140033","opcodes":"PUSH1 0xA0 PUSH1 0x40 DUP2 SWAP1 MSTORE PUSH1 0x5 DUP1 SLOAD PUSH1 0xFF NOT AND PUSH1 0x1 OR SWAP1 SSTORE PUSH3 0x6DE4 CODESIZE DUP2 SWAP1 SUB SWAP1 DUP2 SWAP1 DUP4 CODECOPY DUP2 ADD PUSH1 0x40 DUP2 SWAP1 MSTORE PUSH3 0x32 SWAP2 PUSH3 0x54D JUMP JUMPDEST DUP3 PUSH1 0x1 PUSH1 0x1 PUSH1 0xA0 SHL SUB DUP2 AND PUSH3 0x62 JUMPI PUSH1 0x40 MLOAD PUSH4 0x1E4FBDF7 PUSH1 0xE0 SHL DUP2 MSTORE PUSH1 0x0 PUSH1 0x4 DUP3 ADD MSTORE PUSH1 0x24 ADD PUSH1 0x40 MLOAD DUP1 SWAP2 SUB SWAP1 REVERT JUMPDEST PUSH3 0x6D DUP2 PUSH3 0x24D JUMP JUMPDEST POP PUSH1 0x40 DUP1 MLOAD PUSH1 0xA0 DUP2 ADD DUP3 MSTORE PUSH1 0x0 DUP1 DUP3 MSTORE PUSH1 0x20 DUP3 ADD DUP2 SWAP1 MSTORE PUSH1 0x60 DUP3 DUP5 ADD DUP2 SWAP1 MSTORE DUP1 DUP4 ADD MSTORE PUSH1 0x80 DUP3 ADD DUP2 SWAP1 MSTORE DUP3 MLOAD PUSH1 0x7 DUP1 DUP3 MSTORE PUSH2 0x100 DUP3 ADD SWAP1 SWAP5 MSTORE SWAP1 SWAP3 DUP4 SWAP2 SWAP1 DUP2 PUSH1 0x20 ADD JUMPDEST PUSH3 0xBA PUSH3 0x3D1 JUMP JUMPDEST DUP2 MSTORE PUSH1 0x20 ADD SWAP1 PUSH1 0x1 SWAP1 SUB SWAP1 DUP2 PUSH3 0xB0 JUMPI SWAP1 POP POP SWAP1 POP PUSH1 0x0 JUMPDEST PUSH1 0x7 DUP2 PUSH1 0xFF AND LT ISZERO PUSH3 0x145 JUMPI PUSH1 0x1 PUSH1 0xFF DUP3 AND SHL DUP5 OR ADDRESS PUSH1 0x20 DUP1 DUP7 ADD SWAP2 SWAP1 SWAP2 MSTORE PUSH1 0x40 DUP1 MLOAD DUP1 DUP3 ADD SWAP1 SWAP2 MSTORE DUP3 DUP2 MSTORE SWAP1 DUP2 ADD DUP6 SWAP1 MSTORE DUP4 MLOAD SWAP2 SWAP6 POP SWAP1 DUP4 SWAP1 PUSH1 0xFF DUP5 AND SWAP1 DUP2 LT PUSH3 0x124 JUMPI PUSH3 0x124 PUSH3 0x633 JUMP JUMPDEST PUSH1 0x20 MUL PUSH1 0x20 ADD ADD DUP2 SWAP1 MSTORE POP DUP1 DUP1 PUSH3 0x13C SWAP1 PUSH3 0x649 JUMP JUMPDEST SWAP2 POP POP PUSH3 0xD3 JUMP JUMPDEST POP PUSH1 0x40 DUP1 MLOAD PUSH1 0x60 DUP1 DUP3 ADD DUP4 MSTORE PUSH1 0x0 DUP1 DUP4 MSTORE ADDRESS PUSH1 0x20 DUP1 DUP6 ADD SWAP2 SWAP1 SWAP2 MSTORE PUSH3 0x7A1200 DUP5 DUP7 ADD MSTORE DUP5 MLOAD PUSH2 0x120 DUP2 ADD DUP7 MSTORE DUP4 DUP2 MSTORE DUP1 DUP3 ADD DUP5 SWAP1 MSTORE DUP1 DUP7 ADD DUP4 SWAP1 MSTORE DUP1 DUP5 ADD DUP5 SWAP1 MSTORE PUSH1 0x80 DUP2 ADD DUP4 SWAP1 MSTORE PUSH1 0xA0 DUP2 ADD DUP4 SWAP1 MSTORE PUSH1 0xC0 DUP2 ADD DUP4 SWAP1 MSTORE PUSH1 0xE0 DUP2 ADD DUP5 SWAP1 MSTORE DUP6 MLOAD SWAP4 DUP5 ADD DUP7 MSTORE DUP3 DUP5 MSTORE SWAP1 DUP4 ADD DUP3 SWAP1 MSTORE SWAP4 DUP3 ADD MSTORE PUSH2 0x100 DUP4 ADD MSTORE SWAP1 DUP13 DUP2 MSTORE PUSH1 0x20 DUP2 ADD DUP13 SWAP1 MSTORE PUSH1 0x60 DUP2 ADD DUP12 SWAP1 MSTORE ADDRESS PUSH1 0x40 DUP3 ADD MSTORE PUSH2 0x100 DUP2 ADD DUP3 SWAP1 MSTORE PUSH1 0xE0 DUP2 ADD DUP4 SWAP1 MSTORE PUSH1 0x1 PUSH1 0xC0 DUP3 ADD MSTORE PUSH1 0x0 DUP1 PUSH3 0x1FA DUP4 DUP14 DUP14 PUSH3 0x29D JUMP JUMPDEST SWAP1 SWAP3 POP SWAP1 POP PUSH1 0x16 DUP3 EQ PUSH3 0x20D JUMPI PUSH1 0x0 DUP1 REVERT JUMPDEST PUSH1 0x1 PUSH1 0x1 PUSH1 0xA0 SHL SUB SWAP1 DUP2 AND PUSH1 0x80 MSTORE PUSH1 0x9 DUP1 SLOAD PUSH1 0x1 PUSH1 0x1 PUSH1 0xA0 SHL SUB NOT AND SWAP10 SWAP1 SWAP2 AND SWAP9 SWAP1 SWAP9 OR SWAP1 SWAP8 SSTORE POP POP POP PUSH1 0xA SWAP3 SWAP1 SWAP3 SSTORE POP PUSH3 0x902 SWAP8 POP POP POP POP POP POP POP POP JUMP JUMPDEST PUSH1 0x0 DUP1 SLOAD PUSH1 0x1 PUSH1 0x1 PUSH1 0xA0 SHL SUB DUP4 DUP2 AND PUSH1 0x1 PUSH1 0x1 PUSH1 0xA0 SHL SUB NOT DUP4 AND DUP2 OR DUP5 SSTORE PUSH1 0x40 MLOAD SWAP2 SWAP1 SWAP3 AND SWAP3 DUP4 SWAP2 PUSH32 0x8BE0079C531659141344CD1FD0A4F28419497F9722A3DAAFE3B4186F6B6457E0 SWAP2 SWAP1 LOG3 POP POP JUMP JUMPDEST PUSH1 0x0 DUP1 DUP5 DUP1 PUSH2 0x100 ADD MLOAD PUSH1 0x0 ADD MLOAD PUSH1 0x7 SIGNEXTEND PUSH1 0x0 EQ DUP1 ISZERO PUSH3 0x2C8 JUMPI POP PUSH2 0x100 DUP2 ADD MLOAD PUSH1 0x40 ADD MLOAD PUSH1 0x7 SIGNEXTEND ISZERO JUMPDEST ISZERO PUSH3 0x2DF JUMPI PUSH2 0x100 DUP2 ADD MLOAD PUSH3 0x76A700 PUSH1 0x40 SWAP1 SWAP2 ADD MSTORE JUMPDEST PUSH1 0x0 DUP1 PUSH2 0x167 PUSH1 0x1 PUSH1 0x1 PUSH1 0xA0 SHL SUB AND CALLVALUE PUSH4 0xFB65BF3 PUSH1 0xE0 SHL DUP11 DUP11 DUP11 PUSH1 0x40 MLOAD PUSH1 0x24 ADD PUSH3 0x30E SWAP4 SWAP3 SWAP2 SWAP1 PUSH3 0x76E JUMP JUMPDEST PUSH1 0x40 DUP1 MLOAD PUSH1 0x1F NOT DUP2 DUP5 SUB ADD DUP2 MSTORE SWAP2 DUP2 MSTORE PUSH1 0x20 DUP3 ADD DUP1 MLOAD PUSH1 0x1 PUSH1 0x1 PUSH1 0xE0 SHL SUB AND PUSH1 0x1 PUSH1 0x1 PUSH1 0xE0 SHL SUB NOT SWAP1 SWAP5 AND SWAP4 SWAP1 SWAP4 OR SWAP1 SWAP3 MSTORE SWAP1 MLOAD PUSH3 0x34E SWAP2 SWAP1 PUSH3 0x8A8 JUMP JUMPDEST PUSH1 0x0 PUSH1 0x40 MLOAD DUP1 DUP4 SUB DUP2 DUP6 DUP8 GAS CALL SWAP3 POP POP POP RETURNDATASIZE DUP1 PUSH1 0x0 DUP2 EQ PUSH3 0x38D JUMPI PUSH1 0x40 MLOAD SWAP2 POP PUSH1 0x1F NOT PUSH1 0x3F RETURNDATASIZE ADD AND DUP3 ADD PUSH1 0x40 MSTORE RETURNDATASIZE DUP3 MSTORE RETURNDATASIZE PUSH1 0x0 PUSH1 0x20 DUP5 ADD RETURNDATACOPY PUSH3 0x392 JUMP JUMPDEST PUSH1 0x60 SWAP2 POP JUMPDEST POP SWAP2 POP SWAP2 POP DUP2 PUSH3 0x3A7 JUMPI PUSH1 0x15 PUSH1 0x0 PUSH3 0x3BD JUMP JUMPDEST DUP1 DUP1 PUSH1 0x20 ADD SWAP1 MLOAD DUP2 ADD SWAP1 PUSH3 0x3BD SWAP2 SWAP1 PUSH3 0x8C6 JUMP JUMPDEST PUSH1 0x3 SWAP2 SWAP1 SWAP2 SIGNEXTEND SWAP10 SWAP1 SWAP9 POP SWAP7 POP POP POP POP POP POP POP JUMP JUMPDEST PUSH1 0x40 MLOAD DUP1 PUSH1 0x40 ADD PUSH1 0x40 MSTORE DUP1 PUSH1 0x0 DUP2 MSTORE PUSH1 0x20 ADD PUSH3 0x42A PUSH1 0x40 MLOAD DUP1 PUSH1 0xA0 ADD PUSH1 0x40 MSTORE DUP1 PUSH1 0x0 ISZERO ISZERO DUP2 MSTORE PUSH1 0x20 ADD PUSH1 0x0 PUSH1 0x1 PUSH1 0x1 PUSH1 0xA0 SHL SUB AND DUP2 MSTORE PUSH1 0x20 ADD PUSH1 0x60 DUP2 MSTORE PUSH1 0x20 ADD PUSH1 0x60 DUP2 MSTORE PUSH1 0x20 ADD PUSH1 0x0 PUSH1 0x1 PUSH1 0x1 PUSH1 0xA0 SHL SUB AND DUP2 MSTORE POP SWAP1 JUMP JUMPDEST SWAP1 MSTORE SWAP1 JUMP JUMPDEST PUSH4 0x4E487B71 PUSH1 0xE0 SHL PUSH1 0x0 MSTORE PUSH1 0x41 PUSH1 0x4 MSTORE PUSH1 0x24 PUSH1 0x0 REVERT JUMPDEST PUSH1 0x0 JUMPDEST DUP4 DUP2 LT ISZERO PUSH3 0x462 JUMPI DUP2 DUP2 ADD MLOAD DUP4 DUP3 ADD MSTORE PUSH1 0x20 ADD PUSH3 0x448 JUMP JUMPDEST POP POP PUSH1 0x0 SWAP2 ADD MSTORE JUMP JUMPDEST PUSH1 0x0 DUP3 PUSH1 0x1F DUP4 ADD SLT PUSH3 0x47D JUMPI PUSH1 0x0 DUP1 REVERT JUMPDEST DUP2 MLOAD PUSH1 0x1 PUSH1 0x1 PUSH1 0x40 SHL SUB DUP1 DUP3 GT ISZERO PUSH3 0x49A JUMPI PUSH3 0x49A PUSH3 0x42F JUMP JUMPDEST PUSH1 0x40 MLOAD PUSH1 0x1F DUP4 ADD PUSH1 0x1F NOT SWAP1 DUP2 AND PUSH1 0x3F ADD AND DUP2 ADD SWAP1 DUP3 DUP3 GT DUP2 DUP4 LT OR ISZERO PUSH3 0x4C5 JUMPI PUSH3 0x4C5 PUSH3 0x42F JUMP JUMPDEST DUP2 PUSH1 0x40 MSTORE DUP4 DUP2 MSTORE DUP7 PUSH1 0x20 DUP6 DUP9 ADD ADD GT ISZERO PUSH3 0x4DF JUMPI PUSH1 0x0 DUP1 REVERT JUMPDEST PUSH3 0x4F2 DUP5 PUSH1 0x20 DUP4 ADD PUSH1 0x20 DUP10 ADD PUSH3 0x445 JUMP JUMPDEST SWAP7 SWAP6 POP POP POP POP POP POP JUMP JUMPDEST DUP1 MLOAD PUSH1 0x7 DUP2 SWAP1 SIGNEXTEND DUP2 EQ PUSH3 0x50F JUMPI PUSH1 0x0 DUP1 REVERT JUMPDEST SWAP2 SWAP1 POP JUMP JUMPDEST DUP1 MLOAD PUSH1 0x3 DUP2 SWAP1 SIGNEXTEND DUP2 EQ PUSH3 0x50F JUMPI PUSH1 0x0 DUP1 REVERT JUMPDEST PUSH1 0x1 PUSH1 0x1 PUSH1 0xA0 SHL SUB DUP2 AND DUP2 EQ PUSH3 0x53D JUMPI PUSH1 0x0 DUP1 REVERT JUMPDEST POP JUMP JUMPDEST DUP1 MLOAD PUSH3 0x50F DUP2 PUSH3 0x527 JUMP JUMPDEST PUSH1 0x0 DUP1 PUSH1 0x0 DUP1 PUSH1 0x0 DUP1 PUSH1 0x0 DUP1 PUSH2 0x100 DUP10 DUP12 SUB SLT ISZERO PUSH3 0x56B JUMPI PUSH1 0x0 DUP1 REVERT JUMPDEST DUP9 MLOAD PUSH1 0x1 PUSH1 0x1 PUSH1 0x40 SHL SUB DUP1 DUP3 GT ISZERO PUSH3 0x583 JUMPI PUSH1 0x0 DUP1 REVERT JUMPDEST PUSH3 0x591 DUP13 DUP4 DUP14 ADD PUSH3 0x46B JUMP JUMPDEST SWAP10 POP PUSH1 0x20 DUP12 ADD MLOAD SWAP2 POP DUP1 DUP3 GT ISZERO PUSH3 0x5A8 JUMPI PUSH1 0x0 DUP1 REVERT JUMPDEST PUSH3 0x5B6 DUP13 DUP4 DUP14 ADD PUSH3 0x46B JUMP JUMPDEST SWAP9 POP PUSH1 0x40 DUP12 ADD MLOAD SWAP2 POP DUP1 DUP3 GT ISZERO PUSH3 0x5CD JUMPI PUSH1 0x0 DUP1 REVERT JUMPDEST POP PUSH3 0x5DC DUP12 DUP3 DUP13 ADD PUSH3 0x46B JUMP JUMPDEST SWAP7 POP POP PUSH3 0x5ED PUSH1 0x60 DUP11 ADD PUSH3 0x4FC JUMP JUMPDEST SWAP5 POP PUSH3 0x5FD PUSH1 0x80 DUP11 ADD PUSH3 0x514 JUMP JUMPDEST SWAP4 POP PUSH3 0x60D PUSH1 0xA0 DUP11 ADD PUSH3 0x540 JUMP JUMPDEST SWAP3 POP PUSH3 0x61D PUSH1 0xC0 DUP11 ADD PUSH3 0x540 JUMP JUMPDEST SWAP2 POP PUSH1 0xE0 DUP10 ADD MLOAD SWAP1 POP SWAP3 SWAP6 SWAP9 POP SWAP3 SWAP6 SWAP9 SWAP1 SWAP4 SWAP7 POP JUMP JUMPDEST PUSH4 0x4E487B71 PUSH1 0xE0 SHL PUSH1 0x0 MSTORE PUSH1 0x32 PUSH1 0x4 MSTORE PUSH1 0x24 PUSH1 0x0 REVERT JUMPDEST PUSH1 0x0 PUSH1 0xFF DUP3 AND PUSH1 0xFF DUP2 SUB PUSH3 0x66E JUMPI PUSH4 0x4E487B71 PUSH1 0xE0 SHL PUSH1 0x0 MSTORE PUSH1 0x11 PUSH1 0x4 MSTORE PUSH1 0x24 PUSH1 0x0 REVERT JUMPDEST PUSH1 0x1 ADD SWAP3 SWAP2 POP POP JUMP JUMPDEST PUSH1 0x0 DUP2 MLOAD DUP1 DUP5 MSTORE PUSH3 0x691 DUP2 PUSH1 0x20 DUP7 ADD PUSH1 0x20 DUP7 ADD PUSH3 0x445 JUMP JUMPDEST PUSH1 0x1F ADD PUSH1 0x1F NOT AND SWAP3 SWAP1 SWAP3 ADD PUSH1 0x20 ADD SWAP3 SWAP2 POP POP JUMP JUMPDEST PUSH1 0x0 DUP2 MLOAD DUP1 DUP5 MSTORE PUSH1 0x20 DUP1 DUP6 ADD DUP1 DUP2 SWAP7 POP DUP4 PUSH1 0x5 SHL DUP2 ADD SWAP2 POP DUP3 DUP7 ADD PUSH1 0x0 JUMPDEST DUP6 DUP2 LT ISZERO PUSH3 0x761 JUMPI DUP3 DUP5 SUB DUP10 MSTORE DUP2 MLOAD PUSH1 0x40 DUP2 MLOAD DUP7 MSTORE DUP7 DUP3 ADD MLOAD SWAP2 POP DUP1 DUP8 DUP8 ADD MSTORE DUP2 MLOAD ISZERO ISZERO DUP2 DUP8 ADD MSTORE DUP7 DUP3 ADD MLOAD PUSH1 0x60 PUSH1 0x1 DUP1 PUSH1 0xA0 SHL SUB DUP1 DUP4 AND DUP3 DUP11 ADD MSTORE DUP4 DUP6 ADD MLOAD SWAP4 POP PUSH1 0xA0 SWAP3 POP PUSH1 0x80 DUP4 DUP2 DUP12 ADD MSTORE PUSH3 0x720 PUSH1 0xE0 DUP12 ADD DUP7 PUSH3 0x677 JUMP JUMPDEST SWAP3 DUP7 ADD MLOAD DUP11 DUP5 SUB PUSH1 0x3F NOT ADD DUP6 DUP13 ADD MSTORE SWAP3 SWAP5 POP PUSH3 0x73E DUP6 DUP5 PUSH3 0x677 JUMP JUMPDEST SWAP6 ADD MLOAD AND PUSH1 0xC0 SWAP9 SWAP1 SWAP9 ADD SWAP8 SWAP1 SWAP8 MSTORE POP POP SWAP9 DUP6 ADD SWAP9 SWAP4 POP SWAP1 DUP5 ADD SWAP1 PUSH1 0x1 ADD PUSH3 0x6C3 JUMP JUMPDEST POP SWAP2 SWAP8 SWAP7 POP POP POP POP POP POP POP JUMP JUMPDEST PUSH1 0x60 DUP2 MSTORE PUSH1 0x0 DUP5 MLOAD PUSH2 0x160 DUP1 PUSH1 0x60 DUP6 ADD MSTORE PUSH3 0x78F PUSH2 0x1C0 DUP6 ADD DUP4 PUSH3 0x677 JUMP JUMPDEST SWAP2 POP PUSH1 0x20 DUP8 ADD MLOAD PUSH1 0x5F NOT DUP1 DUP7 DUP6 SUB ADD PUSH1 0x80 DUP8 ADD MSTORE PUSH3 0x7AF DUP5 DUP4 PUSH3 0x677 JUMP JUMPDEST SWAP4 POP PUSH1 0x40 DUP10 ADD MLOAD SWAP2 POP PUSH3 0x7CE PUSH1 0xA0 DUP8 ADD DUP4 PUSH1 0x1 PUSH1 0x1 PUSH1 0xA0 SHL SUB AND SWAP1 MSTORE JUMP JUMPDEST PUSH1 0x60 DUP10 ADD MLOAD SWAP2 POP DUP1 DUP7 DUP6 SUB ADD PUSH1 0xC0 DUP8 ADD MSTORE PUSH3 0x7EB DUP5 DUP4 PUSH3 0x677 JUMP JUMPDEST SWAP4 POP PUSH1 0x80 DUP10 ADD MLOAD SWAP2 POP PUSH3 0x803 PUSH1 0xE0 DUP8 ADD DUP4 ISZERO ISZERO SWAP1 MSTORE JUMP JUMPDEST PUSH1 0xA0 DUP10 ADD MLOAD SWAP2 POP PUSH2 0x100 PUSH3 0x81C DUP2 DUP9 ADD DUP5 PUSH1 0x7 SIGNEXTEND SWAP1 MSTORE JUMP JUMPDEST PUSH1 0xC0 DUP11 ADD MLOAD ISZERO ISZERO PUSH2 0x120 DUP9 ADD MSTORE PUSH1 0xE0 DUP11 ADD MLOAD DUP8 DUP7 SUB DUP4 ADD PUSH2 0x140 DUP10 ADD MSTORE SWAP3 POP PUSH3 0x847 DUP6 DUP5 PUSH3 0x6A5 JUMP JUMPDEST SWAP5 POP DUP1 DUP11 ADD MLOAD SWAP3 POP POP POP PUSH3 0x882 DUP3 DUP7 ADD DUP3 DUP1 MLOAD PUSH1 0x7 SWAP1 DUP2 SIGNEXTEND DUP4 MSTORE PUSH1 0x20 DUP1 DUP4 ADD MLOAD PUSH1 0x1 PUSH1 0x1 PUSH1 0xA0 SHL SUB AND SWAP1 DUP5 ADD MSTORE PUSH1 0x40 SWAP2 DUP3 ADD MLOAD SWAP1 SIGNEXTEND SWAP2 ADD MSTORE JUMP JUMPDEST POP POP PUSH1 0x7 DUP6 SWAP1 SIGNEXTEND PUSH1 0x20 DUP5 ADD MSTORE SWAP1 POP PUSH3 0x8A0 PUSH1 0x40 DUP4 ADD DUP5 PUSH1 0x3 SIGNEXTEND SWAP1 MSTORE JUMP JUMPDEST SWAP5 SWAP4 POP POP POP POP JUMP JUMPDEST PUSH1 0x0 DUP3 MLOAD PUSH3 0x8BC DUP2 DUP5 PUSH1 0x20 DUP8 ADD PUSH3 0x445 JUMP JUMPDEST SWAP2 SWAP1 SWAP2 ADD SWAP3 SWAP2 POP POP JUMP JUMPDEST PUSH1 0x0 DUP1 PUSH1 0x40 DUP4 DUP6 SUB SLT ISZERO PUSH3 0x8DA JUMPI PUSH1 0x0 DUP1 REVERT JUMPDEST PUSH3 0x8E5 DUP4 PUSH3 0x514 JUMP JUMPDEST SWAP2 POP PUSH1 0x20 DUP4 ADD MLOAD PUSH3 0x8F7 DUP2 PUSH3 0x527 JUMP JUMPDEST DUP1 SWAP2 POP POP SWAP3 POP SWAP3 SWAP1 POP JUMP JUMPDEST PUSH1 0x80 MLOAD PUSH2 0x6402 PUSH3 0x9E2 PUSH1 0x0 CODECOPY PUSH1 0x0 DUP2 DUP2 PUSH2 0x825 ADD MSTORE DUP2 DUP2 PUSH2 0xACF ADD MSTORE DUP2 DUP2 PUSH2 0xC28 ADD MSTORE DUP2 DUP2 PUSH2 0xD11 ADD MSTORE DUP2 DUP2 PUSH2 0xE44 ADD MSTORE DUP2 DUP2 PUSH2 0x12EF ADD MSTORE DUP2 DUP2 PUSH2 0x13CD ADD MSTORE DUP2 DUP2 PUSH2 0x14FE ADD MSTORE DUP2 DUP2 PUSH2 0x1710 ADD MSTORE DUP2 DUP2 PUSH2 0x19F0 ADD MSTORE DUP2 DUP2 PUSH2 0x1AF2 ADD MSTORE DUP2 DUP2 PUSH2 0x2149 ADD MSTORE DUP2 DUP2 PUSH2 0x217D ADD MSTORE DUP2 DUP2 PUSH2 0x285F ADD MSTORE DUP2 DUP2 PUSH2 0x2922 ADD MSTORE DUP2 DUP2 PUSH2 0x2C22 ADD MSTORE DUP2 DUP2 PUSH2 0x2E68 ADD MSTORE DUP2 DUP2 PUSH2 0x2E97 ADD MSTORE DUP2 DUP2 PUSH2 0x30E8 ADD MSTORE DUP2 DUP2 PUSH2 0x34E5 ADD MSTORE DUP2 DUP2 PUSH2 0x39AC ADD MSTORE DUP2 DUP2 PUSH2 0x39D7 ADD MSTORE DUP2 DUP2 PUSH2 0x3A07 ADD MSTORE DUP2 DUP2 PUSH2 0x3B1D ADD MSTORE DUP2 DUP2 PUSH2 0x3DB4 ADD MSTORE DUP2 DUP2 PUSH2 0x3DDF ADD MSTORE DUP2 DUP2 PUSH2 0x4006 ADD MSTORE DUP2 DUP2 PUSH2 0x43C8 ADD MSTORE PUSH2 0x4429 ADD MSTORE PUSH2 0x6402 PUSH1 0x0 RETURN INVALID PUSH1 0x80 PUSH1 0x40 MSTORE CALLVALUE DUP1 ISZERO PUSH2 0x10 JUMPI PUSH1 0x0 DUP1 REVERT JUMPDEST POP PUSH1 0x4 CALLDATASIZE LT PUSH2 0x336 JUMPI PUSH1 0x0 CALLDATALOAD PUSH1 0xE0 SHR DUP1 PUSH4 0x8DA5CB5B GT PUSH2 0x1B2 JUMPI DUP1 PUSH4 0xB1E35092 GT PUSH2 0xF9 JUMPI DUP1 PUSH4 0xEE532F31 GT PUSH2 0xA2 JUMPI DUP1 PUSH4 0xF3D490DB GT PUSH2 0x7C JUMPI DUP1 PUSH4 0xF3D490DB EQ PUSH2 0x7DA JUMPI DUP1 PUSH4 0xF77C4791 EQ PUSH2 0x7ED JUMPI DUP1 PUSH4 0xFAD8B32A EQ PUSH2 0x80D JUMPI DUP1 PUSH4 0xFC0C546A EQ PUSH2 0x820 JUMPI PUSH1 0x0 DUP1 REVERT JUMPDEST DUP1 PUSH4 0xEE532F31 EQ PUSH2 0x7A1 JUMPI DUP1 PUSH4 0xF2E35647 EQ PUSH2 0x7B4 JUMPI DUP1 PUSH4 0xF2FDE38B EQ PUSH2 0x7C7 JUMPI PUSH1 0x0 DUP1 REVERT JUMPDEST DUP1 PUSH4 0xC3501848 GT PUSH2 0xD3 JUMPI DUP1 PUSH4 0xC3501848 EQ PUSH2 0x768 JUMPI DUP1 PUSH4 0xDD62ED3E EQ PUSH2 0x77B JUMPI DUP1 PUSH4 0xE77C646D EQ PUSH2 0x78E JUMPI PUSH1 0x0 DUP1 REVERT JUMPDEST DUP1 PUSH4 0xB1E35092 EQ PUSH2 0x703 JUMPI DUP1 PUSH4 0xB6363CF2 EQ PUSH2 0x70B JUMPI DUP1 PUSH4 0xBB3ACDE9 EQ PUSH2 0x755 JUMPI PUSH1 0x0 DUP1 REVERT JUMPDEST DUP1 PUSH4 0x9FA5F50B GT PUSH2 0x15B JUMPI DUP1 PUSH4 0xA9059CBB GT PUSH2 0x135 JUMPI DUP1 PUSH4 0xA9059CBB EQ PUSH2 0x6BB JUMPI DUP1 PUSH4 0xB0A7FEA4 EQ PUSH2 0x6CE JUMPI DUP1 PUSH4 0xB10D6B41 EQ PUSH2 0x6E1 JUMPI PUSH1 0x0 DUP1 REVERT JUMPDEST DUP1 PUSH4 0x9FA5F50B EQ PUSH2 0x698 JUMPI DUP1 PUSH4 0xA213934F EQ PUSH2 0x6A0 JUMPI DUP1 PUSH4 0xA5A8404E EQ PUSH2 0x6A8 JUMPI PUSH1 0x0 DUP1 REVERT JUMPDEST DUP1 PUSH4 0x9675193C GT PUSH2 0x18C JUMPI DUP1 PUSH4 0x9675193C EQ PUSH2 0x621 JUMPI DUP1 PUSH4 0x9945E70E EQ PUSH2 0x634 JUMPI DUP1 PUSH4 0x9B23D3D9 EQ PUSH2 0x685 JUMPI PUSH1 0x0 DUP1 REVERT JUMPDEST DUP1 PUSH4 0x8DA5CB5B EQ PUSH2 0x5BC JUMPI DUP1 PUSH4 0x9464FB8C EQ PUSH2 0x5FB JUMPI DUP1 PUSH4 0x959B8C3F EQ PUSH2 0x60E JUMPI PUSH1 0x0 DUP1 REVERT JUMPDEST DUP1 PUSH4 0x2F1CAE85 GT PUSH2 0x281 JUMPI DUP1 PUSH4 0x67C84919 GT PUSH2 0x22A JUMPI DUP1 PUSH4 0x715018A6 GT PUSH2 0x204 JUMPI DUP1 PUSH4 0x715018A6 EQ PUSH2 0x56E JUMPI DUP1 PUSH4 0x740AB8F4 EQ PUSH2 0x576 JUMPI DUP1 PUSH4 0x76420F8F EQ PUSH2 0x596 JUMPI DUP1 PUSH4 0x8C0DEE9C EQ PUSH2 0x5A9 JUMPI PUSH1 0x0 DUP1 REVERT JUMPDEST DUP1 PUSH4 0x67C84919 EQ PUSH2 0x4F7 JUMPI DUP1 PUSH4 0x6D77CAD6 EQ PUSH2 0x50A JUMPI DUP1 PUSH4 0x70A08231 EQ PUSH2 0x55B JUMPI PUSH1 0x0 DUP1 REVERT JUMPDEST DUP1 PUSH4 0x618DC65E GT PUSH2 0x25B JUMPI DUP1 PUSH4 0x618DC65E EQ PUSH2 0x4B0 JUMPI DUP1 PUSH4 0x62EB0068 EQ PUSH2 0x4D1 JUMPI DUP1 PUSH4 0x64D53B4F EQ PUSH2 0x4E4 JUMPI PUSH1 0x0 DUP1 REVERT JUMPDEST DUP1 PUSH4 0x2F1CAE85 EQ PUSH2 0x48A JUMPI DUP1 PUSH4 0x30E82803 EQ PUSH2 0x495 JUMPI DUP1 PUSH4 0x4C783BF5 EQ PUSH2 0x4A8 JUMPI PUSH1 0x0 DUP1 REVERT JUMPDEST DUP1 PUSH4 0x168ECEC5 GT PUSH2 0x2E3 JUMPI DUP1 PUSH4 0x23B872DD GT PUSH2 0x2BD JUMPI DUP1 PUSH4 0x23B872DD EQ PUSH2 0x451 JUMPI DUP1 PUSH4 0x2414D303 EQ PUSH2 0x464 JUMPI DUP1 PUSH4 0x2535F762 EQ PUSH2 0x477 JUMPI PUSH1 0x0 DUP1 REVERT JUMPDEST DUP1 PUSH4 0x168ECEC5 EQ PUSH2 0x415 JUMPI DUP1 PUSH4 0x18160DDD EQ PUSH2 0x428 JUMPI DUP1 PUSH4 0x1BADB25C EQ PUSH2 0x43E JUMPI PUSH1 0x0 DUP1 REVERT JUMPDEST DUP1 PUSH4 0x122EB575 GT PUSH2 0x314 JUMPI DUP1 PUSH4 0x122EB575 EQ PUSH2 0x38B JUMPI DUP1 PUSH4 0x13D557BC EQ PUSH2 0x3DC JUMPI DUP1 PUSH4 0x15DACBEA EQ PUSH2 0x3EF JUMPI PUSH1 0x0 DUP1 REVERT JUMPDEST DUP1 PUSH4 0x10648CA EQ PUSH2 0x33B JUMPI DUP1 PUSH4 0x95EA7B3 EQ PUSH2 0x350 JUMPI DUP1 PUSH4 0x103EF9E1 EQ PUSH2 0x378 JUMPI JUMPDEST PUSH1 0x0 DUP1 REVERT JUMPDEST PUSH2 0x34E PUSH2 0x349 CALLDATASIZE PUSH1 0x4 PUSH2 0x518C JUMP JUMPDEST PUSH2 0x847 JUMP JUMPDEST STOP JUMPDEST PUSH2 0x363 PUSH2 0x35E CALLDATASIZE PUSH1 0x4 PUSH2 0x5214 JUMP JUMPDEST PUSH2 0xA80 JUMP JUMPDEST PUSH1 0x40 MLOAD SWAP1 ISZERO ISZERO DUP2 MSTORE PUSH1 0x20 ADD JUMPDEST PUSH1 0x40 MLOAD DUP1 SWAP2 SUB SWAP1 RETURN JUMPDEST PUSH2 0x34E PUSH2 0x386 CALLDATASIZE PUSH1 0x4 PUSH2 0x523E JUMP JUMPDEST PUSH2 0xB47 JUMP JUMPDEST PUSH2 0x39E PUSH2 0x399 CALLDATASIZE PUSH1 0x4 PUSH2 0x52B3 JUMP JUMPDEST PUSH2 0xBD6 JUMP JUMPDEST PUSH1 0x40 DUP1 MLOAD SWAP4 ISZERO ISZERO DUP5 MSTORE PUSH32 0xFF00000000000000000000000000000000000000000000000000000000000000 SWAP1 SWAP3 AND PUSH1 0x20 DUP5 ADD MSTORE SWAP1 DUP3 ADD MSTORE PUSH1 0x60 ADD PUSH2 0x36F JUMP JUMPDEST PUSH2 0x34E PUSH2 0x3EA CALLDATASIZE PUSH1 0x4 PUSH2 0x5322 JUMP JUMPDEST PUSH2 0xF20 JUMP JUMPDEST PUSH2 0x402 PUSH2 0x3FD CALLDATASIZE PUSH1 0x4 PUSH2 0x53B6 JUMP JUMPDEST PUSH2 0x10FA JUMP JUMPDEST PUSH1 0x40 MLOAD PUSH1 0x7 SWAP2 SWAP1 SWAP2 SIGNEXTEND DUP2 MSTORE PUSH1 0x20 ADD PUSH2 0x36F JUMP JUMPDEST PUSH2 0x34E PUSH2 0x423 CALLDATASIZE PUSH1 0x4 PUSH2 0x523E JUMP JUMPDEST PUSH2 0x125F JUMP JUMPDEST PUSH2 0x430 PUSH2 0x12EB JUMP JUMPDEST PUSH1 0x40 MLOAD SWAP1 DUP2 MSTORE PUSH1 0x20 ADD PUSH2 0x36F JUMP JUMPDEST PUSH2 0x39E PUSH2 0x44C CALLDATASIZE PUSH1 0x4 PUSH2 0x5401 JUMP JUMPDEST PUSH2 0x1381 JUMP JUMPDEST PUSH2 0x363 PUSH2 0x45F CALLDATASIZE PUSH1 0x4 PUSH2 0x545B JUMP JUMPDEST PUSH2 0x1596 JUMP JUMPDEST PUSH2 0x402 PUSH2 0x472 CALLDATASIZE PUSH1 0x4 PUSH2 0x5497 JUMP JUMPDEST PUSH2 0x1701 JUMP JUMPDEST PUSH2 0x34E PUSH2 0x485 CALLDATASIZE PUSH1 0x4 PUSH2 0x5401 JUMP JUMPDEST PUSH2 0x173D JUMP JUMPDEST PUSH1 0x5 SLOAD PUSH1 0xFF AND PUSH2 0x363 JUMP JUMPDEST PUSH2 0x430 PUSH2 0x4A3 CALLDATASIZE PUSH1 0x4 PUSH2 0x523E JUMP JUMPDEST PUSH2 0x178A JUMP JUMPDEST PUSH2 0x363 PUSH2 0x180F JUMP JUMPDEST PUSH2 0x4C3 PUSH2 0x4BE CALLDATASIZE PUSH1 0x4 PUSH2 0x54D2 JUMP JUMPDEST PUSH2 0x1819 JUMP JUMPDEST PUSH1 0x40 MLOAD PUSH2 0x36F SWAP3 SWAP2 SWAP1 PUSH2 0x558E JUMP JUMPDEST PUSH2 0x34E PUSH2 0x4DF CALLDATASIZE PUSH1 0x4 PUSH2 0x55AF JUMP JUMPDEST PUSH2 0x198F JUMP JUMPDEST PUSH2 0x402 PUSH2 0x4F2 CALLDATASIZE PUSH1 0x4 PUSH2 0x561C JUMP JUMPDEST PUSH2 0x19E1 JUMP JUMPDEST PUSH2 0x34E PUSH2 0x505 CALLDATASIZE PUSH1 0x4 PUSH2 0x57BC JUMP JUMPDEST PUSH2 0x1A15 JUMP JUMPDEST PUSH2 0x363 PUSH2 0x518 CALLDATASIZE PUSH1 0x4 PUSH2 0x57E4 JUMP JUMPDEST PUSH20 0xFFFFFFFFFFFFFFFFFFFFFFFFFFFFFFFFFFFFFFFF SWAP1 DUP2 AND PUSH1 0x0 SWAP1 DUP2 MSTORE PUSH1 0x3 PUSH1 0x20 SWAP1 DUP2 MSTORE PUSH1 0x40 DUP1 DUP4 KECCAK256 SWAP6 DUP4 MSTORE SWAP5 DUP2 MSTORE DUP5 DUP3 KECCAK256 SWAP4 SWAP1 SWAP3 AND DUP2 MSTORE SWAP2 SWAP1 MSTORE KECCAK256 SLOAD PUSH1 0xFF AND SWAP1 JUMP JUMPDEST PUSH2 0x430 PUSH2 0x569 CALLDATASIZE PUSH1 0x4 PUSH2 0x5497 JUMP JUMPDEST PUSH2 0x1AAA JUMP JUMPDEST PUSH2 0x34E PUSH2 0x1B5F JUMP JUMPDEST PUSH2 0x589 PUSH2 0x584 CALLDATASIZE PUSH1 0x4 PUSH2 0x5497 JUMP JUMPDEST PUSH2 0x1B73 JUMP JUMPDEST PUSH1 0x40 MLOAD PUSH2 0x36F SWAP2 SWAP1 PUSH2 0x5820 JUMP JUMPDEST PUSH2 0x34E PUSH2 0x5A4 CALLDATASIZE PUSH1 0x4 PUSH2 0x5864 JUMP JUMPDEST PUSH2 0x1C90 JUMP JUMPDEST PUSH2 0x430 PUSH2 0x5B7 CALLDATASIZE PUSH1 0x4 PUSH2 0x587D JUMP JUMPDEST PUSH2 0x1D66 JUMP JUMPDEST PUSH1 0x0 SLOAD PUSH20 0xFFFFFFFFFFFFFFFFFFFFFFFFFFFFFFFFFFFFFFFF AND JUMPDEST PUSH1 0x40 MLOAD PUSH20 0xFFFFFFFFFFFFFFFFFFFFFFFFFFFFFFFFFFFFFFFF SWAP1 SWAP2 AND DUP2 MSTORE PUSH1 0x20 ADD PUSH2 0x36F JUMP JUMPDEST PUSH2 0x34E PUSH2 0x609 CALLDATASIZE PUSH1 0x4 PUSH2 0x5921 JUMP JUMPDEST PUSH2 0x1EC8 JUMP JUMPDEST PUSH2 0x34E PUSH2 0x61C CALLDATASIZE PUSH1 0x4 PUSH2 0x5497 JUMP JUMPDEST PUSH2 0x2453 JUMP JUMPDEST PUSH2 0x34E PUSH2 0x62F CALLDATASIZE PUSH1 0x4 PUSH2 0x5401 JUMP JUMPDEST PUSH2 0x24D6 JUMP JUMPDEST PUSH2 0x647 PUSH2 0x642 CALLDATASIZE PUSH1 0x4 PUSH2 0x597F JUMP JUMPDEST PUSH2 0x2699 JUMP JUMPDEST PUSH1 0x40 DUP1 MLOAD PUSH32 0xFF00000000000000000000000000000000000000000000000000000000000000 SWAP1 SWAP5 AND DUP5 MSTORE PUSH1 0x20 DUP5 ADD SWAP3 SWAP1 SWAP3 MSTORE SWAP1 DUP3 ADD MSTORE PUSH1 0x60 ADD PUSH2 0x36F JUMP JUMPDEST PUSH2 0x402 PUSH2 0x693 CALLDATASIZE PUSH1 0x4 PUSH2 0x53B6 JUMP JUMPDEST PUSH2 0x29FD JUMP JUMPDEST PUSH2 0x589 PUSH2 0x2A68 JUMP JUMPDEST PUSH2 0x34E PUSH2 0x2AC0 JUMP JUMPDEST PUSH2 0x402 PUSH2 0x6B6 CALLDATASIZE PUSH1 0x4 PUSH2 0x5497 JUMP JUMPDEST PUSH2 0x2C13 JUMP JUMPDEST PUSH2 0x363 PUSH2 0x6C9 CALLDATASIZE PUSH1 0x4 PUSH2 0x5214 JUMP JUMPDEST PUSH2 0x2C47 JUMP JUMPDEST PUSH2 0x34E PUSH2 0x6DC CALLDATASIZE PUSH1 0x4 PUSH2 0x59F7 JUMP JUMPDEST PUSH2 0x2C75 JUMP JUMPDEST PUSH2 0x6F4 PUSH2 0x6EF CALLDATASIZE PUSH1 0x4 PUSH2 0x5864 JUMP JUMPDEST PUSH2 0x301E JUMP JUMPDEST PUSH1 0x40 MLOAD PUSH2 0x36F SWAP4 SWAP3 SWAP2 SWAP1 PUSH2 0x5A46 JUMP JUMPDEST PUSH2 0x402 PUSH2 0x30D9 JUMP JUMPDEST PUSH2 0x363 PUSH2 0x719 CALLDATASIZE PUSH1 0x4 PUSH2 0x5A6B JUMP JUMPDEST PUSH20 0xFFFFFFFFFFFFFFFFFFFFFFFFFFFFFFFFFFFFFFFF DUP1 DUP3 AND PUSH1 0x0 SWAP1 DUP2 MSTORE PUSH1 0x4 PUSH1 0x20 SWAP1 DUP2 MSTORE PUSH1 0x40 DUP1 DUP4 KECCAK256 SWAP4 DUP7 AND DUP4 MSTORE SWAP3 SWAP1 MSTORE KECCAK256 SLOAD PUSH1 0xFF AND SWAP3 SWAP2 POP POP JUMP JUMPDEST PUSH2 0x34E PUSH2 0x763 CALLDATASIZE PUSH1 0x4 PUSH2 0x5401 JUMP JUMPDEST PUSH2 0x310C JUMP JUMPDEST PUSH2 0x34E PUSH2 0x776 CALLDATASIZE PUSH1 0x4 PUSH2 0x5864 JUMP JUMPDEST PUSH2 0x3269 JUMP JUMPDEST PUSH2 0x430 PUSH2 0x789 CALLDATASIZE PUSH1 0x4 PUSH2 0x5A6B JUMP JUMPDEST PUSH2 0x3495 JUMP JUMPDEST PUSH2 0x34E PUSH2 0x79C CALLDATASIZE PUSH1 0x4 PUSH2 0x5A95 JUMP JUMPDEST PUSH2 0x3552 JUMP JUMPDEST PUSH2 0x34E PUSH2 0x7AF CALLDATASIZE PUSH1 0x4 PUSH2 0x52B3 JUMP JUMPDEST PUSH2 0x35DD JUMP JUMPDEST PUSH2 0x363 PUSH2 0x7C2 CALLDATASIZE PUSH1 0x4 PUSH2 0x523E JUMP JUMPDEST PUSH2 0x3624 JUMP JUMPDEST PUSH2 0x34E PUSH2 0x7D5 CALLDATASIZE PUSH1 0x4 PUSH2 0x5497 JUMP JUMPDEST PUSH2 0x36CC JUMP JUMPDEST PUSH2 0x430 PUSH2 0x7E8 CALLDATASIZE PUSH1 0x4 PUSH2 0x57BC JUMP JUMPDEST PUSH2 0x3730 JUMP JUMPDEST PUSH1 0x9 SLOAD PUSH2 0x5D6 SWAP1 PUSH20 0xFFFFFFFFFFFFFFFFFFFFFFFFFFFFFFFFFFFFFFFF AND DUP2 JUMP JUMPDEST PUSH2 0x34E PUSH2 0x81B CALLDATASIZE PUSH1 0x4 PUSH2 0x5497 JUMP JUMPDEST PUSH2 0x378F JUMP JUMPDEST PUSH2 0x5D6 PUSH32 0x0 DUP2 JUMP JUMPDEST PUSH1 0x9 SLOAD PUSH20 0xFFFFFFFFFFFFFFFFFFFFFFFFFFFFFFFFFFFFFFFF AND CALLER EQ PUSH2 0x8CD JUMPI PUSH1 0x40 MLOAD PUSH32 0x8C379A000000000000000000000000000000000000000000000000000000000 DUP2 MSTORE PUSH1 0x20 PUSH1 0x4 DUP3 ADD MSTORE PUSH1 0xE PUSH1 0x24 DUP3 ADD MSTORE PUSH32 0x4E6F7420417574686F7269736564000000000000000000000000000000000000 PUSH1 0x44 DUP3 ADD MSTORE PUSH1 0x64 ADD JUMPDEST PUSH1 0x40 MLOAD DUP1 SWAP2 SUB SWAP1 REVERT JUMPDEST DUP3 PUSH2 0x934 JUMPI PUSH1 0x40 MLOAD PUSH32 0x8C379A000000000000000000000000000000000000000000000000000000000 DUP2 MSTORE PUSH1 0x20 PUSH1 0x4 DUP3 ADD MSTORE PUSH1 0x19 PUSH1 0x24 DUP3 ADD MSTORE PUSH32 0x5A65726F2076616C7565206973206E6F7420616C6C6F77656400000000000000 PUSH1 0x44 DUP3 ADD MSTORE PUSH1 0x64 ADD PUSH2 0x8C4 JUMP JUMPDEST PUSH1 0x0 DUP3 MLOAD GT PUSH2 0x99F JUMPI PUSH1 0x40 MLOAD PUSH32 0x8C379A000000000000000000000000000000000000000000000000000000000 DUP2 MSTORE PUSH1 0x20 PUSH1 0x4 DUP3 ADD MSTORE PUSH1 0x19 PUSH1 0x24 DUP3 ADD MSTORE PUSH32 0x53686F756C64206E6F74206265206120656D7074792075726900000000000000 PUSH1 0x44 DUP3 ADD MSTORE PUSH1 0x64 ADD PUSH2 0x8C4 JUMP JUMPDEST PUSH1 0x0 DUP4 DUP2 MSTORE PUSH1 0x6 PUSH1 0x20 MSTORE PUSH1 0x40 SWAP1 KECCAK256 PUSH1 0x1 ADD SLOAD PUSH2 0x9F5 JUMPI PUSH1 0x8 DUP1 SLOAD PUSH1 0x1 DUP2 ADD DUP3 SSTORE PUSH32 0xF3F7A9FE364FAAB93B216DA50A3214154F22A0A2B415B23A84C8169E8B636EE3 ADD DUP5 SWAP1 SSTORE SLOAD PUSH1 0x0 DUP5 DUP2 MSTORE PUSH1 0x7 PUSH1 0x20 MSTORE PUSH1 0x40 SWAP1 KECCAK256 SSTORE JUMPDEST PUSH1 0x40 DUP1 MLOAD PUSH1 0x60 DUP2 ADD DUP3 MSTORE DUP3 DUP2 MSTORE TIMESTAMP PUSH1 0x20 DUP1 DUP4 ADD SWAP2 DUP3 MSTORE DUP3 DUP5 ADD DUP7 DUP2 MSTORE PUSH1 0x0 DUP9 DUP2 MSTORE PUSH1 0x6 SWAP1 SWAP3 MSTORE SWAP4 SWAP1 KECCAK256 DUP3 MLOAD DUP2 SSTORE SWAP1 MLOAD PUSH1 0x1 DUP3 ADD SSTORE SWAP2 MLOAD SWAP1 SWAP2 SWAP1 PUSH1 0x2 DUP3 ADD SWAP1 PUSH2 0xA3D SWAP1 DUP3 PUSH2 0x5B83 JUMP JUMPDEST POP SWAP1 POP POP DUP3 PUSH32 0xB4C22D60CD550A815744F04E3FF5278BF19684565EE00E2B084041B6024BD6F6 DUP4 DUP4 PUSH1 0x40 MLOAD PUSH2 0xA73 SWAP3 SWAP2 SWAP1 PUSH2 0x5C9D JUMP JUMPDEST PUSH1 0x40 MLOAD DUP1 SWAP2 SUB SWAP1 LOG2 POP POP POP JUMP JUMPDEST PUSH1 0x40 MLOAD PUSH32 0x95EA7B300000000000000000000000000000000000000000000000000000000 DUP2 MSTORE PUSH20 0xFFFFFFFFFFFFFFFFFFFFFFFFFFFFFFFFFFFFFFFF DUP4 DUP2 AND PUSH1 0x4 DUP4 ADD MSTORE PUSH1 0x24 DUP3 ADD DUP4 SWAP1 MSTORE PUSH1 0x0 SWAP2 PUSH32 0x0 SWAP1 SWAP2 AND SWAP1 PUSH4 0x95EA7B3 SWAP1 PUSH1 0x44 ADD PUSH1 0x20 PUSH1 0x40 MLOAD DUP1 DUP4 SUB DUP2 PUSH1 0x0 DUP8 GAS CALL ISZERO DUP1 ISZERO PUSH2 0xB1A JUMPI RETURNDATASIZE PUSH1 0x0 DUP1 RETURNDATACOPY RETURNDATASIZE PUSH1 0x0 REVERT JUMPDEST POP POP POP POP PUSH1 0x40 MLOAD RETURNDATASIZE PUSH1 0x1F NOT PUSH1 0x1F DUP3 ADD AND DUP3 ADD DUP1 PUSH1 0x40 MSTORE POP DUP2 ADD SWAP1 PUSH2 0xB3E SWAP2 SWAP1 PUSH2 0x5CBF JUMP JUMPDEST SWAP1 POP JUMPDEST SWAP3 SWAP2 POP POP JUMP JUMPDEST CALLER PUSH1 0x0 DUP2 DUP2 MSTORE PUSH1 0x3 PUSH1 0x20 SWAP1 DUP2 MSTORE PUSH1 0x40 DUP1 DUP4 KECCAK256 DUP7 DUP5 MSTORE DUP3 MSTORE DUP1 DUP4 KECCAK256 PUSH20 0xFFFFFFFFFFFFFFFFFFFFFFFFFFFFFFFFFFFFFFFF DUP7 AND DUP1 DUP6 MSTORE SWAP3 MSTORE DUP1 DUP4 KECCAK256 DUP1 SLOAD PUSH32 0xFFFFFFFFFFFFFFFFFFFFFFFFFFFFFFFFFFFFFFFFFFFFFFFFFFFFFFFFFFFFFF00 AND PUSH1 0x1 OR SWAP1 SSTORE MLOAD SWAP1 SWAP2 DUP6 SWAP2 PUSH32 0x3646A897C70797ECC134B0ADC32F471B07BF1D6F451133B0384BADAB531E3FD6 SWAP2 SWAP1 LOG4 POP POP JUMP JUMPDEST PUSH1 0x40 MLOAD PUSH32 0xDD62ED3E00000000000000000000000000000000000000000000000000000000 DUP2 MSTORE PUSH20 0xFFFFFFFFFFFFFFFFFFFFFFFFFFFFFFFFFFFFFFFF DUP7 DUP2 AND PUSH1 0x4 DUP4 ADD MSTORE CALLER PUSH1 0x24 DUP4 ADD MSTORE PUSH1 0x0 SWAP2 DUP3 SWAP2 DUP3 SWAP2 PUSH32 0x0 SWAP1 SWAP2 AND SWAP1 PUSH4 0xDD62ED3E SWAP1 PUSH1 0x44 ADD PUSH1 0x20 PUSH1 0x40 MLOAD DUP1 DUP4 SUB DUP2 DUP7 GAS STATICCALL ISZERO DUP1 ISZERO PUSH2 0xC71 JUMPI RETURNDATASIZE PUSH1 0x0 DUP1 RETURNDATACOPY RETURNDATASIZE PUSH1 0x0 REVERT JUMPDEST POP POP POP POP PUSH1 0x40 MLOAD RETURNDATASIZE PUSH1 0x1F NOT PUSH1 0x1F DUP3 ADD AND DUP3 ADD DUP1 PUSH1 0x40 MSTORE POP DUP2 ADD SWAP1 PUSH2 0xC95 SWAP2 SWAP1 PUSH2 0x5CE3 JUMP JUMPDEST DUP7 GT ISZERO PUSH2 0xCCA JUMPI POP PUSH1 0x0 SWAP2 POP PUSH32 0x5300000000000000000000000000000000000000000000000000000000000000 SWAP1 POP DUP2 PUSH2 0xF15 JUMP JUMPDEST PUSH1 0x40 MLOAD PUSH32 0x70A0823100000000000000000000000000000000000000000000000000000000 DUP2 MSTORE PUSH20 0xFFFFFFFFFFFFFFFFFFFFFFFFFFFFFFFFFFFFFFFF DUP10 DUP2 AND PUSH1 0x4 DUP4 ADD MSTORE DUP8 SWAP2 PUSH32 0x0 SWAP1 SWAP2 AND SWAP1 PUSH4 0x70A08231 SWAP1 PUSH1 0x24 ADD PUSH1 0x20 PUSH1 0x40 MLOAD DUP1 DUP4 SUB DUP2 DUP7 GAS STATICCALL ISZERO DUP1 ISZERO PUSH2 0xD5A JUMPI RETURNDATASIZE PUSH1 0x0 DUP1 RETURNDATACOPY RETURNDATASIZE PUSH1 0x0 REVERT JUMPDEST POP POP POP POP PUSH1 0x40 MLOAD RETURNDATASIZE PUSH1 0x1F NOT PUSH1 0x1F DUP3 ADD AND DUP3 ADD DUP1 PUSH1 0x40 MSTORE POP DUP2 ADD SWAP1 PUSH2 0xD7E SWAP2 SWAP1 PUSH2 0x5CE3 JUMP JUMPDEST LT ISZERO PUSH2 0xDB2 JUMPI POP PUSH1 0x0 SWAP2 POP PUSH32 0x5200000000000000000000000000000000000000000000000000000000000000 SWAP1 POP DUP2 PUSH2 0xF15 JUMP JUMPDEST PUSH20 0xFFFFFFFFFFFFFFFFFFFFFFFFFFFFFFFFFFFFFFFF DUP8 AND PUSH2 0xDFB JUMPI POP PUSH1 0x0 SWAP2 POP PUSH32 0x5700000000000000000000000000000000000000000000000000000000000000 SWAP1 POP DUP2 PUSH2 0xF15 JUMP JUMPDEST PUSH1 0x40 MLOAD PUSH32 0x70A0823100000000000000000000000000000000000000000000000000000000 DUP2 MSTORE PUSH20 0xFFFFFFFFFFFFFFFFFFFFFFFFFFFFFFFFFFFFFFFF DUP9 DUP2 AND PUSH1 0x4 DUP4 ADD MSTORE PUSH2 0xEB8 SWAP2 PUSH32 0x0 SWAP1 SWAP2 AND SWAP1 PUSH4 0x70A08231 SWAP1 PUSH1 0x24 ADD JUMPDEST PUSH1 0x20 PUSH1 0x40 MLOAD DUP1 DUP4 SUB DUP2 DUP7 GAS STATICCALL ISZERO DUP1 ISZERO PUSH2 0xE8E JUMPI RETURNDATASIZE PUSH1 0x0 DUP1 RETURNDATACOPY RETURNDATASIZE PUSH1 0x0 REVERT JUMPDEST POP POP POP POP PUSH1 0x40 MLOAD RETURNDATASIZE PUSH1 0x1F NOT PUSH1 0x1F DUP3 ADD AND DUP3 ADD DUP1 PUSH1 0x40 MSTORE POP DUP2 ADD SWAP1 PUSH2 0xEB2 SWAP2 SWAP1 PUSH2 0x5CE3 JUMP JUMPDEST DUP8 PUSH2 0x380F JUMP JUMPDEST PUSH2 0xEEA JUMPI POP PUSH1 0x0 SWAP2 POP PUSH32 0x5000000000000000000000000000000000000000000000000000000000000000 SWAP1 POP DUP2 PUSH2 0xF15 JUMP JUMPDEST POP PUSH1 0x1 SWAP2 POP PUSH32 0x5100000000000000000000000000000000000000000000000000000000000000 SWAP1 POP PUSH1 0x0 JUMPDEST SWAP6 POP SWAP6 POP SWAP6 SWAP3 POP POP POP JUMP JUMPDEST PUSH20 0xFFFFFFFFFFFFFFFFFFFFFFFFFFFFFFFFFFFFFFFF DUP7 AND PUSH2 0xF9D JUMPI PUSH1 0x40 MLOAD PUSH32 0x8C379A000000000000000000000000000000000000000000000000000000000 DUP2 MSTORE PUSH1 0x20 PUSH1 0x4 DUP3 ADD MSTORE PUSH1 0x14 PUSH1 0x24 DUP3 ADD MSTORE PUSH32 0x496E76616C69642066726F6D2061646472657373000000000000000000000000 PUSH1 0x44 DUP3 ADD MSTORE PUSH1 0x64 ADD PUSH2 0x8C4 JUMP JUMPDEST PUSH20 0xFFFFFFFFFFFFFFFFFFFFFFFFFFFFFFFFFFFFFFFF DUP7 AND PUSH1 0x0 SWAP1 DUP2 MSTORE PUSH1 0x4 PUSH1 0x20 SWAP1 DUP2 MSTORE PUSH1 0x40 DUP1 DUP4 KECCAK256 CALLER DUP5 MSTORE SWAP1 SWAP2 MSTORE SWAP1 KECCAK256 SLOAD PUSH1 0xFF AND DUP1 PUSH2 0x1014 JUMPI POP PUSH20 0xFFFFFFFFFFFFFFFFFFFFFFFFFFFFFFFFFFFFFFFF DUP7 AND PUSH1 0x0 SWAP1 DUP2 MSTORE PUSH1 0x3 PUSH1 0x20 SWAP1 DUP2 MSTORE PUSH1 0x40 DUP1 DUP4 KECCAK256 DUP11 DUP5 MSTORE DUP3 MSTORE DUP1 DUP4 KECCAK256 CALLER DUP5 MSTORE SWAP1 SWAP2 MSTORE SWAP1 KECCAK256 SLOAD PUSH1 0xFF AND JUMPDEST PUSH2 0x107A JUMPI PUSH1 0x40 MLOAD PUSH32 0x8C379A000000000000000000000000000000000000000000000000000000000 DUP2 MSTORE PUSH1 0x20 PUSH1 0x4 DUP3 ADD MSTORE PUSH1 0xE PUSH1 0x24 DUP3 ADD MSTORE PUSH32 0x4E6F7420617574686F7269736564000000000000000000000000000000000000 PUSH1 0x44 DUP3 ADD MSTORE PUSH1 0x64 ADD PUSH2 0x8C4 JUMP JUMPDEST PUSH2 0x10F1 DUP8 DUP8 CALLER DUP9 DUP9 DUP9 DUP1 DUP1 PUSH1 0x1F ADD PUSH1 0x20 DUP1 SWAP2 DIV MUL PUSH1 0x20 ADD PUSH1 0x40 MLOAD SWAP1 DUP2 ADD PUSH1 0x40 MSTORE DUP1 SWAP4 SWAP3 SWAP2 SWAP1 DUP2 DUP2 MSTORE PUSH1 0x20 ADD DUP4 DUP4 DUP1 DUP3 DUP5 CALLDATACOPY PUSH1 0x0 SWAP3 ADD SWAP2 SWAP1 SWAP2 MSTORE POP POP PUSH1 0x40 DUP1 MLOAD PUSH1 0x20 PUSH1 0x1F DUP13 ADD DUP2 SWAP1 DIV DUP2 MUL DUP3 ADD DUP2 ADD SWAP1 SWAP3 MSTORE DUP11 DUP2 MSTORE SWAP3 POP DUP11 SWAP2 POP DUP10 SWAP1 DUP2 SWAP1 DUP5 ADD DUP4 DUP3 DUP1 DUP3 DUP5 CALLDATACOPY PUSH1 0x0 SWAP3 ADD SWAP2 SWAP1 SWAP2 MSTORE POP PUSH2 0x383A SWAP3 POP POP POP JUMP JUMPDEST POP POP POP POP POP POP POP JUMP JUMPDEST PUSH1 0x40 MLOAD PUSH20 0xFFFFFFFFFFFFFFFFFFFFFFFFFFFFFFFFFFFFFFFF DUP6 DUP2 AND PUSH1 0x24 DUP4 ADD MSTORE DUP5 DUP2 AND PUSH1 0x44 DUP4 ADD MSTORE DUP4 AND PUSH1 0x64 DUP3 ADD MSTORE PUSH1 0x84 DUP2 ADD DUP3 SWAP1 MSTORE PUSH1 0x0 SWAP1 DUP2 SWAP1 DUP2 SWAP1 PUSH2 0x167 SWAP1 PUSH32 0x15DACBEA00000000000000000000000000000000000000000000000000000000 SWAP1 PUSH1 0xA4 ADD JUMPDEST PUSH1 0x40 DUP1 MLOAD PUSH32 0xFFFFFFFFFFFFFFFFFFFFFFFFFFFFFFFFFFFFFFFFFFFFFFFFFFFFFFFFFFFFFFE0 DUP2 DUP5 SUB ADD DUP2 MSTORE SWAP2 DUP2 MSTORE PUSH1 0x20 DUP3 ADD DUP1 MLOAD PUSH28 0xFFFFFFFFFFFFFFFFFFFFFFFFFFFFFFFFFFFFFFFFFFFFFFFFFFFFFFFF AND PUSH32 0xFFFFFFFF00000000000000000000000000000000000000000000000000000000 SWAP1 SWAP5 AND SWAP4 SWAP1 SWAP4 OR SWAP1 SWAP3 MSTORE SWAP1 MLOAD PUSH2 0x11EA SWAP2 SWAP1 PUSH2 0x5CFC JUMP JUMPDEST PUSH1 0x0 PUSH1 0x40 MLOAD DUP1 DUP4 SUB DUP2 PUSH1 0x0 DUP7 GAS CALL SWAP2 POP POP RETURNDATASIZE DUP1 PUSH1 0x0 DUP2 EQ PUSH2 0x1227 JUMPI PUSH1 0x40 MLOAD SWAP2 POP PUSH1 0x1F NOT PUSH1 0x3F RETURNDATASIZE ADD AND DUP3 ADD PUSH1 0x40 MSTORE RETURNDATASIZE DUP3 MSTORE RETURNDATASIZE PUSH1 0x0 PUSH1 0x20 DUP5 ADD RETURNDATACOPY PUSH2 0x122C JUMP JUMPDEST PUSH1 0x60 SWAP2 POP JUMPDEST POP SWAP2 POP SWAP2 POP DUP2 PUSH2 0x123D JUMPI PUSH1 0x15 PUSH2 0x1251 JUMP JUMPDEST DUP1 DUP1 PUSH1 0x20 ADD SWAP1 MLOAD DUP2 ADD SWAP1 PUSH2 0x1251 SWAP2 SWAP1 PUSH2 0x5D2A JUMP JUMPDEST PUSH1 0x3 SIGNEXTEND SWAP8 SWAP7 POP POP POP POP POP POP POP JUMP JUMPDEST CALLER PUSH1 0x0 DUP2 DUP2 MSTORE PUSH1 0x3 PUSH1 0x20 SWAP1 DUP2 MSTORE PUSH1 0x40 DUP1 DUP4 KECCAK256 DUP7 DUP5 MSTORE DUP3 MSTORE DUP1 DUP4 KECCAK256 PUSH20 0xFFFFFFFFFFFFFFFFFFFFFFFFFFFFFFFFFFFFFFFF DUP7 AND DUP1 DUP6 MSTORE SWAP3 MSTORE DUP1 DUP4 KECCAK256 DUP1 SLOAD PUSH32 0xFFFFFFFFFFFFFFFFFFFFFFFFFFFFFFFFFFFFFFFFFFFFFFFFFFFFFFFFFFFFFF00 AND SWAP1 SSTORE MLOAD SWAP1 SWAP2 DUP6 SWAP2 PUSH32 0x3B287C4F1BAB4DF949B33BCEACEF984F544DC5D5479930D00E4EE8C9D8DD96F2 SWAP2 SWAP1 LOG4 POP POP JUMP JUMPDEST PUSH1 0x0 PUSH32 0x0 PUSH20 0xFFFFFFFFFFFFFFFFFFFFFFFFFFFFFFFFFFFFFFFF AND PUSH4 0x18160DDD PUSH1 0x40 MLOAD DUP2 PUSH4 0xFFFFFFFF AND PUSH1 0xE0 SHL DUP2 MSTORE PUSH1 0x4 ADD PUSH1 0x20 PUSH1 0x40 MLOAD DUP1 DUP4 SUB DUP2 DUP7 GAS STATICCALL ISZERO DUP1 ISZERO PUSH2 0x1358 JUMPI RETURNDATASIZE PUSH1 0x0 DUP1 RETURNDATACOPY RETURNDATASIZE PUSH1 0x0 REVERT JUMPDEST POP POP POP POP PUSH1 0x40 MLOAD RETURNDATASIZE PUSH1 0x1F NOT PUSH1 0x1F DUP3 ADD AND DUP3 ADD DUP1 PUSH1 0x40 MSTORE POP DUP2 ADD SWAP1 PUSH2 0x137C SWAP2 SWAP1 PUSH2 0x5CE3 JUMP JUMPDEST SWAP1 POP SWAP1 JUMP JUMPDEST PUSH1 0x40 MLOAD PUSH32 0x70A0823100000000000000000000000000000000000000000000000000000000 DUP2 MSTORE CALLER PUSH1 0x4 DUP3 ADD MSTORE PUSH1 0x0 SWAP1 DUP2 SWAP1 DUP2 SWAP1 DUP7 SWAP1 PUSH20 0xFFFFFFFFFFFFFFFFFFFFFFFFFFFFFFFFFFFFFFFF PUSH32 0x0 AND SWAP1 PUSH4 0x70A08231 SWAP1 PUSH1 0x24 ADD PUSH1 0x20 PUSH1 0x40 MLOAD DUP1 DUP4 SUB DUP2 DUP7 GAS STATICCALL ISZERO DUP1 ISZERO PUSH2 0x1414 JUMPI RETURNDATASIZE PUSH1 0x0 DUP1 RETURNDATACOPY RETURNDATASIZE PUSH1 0x0 REVERT JUMPDEST POP POP POP POP PUSH1 0x40 MLOAD RETURNDATASIZE PUSH1 0x1F NOT PUSH1 0x1F DUP3 ADD AND DUP3 ADD DUP1 PUSH1 0x40 MSTORE POP DUP2 ADD SWAP1 PUSH2 0x1438 SWAP2 SWAP1 PUSH2 0x5CE3 JUMP JUMPDEST LT ISZERO PUSH2 0x146C JUMPI POP PUSH1 0x0 SWAP2 POP PUSH32 0x5200000000000000000000000000000000000000000000000000000000000000 SWAP1 POP DUP2 PUSH2 0x158C JUMP JUMPDEST PUSH20 0xFFFFFFFFFFFFFFFFFFFFFFFFFFFFFFFFFFFFFFFF DUP8 AND PUSH2 0x14B5 JUMPI POP PUSH1 0x0 SWAP2 POP PUSH32 0x5700000000000000000000000000000000000000000000000000000000000000 SWAP1 POP DUP2 PUSH2 0x158C JUMP JUMPDEST PUSH1 0x40 MLOAD PUSH32 0x70A0823100000000000000000000000000000000000000000000000000000000 DUP2 MSTORE PUSH20 0xFFFFFFFFFFFFFFFFFFFFFFFFFFFFFFFFFFFFFFFF DUP9 DUP2 AND PUSH1 0x4 DUP4 ADD MSTORE PUSH2 0x152F SWAP2 PUSH32 0x0 SWAP1 SWAP2 AND SWAP1 PUSH4 0x70A08231 SWAP1 PUSH1 0x24 ADD PUSH2 0xE71 JUMP JUMPDEST PUSH2 0x1561 JUMPI POP PUSH1 0x0 SWAP2 POP PUSH32 0x5000000000000000000000000000000000000000000000000000000000000000 SWAP1 POP DUP2 PUSH2 0x158C JUMP JUMPDEST POP PUSH1 0x1 SWAP2 POP PUSH32 0x5100000000000000000000000000000000000000000000000000000000000000 SWAP1 POP PUSH1 0x0 JUMPDEST SWAP5 POP SWAP5 POP SWAP5 SWAP2 POP POP JUMP JUMPDEST PUSH20 0xFFFFFFFFFFFFFFFFFFFFFFFFFFFFFFFFFFFFFFFF DUP4 AND PUSH1 0x0 SWAP1 DUP2 MSTORE PUSH1 0x4 PUSH1 0x20 SWAP1 DUP2 MSTORE PUSH1 0x40 DUP1 DUP4 KECCAK256 CALLER DUP5 MSTORE SWAP1 SWAP2 MSTORE DUP2 KECCAK256 SLOAD PUSH1 0xFF AND DUP1 PUSH2 0x160F JUMPI POP PUSH1 0xA SLOAD PUSH20 0xFFFFFFFFFFFFFFFFFFFFFFFFFFFFFFFFFFFFFFFF DUP6 AND PUSH1 0x0 SWAP1 DUP2 MSTORE PUSH1 0x3 PUSH1 0x20 SWAP1 DUP2 MSTORE PUSH1 0x40 DUP1 DUP4 KECCAK256 SWAP4 DUP4 MSTORE SWAP3 DUP2 MSTORE DUP3 DUP3 KECCAK256 CALLER DUP4 MSTORE SWAP1 MSTORE KECCAK256 SLOAD PUSH1 0xFF AND JUMPDEST PUSH2 0x1675 JUMPI PUSH1 0x40 MLOAD PUSH32 0x8C379A000000000000000000000000000000000000000000000000000000000 DUP2 MSTORE PUSH1 0x20 PUSH1 0x4 DUP3 ADD MSTORE PUSH1 0x2 PUSH1 0x24 DUP3 ADD MSTORE PUSH32 0x3533000000000000000000000000000000000000000000000000000000000000 PUSH1 0x44 DUP3 ADD MSTORE PUSH1 0x64 ADD PUSH2 0x8C4 JUMP JUMPDEST PUSH2 0x16F7 DUP5 DUP5 DUP5 PUSH1 0xA SLOAD PUSH1 0x0 PUSH8 0xFFFFFFFFFFFFFFFF DUP2 GT ISZERO PUSH2 0x1698 JUMPI PUSH2 0x1698 PUSH2 0x504C JUMP JUMPDEST PUSH1 0x40 MLOAD SWAP1 DUP1 DUP3 MSTORE DUP1 PUSH1 0x1F ADD PUSH1 0x1F NOT AND PUSH1 0x20 ADD DUP3 ADD PUSH1 0x40 MSTORE DUP1 ISZERO PUSH2 0x16C2 JUMPI PUSH1 0x20 DUP3 ADD DUP2 DUP1 CALLDATASIZE DUP4 CALLDATACOPY ADD SWAP1 POP JUMPDEST POP CALLER PUSH1 0x0 JUMPDEST PUSH1 0x40 MLOAD SWAP1 DUP1 DUP3 MSTORE DUP1 PUSH1 0x1F ADD PUSH1 0x1F NOT AND PUSH1 0x20 ADD DUP3 ADD PUSH1 0x40 MSTORE DUP1 ISZERO PUSH2 0x16F1 JUMPI PUSH1 0x20 DUP3 ADD DUP2 DUP1 CALLDATASIZE DUP4 CALLDATACOPY ADD SWAP1 POP JUMPDEST POP PUSH2 0x3BB4 JUMP JUMPDEST POP PUSH1 0x1 SWAP4 SWAP3 POP POP POP JUMP JUMPDEST PUSH1 0x0 PUSH2 0x170B PUSH2 0x40A3 JUMP JUMPDEST PUSH2 0x1735 PUSH32 0x0 DUP4 PUSH2 0x40F6 JUMP JUMPDEST SWAP1 POP JUMPDEST SWAP2 SWAP1 POP JUMP JUMPDEST PUSH2 0x1784 CALLER DUP6 DUP6 PUSH1 0xA SLOAD DUP7 DUP7 DUP1 DUP1 PUSH1 0x1F ADD PUSH1 0x20 DUP1 SWAP2 DIV MUL PUSH1 0x20 ADD PUSH1 0x40 MLOAD SWAP1 DUP2 ADD PUSH1 0x40 MSTORE DUP1 SWAP4 SWAP3 SWAP2 SWAP1 DUP2 DUP2 MSTORE PUSH1 0x20 ADD DUP4 DUP4 DUP1 DUP3 DUP5 CALLDATACOPY PUSH1 0x0 SWAP3 ADD DUP3 SWAP1 MSTORE POP CALLER SWAP4 POP SWAP2 POP PUSH2 0x16C7 SWAP1 POP JUMP JUMPDEST POP POP POP POP JUMP JUMPDEST PUSH1 0x0 PUSH2 0x1796 DUP4 DUP4 PUSH2 0x424A JUMP JUMPDEST ISZERO PUSH2 0x1807 JUMPI PUSH20 0xFFFFFFFFFFFFFFFFFFFFFFFFFFFFFFFFFFFFFFFF DUP3 AND PUSH1 0x0 SWAP1 DUP2 MSTORE PUSH1 0x1 PUSH1 0x20 DUP2 DUP2 MSTORE PUSH1 0x40 DUP1 DUP5 KECCAK256 PUSH1 0x2 DUP4 MSTORE DUP2 DUP6 KECCAK256 DUP9 DUP7 MSTORE SWAP1 SWAP3 MSTORE SWAP1 SWAP3 KECCAK256 SLOAD PUSH2 0x17DE SWAP2 SWAP1 PUSH2 0x5D74 JUMP JUMPDEST DUP2 SLOAD DUP2 LT PUSH2 0x17EE JUMPI PUSH2 0x17EE PUSH2 0x5D87 JUMP JUMPDEST SWAP1 PUSH1 0x0 MSTORE PUSH1 0x20 PUSH1 0x0 KECCAK256 SWAP1 PUSH1 0x2 MUL ADD PUSH1 0x0 ADD SLOAD SWAP1 POP PUSH2 0xB41 JUMP JUMPDEST POP PUSH1 0x0 PUSH2 0xB41 JUMP JUMPDEST PUSH1 0x0 PUSH2 0x137C PUSH2 0x42D7 JUMP JUMPDEST PUSH1 0x0 PUSH1 0x60 PUSH1 0x0 DUP1 PUSH2 0x167 PUSH20 0xFFFFFFFFFFFFFFFFFFFFFFFFFFFFFFFFFFFFFFFF AND PUSH4 0x618DC65E PUSH1 0xE0 SHL DUP8 DUP8 PUSH1 0x40 MLOAD PUSH1 0x24 ADD PUSH2 0x1854 SWAP3 SWAP2 SWAP1 PUSH2 0x5DB6 JUMP JUMPDEST PUSH1 0x40 DUP1 MLOAD PUSH32 0xFFFFFFFFFFFFFFFFFFFFFFFFFFFFFFFFFFFFFFFFFFFFFFFFFFFFFFFFFFFFFFE0 DUP2 DUP5 SUB ADD DUP2 MSTORE SWAP2 DUP2 MSTORE PUSH1 0x20 DUP3 ADD DUP1 MLOAD PUSH28 0xFFFFFFFFFFFFFFFFFFFFFFFFFFFFFFFFFFFFFFFFFFFFFFFFFFFFFFFF AND PUSH32 0xFFFFFFFF00000000000000000000000000000000000000000000000000000000 SWAP1 SWAP5 AND SWAP4 SWAP1 SWAP4 OR SWAP1 SWAP3 MSTORE SWAP1 MLOAD PUSH2 0x18DD SWAP2 SWAP1 PUSH2 0x5CFC JUMP JUMPDEST PUSH1 0x0 PUSH1 0x40 MLOAD DUP1 DUP4 SUB DUP2 PUSH1 0x0 DUP7 GAS CALL SWAP2 POP POP RETURNDATASIZE DUP1 PUSH1 0x0 DUP2 EQ PUSH2 0x191A JUMPI PUSH1 0x40 MLOAD SWAP2 POP PUSH1 0x1F NOT PUSH1 0x3F RETURNDATASIZE ADD AND DUP3 ADD PUSH1 0x40 MSTORE RETURNDATASIZE DUP3 MSTORE RETURNDATASIZE PUSH1 0x0 PUSH1 0x20 DUP5 ADD RETURNDATACOPY PUSH2 0x191F JUMP JUMPDEST PUSH1 0x60 SWAP2 POP JUMPDEST POP SWAP2 POP SWAP2 POP PUSH32 0x4AF4780E06FE8CB9DF64B0794FA6F01399AF979175BB988E35E0E57E594567BC DUP3 DUP3 PUSH1 0x40 MLOAD PUSH2 0x1955 SWAP3 SWAP2 SWAP1 PUSH2 0x5DE5 JUMP JUMPDEST PUSH1 0x40 MLOAD DUP1 SWAP2 SUB SWAP1 LOG1 DUP2 PUSH2 0x1979 JUMPI PUSH1 0x15 PUSH1 0x40 MLOAD DUP1 PUSH1 0x20 ADD PUSH1 0x40 MSTORE DUP1 PUSH1 0x0 DUP2 MSTORE POP PUSH2 0x197D JUMP JUMPDEST PUSH1 0x16 DUP2 JUMPDEST PUSH1 0x3 SWAP2 SWAP1 SWAP2 SIGNEXTEND SWAP8 SWAP1 SWAP7 POP SWAP5 POP POP POP POP POP JUMP JUMPDEST PUSH2 0x1784 DUP5 CALLER PUSH1 0x0 DUP7 DUP7 DUP7 DUP1 DUP1 PUSH1 0x1F ADD PUSH1 0x20 DUP1 SWAP2 DIV MUL PUSH1 0x20 ADD PUSH1 0x40 MLOAD SWAP1 DUP2 ADD PUSH1 0x40 MSTORE DUP1 SWAP4 SWAP3 SWAP2 SWAP1 DUP2 DUP2 MSTORE PUSH1 0x20 ADD DUP4 DUP4 DUP1 DUP3 DUP5 CALLDATACOPY PUSH1 0x0 SWAP3 ADD DUP3 SWAP1 MSTORE POP PUSH1 0x40 DUP1 MLOAD PUSH1 0x20 DUP2 ADD SWAP1 SWAP2 MSTORE SWAP1 DUP2 MSTORE SWAP3 POP PUSH2 0x383A SWAP2 POP POP JUMP JUMPDEST PUSH1 0x0 PUSH2 0x19EB PUSH2 0x40A3 JUMP JUMPDEST PUSH2 0x1735 PUSH32 0x0 DUP4 PUSH2 0x4303 JUMP JUMPDEST PUSH1 0x9 SLOAD PUSH20 0xFFFFFFFFFFFFFFFFFFFFFFFFFFFFFFFFFFFFFFFF AND CALLER EQ PUSH2 0x1A96 JUMPI PUSH1 0x40 MLOAD PUSH32 0x8C379A000000000000000000000000000000000000000000000000000000000 DUP2 MSTORE PUSH1 0x20 PUSH1 0x4 DUP3 ADD MSTORE PUSH1 0xE PUSH1 0x24 DUP3 ADD MSTORE PUSH32 0x4E6F7420417574686F7269736564000000000000000000000000000000000000 PUSH1 0x44 DUP3 ADD MSTORE PUSH1 0x64 ADD PUSH2 0x8C4 JUMP JUMPDEST PUSH2 0x1AA3 DUP6 DUP6 DUP6 DUP6 DUP6 PUSH2 0x433C JUMP JUMPDEST POP POP POP POP POP JUMP JUMPDEST PUSH1 0x40 MLOAD PUSH32 0x70A0823100000000000000000000000000000000000000000000000000000000 DUP2 MSTORE PUSH20 0xFFFFFFFFFFFFFFFFFFFFFFFFFFFFFFFFFFFFFFFF DUP3 DUP2 AND PUSH1 0x4 DUP4 ADD MSTORE PUSH1 0x0 SWAP2 PUSH32 0x0 SWAP1 SWAP2 AND SWAP1 PUSH4 0x70A08231 SWAP1 PUSH1 0x24 ADD PUSH1 0x20 PUSH1 0x40 MLOAD DUP1 DUP4 SUB DUP2 DUP7 GAS STATICCALL ISZERO DUP1 ISZERO PUSH2 0x1B3B JUMPI RETURNDATASIZE PUSH1 0x0 DUP1 RETURNDATACOPY RETURNDATASIZE PUSH1 0x0 REVERT JUMPDEST POP POP POP POP PUSH1 0x40 MLOAD RETURNDATASIZE PUSH1 0x1F NOT PUSH1 0x1F DUP3 ADD AND DUP3 ADD DUP1 PUSH1 0x40 MSTORE POP DUP2 ADD SWAP1 PUSH2 0x1735 SWAP2 SWAP1 PUSH2 0x5CE3 JUMP JUMPDEST PUSH2 0x1B67 PUSH2 0x40A3 JUMP JUMPDEST PUSH2 0x1B71 PUSH1 0x0 PUSH2 0x45F8 JUMP JUMPDEST JUMP JUMPDEST PUSH20 0xFFFFFFFFFFFFFFFFFFFFFFFFFFFFFFFFFFFFFFFF DUP2 AND PUSH1 0x0 SWAP1 DUP2 MSTORE PUSH1 0x1 PUSH1 0x20 MSTORE PUSH1 0x40 DUP2 KECCAK256 SLOAD PUSH1 0x60 SWAP2 SWAP1 PUSH8 0xFFFFFFFFFFFFFFFF DUP2 GT ISZERO PUSH2 0x1BB5 JUMPI PUSH2 0x1BB5 PUSH2 0x504C JUMP JUMPDEST PUSH1 0x40 MLOAD SWAP1 DUP1 DUP3 MSTORE DUP1 PUSH1 0x20 MUL PUSH1 0x20 ADD DUP3 ADD PUSH1 0x40 MSTORE DUP1 ISZERO PUSH2 0x1BDE JUMPI DUP2 PUSH1 0x20 ADD PUSH1 0x20 DUP3 MUL DUP1 CALLDATASIZE DUP4 CALLDATACOPY ADD SWAP1 POP JUMPDEST POP SWAP1 POP PUSH1 0x0 JUMPDEST PUSH20 0xFFFFFFFFFFFFFFFFFFFFFFFFFFFFFFFFFFFFFFFF DUP5 AND PUSH1 0x0 SWAP1 DUP2 MSTORE PUSH1 0x1 PUSH1 0x20 MSTORE PUSH1 0x40 SWAP1 KECCAK256 SLOAD DUP2 LT ISZERO PUSH2 0x1C89 JUMPI PUSH20 0xFFFFFFFFFFFFFFFFFFFFFFFFFFFFFFFFFFFFFFFF DUP5 AND PUSH1 0x0 SWAP1 DUP2 MSTORE PUSH1 0x1 PUSH1 0x20 MSTORE PUSH1 0x40 SWAP1 KECCAK256 DUP1 SLOAD DUP3 SWAP1 DUP2 LT PUSH2 0x1C48 JUMPI PUSH2 0x1C48 PUSH2 0x5D87 JUMP JUMPDEST SWAP1 PUSH1 0x0 MSTORE PUSH1 0x20 PUSH1 0x0 KECCAK256 SWAP1 PUSH1 0x2 MUL ADD PUSH1 0x1 ADD SLOAD DUP3 DUP3 DUP2 MLOAD DUP2 LT PUSH2 0x1C6C JUMPI PUSH2 0x1C6C PUSH2 0x5D87 JUMP JUMPDEST PUSH1 0x20 SWAP1 DUP2 MUL SWAP2 SWAP1 SWAP2 ADD ADD MSTORE DUP1 PUSH2 0x1C81 DUP2 PUSH2 0x5E00 JUMP JUMPDEST SWAP2 POP POP PUSH2 0x1BE4 JUMP JUMPDEST POP SWAP3 SWAP2 POP POP JUMP JUMPDEST PUSH2 0x1C98 PUSH2 0x40A3 JUMP JUMPDEST PUSH1 0x0 DUP1 SLOAD PUSH1 0x40 MLOAD PUSH20 0xFFFFFFFFFFFFFFFFFFFFFFFFFFFFFFFFFFFFFFFF SWAP1 SWAP2 AND SWAP1 DUP4 SWAP1 DUP4 DUP2 DUP2 DUP2 DUP6 DUP8 GAS CALL SWAP3 POP POP POP RETURNDATASIZE DUP1 PUSH1 0x0 DUP2 EQ PUSH2 0x1CF2 JUMPI PUSH1 0x40 MLOAD SWAP2 POP PUSH1 0x1F NOT PUSH1 0x3F RETURNDATASIZE ADD AND DUP3 ADD PUSH1 0x40 MSTORE RETURNDATASIZE DUP3 MSTORE RETURNDATASIZE PUSH1 0x0 PUSH1 0x20 DUP5 ADD RETURNDATACOPY PUSH2 0x1CF7 JUMP JUMPDEST PUSH1 0x60 SWAP2 POP JUMPDEST POP POP SWAP1 POP DUP1 PUSH2 0x1D62 JUMPI PUSH1 0x40 MLOAD PUSH32 0x8C379A000000000000000000000000000000000000000000000000000000000 DUP2 MSTORE PUSH1 0x20 PUSH1 0x4 DUP3 ADD MSTORE PUSH1 0x13 PUSH1 0x24 DUP3 ADD MSTORE PUSH32 0x776974686472617748626172206661696C656400000000000000000000000000 PUSH1 0x44 DUP3 ADD MSTORE PUSH1 0x64 ADD PUSH2 0x8C4 JUMP JUMPDEST POP POP JUMP JUMPDEST PUSH20 0xFFFFFFFFFFFFFFFFFFFFFFFFFFFFFFFFFFFFFFFF DUP8 AND PUSH1 0x0 SWAP1 DUP2 MSTORE PUSH1 0x4 PUSH1 0x20 SWAP1 DUP2 MSTORE PUSH1 0x40 DUP1 DUP4 KECCAK256 CALLER DUP5 MSTORE SWAP1 SWAP2 MSTORE DUP2 KECCAK256 SLOAD PUSH1 0xFF AND DUP1 PUSH2 0x1DDD JUMPI POP PUSH20 0xFFFFFFFFFFFFFFFFFFFFFFFFFFFFFFFFFFFFFFFF DUP9 AND PUSH1 0x0 SWAP1 DUP2 MSTORE PUSH1 0x3 PUSH1 0x20 SWAP1 DUP2 MSTORE PUSH1 0x40 DUP1 DUP4 KECCAK256 DUP13 DUP5 MSTORE DUP3 MSTORE DUP1 DUP4 KECCAK256 CALLER DUP5 MSTORE SWAP1 SWAP2 MSTORE SWAP1 KECCAK256 SLOAD PUSH1 0xFF AND JUMPDEST PUSH2 0x1E43 JUMPI PUSH1 0x40 MLOAD PUSH32 0x8C379A000000000000000000000000000000000000000000000000000000000 DUP2 MSTORE PUSH1 0x20 PUSH1 0x4 DUP3 ADD MSTORE PUSH1 0xE PUSH1 0x24 DUP3 ADD MSTORE PUSH32 0x4E6F7420617574686F7269736564000000000000000000000000000000000000 PUSH1 0x44 DUP3 ADD MSTORE PUSH1 0x64 ADD PUSH2 0x8C4 JUMP JUMPDEST PUSH2 0x1EBC DUP9 DUP9 DUP9 DUP13 DUP10 DUP10 DUP1 DUP1 PUSH1 0x1F ADD PUSH1 0x20 DUP1 SWAP2 DIV MUL PUSH1 0x20 ADD PUSH1 0x40 MLOAD SWAP1 DUP2 ADD PUSH1 0x40 MSTORE DUP1 SWAP4 SWAP3 SWAP2 SWAP1 DUP2 DUP2 MSTORE PUSH1 0x20 ADD DUP4 DUP4 DUP1 DUP3 DUP5 CALLDATACOPY PUSH1 0x0 SWAP3 ADD SWAP2 SWAP1 SWAP2 MSTORE POP POP PUSH1 0x40 DUP1 MLOAD PUSH1 0x20 PUSH1 0x1F DUP14 ADD DUP2 SWAP1 DIV DUP2 MUL DUP3 ADD DUP2 ADD SWAP1 SWAP3 MSTORE DUP12 DUP2 MSTORE CALLER SWAP4 POP SWAP2 POP DUP12 SWAP1 DUP12 SWAP1 DUP2 SWAP1 DUP5 ADD DUP4 DUP3 DUP1 DUP3 DUP5 CALLDATACOPY PUSH1 0x0 SWAP3 ADD SWAP2 SWAP1 SWAP2 MSTORE POP PUSH2 0x3BB4 SWAP3 POP POP POP JUMP JUMPDEST SWAP9 SWAP8 POP POP POP POP POP POP POP POP JUMP JUMPDEST PUSH1 0x9 SLOAD PUSH20 0xFFFFFFFFFFFFFFFFFFFFFFFFFFFFFFFFFFFFFFFF AND CALLER EQ PUSH2 0x1F49 JUMPI PUSH1 0x40 MLOAD PUSH32 0x8C379A000000000000000000000000000000000000000000000000000000000 DUP2 MSTORE PUSH1 0x20 PUSH1 0x4 DUP3 ADD MSTORE PUSH1 0xE PUSH1 0x24 DUP3 ADD MSTORE PUSH32 0x4E6F7420417574686F7269736564000000000000000000000000000000000000 PUSH1 0x44 DUP3 ADD MSTORE PUSH1 0x64 ADD PUSH2 0x8C4 JUMP JUMPDEST PUSH2 0x1F53 DUP7 DUP10 PUSH2 0x424A JUMP JUMPDEST PUSH2 0x1FB9 JUMPI PUSH1 0x40 MLOAD PUSH32 0x8C379A000000000000000000000000000000000000000000000000000000000 DUP2 MSTORE PUSH1 0x20 PUSH1 0x4 DUP3 ADD MSTORE PUSH1 0x11 PUSH1 0x24 DUP3 ADD MSTORE PUSH32 0x496E76616C696420706172746974696F6E000000000000000000000000000000 PUSH1 0x44 DUP3 ADD MSTORE PUSH1 0x64 ADD PUSH2 0x8C4 JUMP JUMPDEST PUSH20 0xFFFFFFFFFFFFFFFFFFFFFFFFFFFFFFFFFFFFFFFF DUP9 AND PUSH1 0x0 SWAP1 DUP2 MSTORE PUSH1 0x1 PUSH1 0x20 DUP2 DUP2 MSTORE PUSH1 0x40 DUP1 DUP5 KECCAK256 PUSH1 0x2 DUP4 MSTORE DUP2 DUP6 KECCAK256 DUP12 DUP7 MSTORE SWAP1 SWAP3 MSTORE SWAP1 SWAP3 KECCAK256 SLOAD DUP8 SWAP3 SWAP2 PUSH2 0x1FFE SWAP2 PUSH2 0x5D74 JUMP JUMPDEST DUP2 SLOAD DUP2 LT PUSH2 0x200E JUMPI PUSH2 0x200E PUSH2 0x5D87 JUMP JUMPDEST SWAP1 PUSH1 0x0 MSTORE PUSH1 0x20 PUSH1 0x0 KECCAK256 SWAP1 PUSH1 0x2 MUL ADD PUSH1 0x0 ADD SLOAD LT ISZERO PUSH2 0x2088 JUMPI PUSH1 0x40 MLOAD PUSH32 0x8C379A000000000000000000000000000000000000000000000000000000000 DUP2 MSTORE PUSH1 0x20 PUSH1 0x4 DUP3 ADD MSTORE PUSH1 0x14 PUSH1 0x24 DUP3 ADD MSTORE PUSH32 0x496E73756666696369656E742062616C616E6365000000000000000000000000 PUSH1 0x44 DUP3 ADD MSTORE PUSH1 0x64 ADD PUSH2 0x8C4 JUMP JUMPDEST PUSH20 0xFFFFFFFFFFFFFFFFFFFFFFFFFFFFFFFFFFFFFFFF DUP8 AND PUSH2 0x2105 JUMPI PUSH1 0x40 MLOAD PUSH32 0x8C379A000000000000000000000000000000000000000000000000000000000 DUP2 MSTORE PUSH1 0x20 PUSH1 0x4 DUP3 ADD MSTORE PUSH1 0x16 PUSH1 0x24 DUP3 ADD MSTORE PUSH32 0x30782061646472657373206E6F7420616C6C6F77656400000000000000000000 PUSH1 0x44 DUP3 ADD MSTORE PUSH1 0x64 ADD PUSH2 0x8C4 JUMP JUMPDEST PUSH20 0xFFFFFFFFFFFFFFFFFFFFFFFFFFFFFFFFFFFFFFFF DUP9 AND PUSH1 0x0 SWAP1 DUP2 MSTORE PUSH1 0x2 PUSH1 0x20 SWAP1 DUP2 MSTORE PUSH1 0x40 DUP1 DUP4 KECCAK256 DUP10 DUP5 MSTORE SWAP1 SWAP2 MSTORE DUP2 KECCAK256 SLOAD PUSH2 0x2142 SWAP1 PUSH1 0x1 SWAP1 PUSH2 0x5D74 JUMP JUMPDEST SWAP1 POP PUSH2 0x2177 PUSH32 0x0 DUP11 PUSH2 0x2172 DUP10 PUSH2 0x466D JUMP JUMPDEST PUSH2 0x470B JUMP JUMPDEST POP PUSH2 0x21AC PUSH32 0x0 ADDRESS DUP11 PUSH2 0x21A7 DUP11 PUSH2 0x466D JUMP JUMPDEST PUSH2 0x4825 JUMP JUMPDEST POP PUSH2 0x21B7 DUP8 DUP10 PUSH2 0x3624 JUMP JUMPDEST PUSH2 0x2229 JUMPI PUSH20 0xFFFFFFFFFFFFFFFFFFFFFFFFFFFFFFFFFFFFFFFF DUP9 AND PUSH1 0x0 DUP2 DUP2 MSTORE PUSH1 0x1 PUSH1 0x20 DUP2 DUP2 MSTORE PUSH1 0x40 DUP1 DUP5 KECCAK256 DUP2 MLOAD DUP1 DUP4 ADD DUP4 MSTORE DUP6 DUP2 MSTORE DUP1 DUP5 ADD DUP15 DUP2 MSTORE DUP3 SLOAD DUP1 DUP8 ADD DUP5 SSTORE DUP4 DUP9 MSTORE DUP6 DUP9 KECCAK256 SWAP3 MLOAD PUSH1 0x2 SWAP2 DUP3 MUL SWAP1 SWAP4 ADD SWAP3 DUP4 SSTORE SWAP1 MLOAD SWAP2 SWAP1 SWAP6 ADD SSTORE SWAP5 DUP5 MSTORE SWAP4 SLOAD SWAP2 DUP2 MSTORE DUP4 DUP4 KECCAK256 DUP12 DUP5 MSTORE SWAP1 MSTORE SWAP2 SWAP1 KECCAK256 SSTORE JUMPDEST PUSH20 0xFFFFFFFFFFFFFFFFFFFFFFFFFFFFFFFFFFFFFFFF DUP9 AND PUSH1 0x0 SWAP1 DUP2 MSTORE PUSH1 0x2 PUSH1 0x20 SWAP1 DUP2 MSTORE PUSH1 0x40 DUP1 DUP4 KECCAK256 DUP11 DUP5 MSTORE SWAP1 SWAP2 MSTORE DUP2 KECCAK256 SLOAD PUSH2 0x2266 SWAP1 PUSH1 0x1 SWAP1 PUSH2 0x5D74 JUMP JUMPDEST SWAP1 POP PUSH2 0x22D3 DUP8 PUSH1 0x1 PUSH1 0x0 DUP14 PUSH20 0xFFFFFFFFFFFFFFFFFFFFFFFFFFFFFFFFFFFFFFFF AND PUSH20 0xFFFFFFFFFFFFFFFFFFFFFFFFFFFFFFFFFFFFFFFF AND DUP2 MSTORE PUSH1 0x20 ADD SWAP1 DUP2 MSTORE PUSH1 0x20 ADD PUSH1 0x0 KECCAK256 DUP5 DUP2 SLOAD DUP2 LT PUSH2 0x22BC JUMPI PUSH2 0x22BC PUSH2 0x5D87 JUMP JUMPDEST PUSH1 0x0 SWAP2 DUP3 MSTORE PUSH1 0x20 SWAP1 SWAP2 KECCAK256 PUSH1 0x2 SWAP1 SWAP2 MUL ADD SLOAD SWAP1 PUSH2 0x4893 JUMP JUMPDEST PUSH20 0xFFFFFFFFFFFFFFFFFFFFFFFFFFFFFFFFFFFFFFFF DUP12 AND PUSH1 0x0 SWAP1 DUP2 MSTORE PUSH1 0x1 PUSH1 0x20 MSTORE PUSH1 0x40 SWAP1 KECCAK256 DUP1 SLOAD DUP5 SWAP1 DUP2 LT PUSH2 0x230A JUMPI PUSH2 0x230A PUSH2 0x5D87 JUMP JUMPDEST SWAP1 PUSH1 0x0 MSTORE PUSH1 0x20 PUSH1 0x0 KECCAK256 SWAP1 PUSH1 0x2 MUL ADD PUSH1 0x0 ADD DUP2 SWAP1 SSTORE POP PUSH2 0x238A DUP8 PUSH1 0x1 PUSH1 0x0 DUP13 PUSH20 0xFFFFFFFFFFFFFFFFFFFFFFFFFFFFFFFFFFFFFFFF AND PUSH20 0xFFFFFFFFFFFFFFFFFFFFFFFFFFFFFFFFFFFFFFFF AND DUP2 MSTORE PUSH1 0x20 ADD SWAP1 DUP2 MSTORE PUSH1 0x20 ADD PUSH1 0x0 KECCAK256 DUP4 DUP2 SLOAD DUP2 LT PUSH2 0x2373 JUMPI PUSH2 0x2373 PUSH2 0x5D87 JUMP JUMPDEST PUSH1 0x0 SWAP2 DUP3 MSTORE PUSH1 0x20 SWAP1 SWAP2 KECCAK256 PUSH1 0x2 SWAP1 SWAP2 MUL ADD SLOAD SWAP1 PUSH2 0x48AF JUMP JUMPDEST PUSH20 0xFFFFFFFFFFFFFFFFFFFFFFFFFFFFFFFFFFFFFFFF DUP11 AND PUSH1 0x0 SWAP1 DUP2 MSTORE PUSH1 0x1 PUSH1 0x20 MSTORE PUSH1 0x40 SWAP1 KECCAK256 DUP1 SLOAD DUP4 SWAP1 DUP2 LT PUSH2 0x23C1 JUMPI PUSH2 0x23C1 PUSH2 0x5D87 JUMP JUMPDEST SWAP1 PUSH1 0x0 MSTORE PUSH1 0x20 PUSH1 0x0 KECCAK256 SWAP1 PUSH1 0x2 MUL ADD PUSH1 0x0 ADD DUP2 SWAP1 SSTORE POP DUP9 PUSH20 0xFFFFFFFFFFFFFFFFFFFFFFFFFFFFFFFFFFFFFFFF AND DUP11 PUSH20 0xFFFFFFFFFFFFFFFFFFFFFFFFFFFFFFFFFFFFFFFF AND PUSH32 0xA017302CF04CD9E7B51A582BD2579D952FAD0F052330F26180E1AF4AB126EB0F CALLER DUP12 DUP12 DUP12 DUP12 DUP12 DUP12 PUSH1 0x40 MLOAD PUSH2 0x243F SWAP8 SWAP7 SWAP6 SWAP5 SWAP4 SWAP3 SWAP2 SWAP1 PUSH2 0x5E81 JUMP JUMPDEST PUSH1 0x40 MLOAD DUP1 SWAP2 SUB SWAP1 LOG3 POP POP POP POP POP POP POP POP POP POP JUMP JUMPDEST CALLER PUSH1 0x0 DUP2 DUP2 MSTORE PUSH1 0x4 PUSH1 0x20 SWAP1 DUP2 MSTORE PUSH1 0x40 DUP1 DUP4 KECCAK256 PUSH20 0xFFFFFFFFFFFFFFFFFFFFFFFFFFFFFFFFFFFFFFFF DUP7 AND DUP1 DUP6 MSTORE SWAP3 MSTORE DUP1 DUP4 KECCAK256 DUP1 SLOAD PUSH32 0xFFFFFFFFFFFFFFFFFFFFFFFFFFFFFFFFFFFFFFFFFFFFFFFFFFFFFFFFFFFFFF00 AND PUSH1 0x1 OR SWAP1 SSTORE MLOAD SWAP1 SWAP2 PUSH32 0xF4CAEB2D6CA8932A215A353D0703C326EC2D81FC68170F320EB2AB49E9DF61F9 SWAP2 LOG3 POP JUMP JUMPDEST PUSH20 0xFFFFFFFFFFFFFFFFFFFFFFFFFFFFFFFFFFFFFFFF DUP5 AND PUSH1 0x0 SWAP1 DUP2 MSTORE PUSH1 0x4 PUSH1 0x20 SWAP1 DUP2 MSTORE PUSH1 0x40 DUP1 DUP4 KECCAK256 CALLER DUP5 MSTORE SWAP1 SWAP2 MSTORE SWAP1 KECCAK256 SLOAD PUSH1 0xFF AND DUP1 PUSH2 0x254F JUMPI POP PUSH1 0xA SLOAD PUSH20 0xFFFFFFFFFFFFFFFFFFFFFFFFFFFFFFFFFFFFFFFF DUP6 AND PUSH1 0x0 SWAP1 DUP2 MSTORE PUSH1 0x3 PUSH1 0x20 SWAP1 DUP2 MSTORE PUSH1 0x40 DUP1 DUP4 KECCAK256 SWAP4 DUP4 MSTORE SWAP3 DUP2 MSTORE DUP3 DUP3 KECCAK256 CALLER DUP4 MSTORE SWAP1 MSTORE KECCAK256 SLOAD PUSH1 0xFF AND JUMPDEST PUSH2 0x25B5 JUMPI PUSH1 0x40 MLOAD PUSH32 0x8C379A000000000000000000000000000000000000000000000000000000000 DUP2 MSTORE PUSH1 0x20 PUSH1 0x4 DUP3 ADD MSTORE PUSH1 0x2 PUSH1 0x24 DUP3 ADD MSTORE PUSH32 0x3533000000000000000000000000000000000000000000000000000000000000 PUSH1 0x44 DUP3 ADD MSTORE PUSH1 0x64 ADD PUSH2 0x8C4 JUMP JUMPDEST PUSH2 0x262A PUSH1 0xA SLOAD DUP6 CALLER DUP7 DUP7 DUP7 DUP1 DUP1 PUSH1 0x1F ADD PUSH1 0x20 DUP1 SWAP2 DIV MUL PUSH1 0x20 ADD PUSH1 0x40 MLOAD SWAP1 DUP2 ADD PUSH1 0x40 MSTORE DUP1 SWAP4 SWAP3 SWAP2 SWAP1 DUP2 DUP2 MSTORE PUSH1 0x20 ADD DUP4 DUP4 DUP1 DUP3 DUP5 CALLDATACOPY PUSH1 0x0 SWAP3 ADD DUP3 SWAP1 MSTORE POP SWAP3 POP PUSH2 0x25FA SWAP2 POP POP JUMP JUMPDEST PUSH1 0x40 MLOAD SWAP1 DUP1 DUP3 MSTORE DUP1 PUSH1 0x1F ADD PUSH1 0x1F NOT AND PUSH1 0x20 ADD DUP3 ADD PUSH1 0x40 MSTORE DUP1 ISZERO PUSH2 0x2624 JUMPI PUSH1 0x20 DUP3 ADD DUP2 DUP1 CALLDATASIZE DUP4 CALLDATACOPY ADD SWAP1 POP JUMPDEST POP PUSH2 0x383A JUMP JUMPDEST DUP4 PUSH20 0xFFFFFFFFFFFFFFFFFFFFFFFFFFFFFFFFFFFFFFFF AND CALLER PUSH20 0xFFFFFFFFFFFFFFFFFFFFFFFFFFFFFFFFFFFFFFFF AND PUSH32 0xB7D0D6B60740753E9F16692A2F479472A1385AEC2420FA43225B02F2FFA1AFE7 DUP6 DUP6 DUP6 PUSH1 0x40 MLOAD PUSH2 0x268B SWAP4 SWAP3 SWAP2 SWAP1 PUSH2 0x5EDE JUMP JUMPDEST PUSH1 0x40 MLOAD DUP1 SWAP2 SUB SWAP1 LOG3 POP POP POP POP JUMP JUMPDEST PUSH1 0x0 DUP1 PUSH1 0x0 PUSH2 0x26A8 DUP8 DUP11 PUSH2 0x424A JUMP JUMPDEST PUSH2 0x26FA JUMPI POP PUSH32 0x5000000000000000000000000000000000000000000000000000000000000000 SWAP2 POP PUSH32 0x506172746974696F6E206E6F7420657869737473000000000000000000000000 SWAP1 POP PUSH1 0x0 PUSH2 0x29F1 JUMP JUMPDEST PUSH20 0xFFFFFFFFFFFFFFFFFFFFFFFFFFFFFFFFFFFFFFFF DUP10 AND PUSH1 0x0 SWAP1 DUP2 MSTORE PUSH1 0x1 PUSH1 0x20 SWAP1 DUP2 MSTORE PUSH1 0x40 DUP1 DUP4 KECCAK256 PUSH1 0x2 DUP4 MSTORE DUP2 DUP5 KECCAK256 DUP12 DUP6 MSTORE SWAP1 SWAP3 MSTORE SWAP1 SWAP2 KECCAK256 SLOAD DUP2 SLOAD DUP9 SWAP3 SWAP2 SWAP1 DUP2 LT PUSH2 0x2747 JUMPI PUSH2 0x2747 PUSH2 0x5D87 JUMP JUMPDEST SWAP1 PUSH1 0x0 MSTORE PUSH1 0x20 PUSH1 0x0 KECCAK256 SWAP1 PUSH1 0x2 MUL ADD PUSH1 0x0 ADD SLOAD LT ISZERO PUSH2 0x27AD JUMPI POP PUSH32 0x5200000000000000000000000000000000000000000000000000000000000000 SWAP2 POP PUSH32 0x496E737566666963656E742062616C616E636500000000000000000000000000 SWAP1 POP PUSH1 0x0 PUSH2 0x29F1 JUMP JUMPDEST PUSH20 0xFFFFFFFFFFFFFFFFFFFFFFFFFFFFFFFFFFFFFFFF DUP9 AND PUSH2 0x2816 JUMPI POP PUSH32 0x5700000000000000000000000000000000000000000000000000000000000000 SWAP2 POP PUSH32 0x496E76616C696420726563656976657200000000000000000000000000000000 SWAP1 POP PUSH1 0x0 PUSH2 0x29F1 JUMP JUMPDEST PUSH1 0x40 MLOAD PUSH32 0x70A0823100000000000000000000000000000000000000000000000000000000 DUP2 MSTORE PUSH20 0xFFFFFFFFFFFFFFFFFFFFFFFFFFFFFFFFFFFFFFFF DUP11 DUP2 AND PUSH1 0x4 DUP4 ADD MSTORE PUSH2 0x28D2 SWAP2 PUSH32 0x0 SWAP1 SWAP2 AND SWAP1 PUSH4 0x70A08231 SWAP1 PUSH1 0x24 ADD PUSH1 0x20 PUSH1 0x40 MLOAD DUP1 DUP4 SUB DUP2 DUP7 GAS STATICCALL ISZERO DUP1 ISZERO PUSH2 0x28A8 JUMPI RETURNDATASIZE PUSH1 0x0 DUP1 RETURNDATACOPY RETURNDATASIZE PUSH1 0x0 REVERT JUMPDEST POP POP POP POP PUSH1 0x40 MLOAD RETURNDATASIZE PUSH1 0x1F NOT PUSH1 0x1F DUP3 ADD AND DUP3 ADD DUP1 PUSH1 0x40 MSTORE POP DUP2 ADD SWAP1 PUSH2 0x28CC SWAP2 SWAP1 PUSH2 0x5CE3 JUMP JUMPDEST DUP8 PUSH2 0x48CD JUMP JUMPDEST ISZERO DUP1 PUSH2 0x2955 JUMPI POP PUSH1 0x40 MLOAD PUSH32 0x70A0823100000000000000000000000000000000000000000000000000000000 DUP2 MSTORE PUSH20 0xFFFFFFFFFFFFFFFFFFFFFFFFFFFFFFFFFFFFFFFF DUP10 DUP2 AND PUSH1 0x4 DUP4 ADD MSTORE PUSH2 0x2953 SWAP2 PUSH32 0x0 SWAP1 SWAP2 AND SWAP1 PUSH4 0x70A08231 SWAP1 PUSH1 0x24 ADD PUSH2 0xE71 JUMP JUMPDEST ISZERO JUMPDEST ISZERO PUSH2 0x29A8 JUMPI POP PUSH32 0x5000000000000000000000000000000000000000000000000000000000000000 SWAP2 POP PUSH32 0x4F766572666C6F77000000000000000000000000000000000000000000000000 SWAP1 POP PUSH1 0x0 PUSH2 0x29F1 JUMP JUMPDEST POP PUSH32 0x5100000000000000000000000000000000000000000000000000000000000000 SWAP2 POP PUSH32 0x5375636365737300000000000000000000000000000000000000000000000000 SWAP1 POP DUP6 JUMPDEST SWAP7 POP SWAP7 POP SWAP7 SWAP4 POP POP POP POP JUMP JUMPDEST PUSH1 0x40 MLOAD PUSH20 0xFFFFFFFFFFFFFFFFFFFFFFFFFFFFFFFFFFFFFFFF DUP6 DUP2 AND PUSH1 0x24 DUP4 ADD MSTORE DUP5 DUP2 AND PUSH1 0x44 DUP4 ADD MSTORE DUP4 AND PUSH1 0x64 DUP3 ADD MSTORE PUSH1 0x84 DUP2 ADD DUP3 SWAP1 MSTORE PUSH1 0x0 SWAP1 DUP2 SWAP1 DUP2 SWAP1 PUSH2 0x167 SWAP1 PUSH32 0x9B23D3D900000000000000000000000000000000000000000000000000000000 SWAP1 PUSH1 0xA4 ADD PUSH2 0x1161 JUMP JUMPDEST PUSH1 0x60 PUSH1 0x8 DUP1 SLOAD DUP1 PUSH1 0x20 MUL PUSH1 0x20 ADD PUSH1 0x40 MLOAD SWAP1 DUP2 ADD PUSH1 0x40 MSTORE DUP1 SWAP3 SWAP2 SWAP1 DUP2 DUP2 MSTORE PUSH1 0x20 ADD DUP3 DUP1 SLOAD DUP1 ISZERO PUSH2 0x2AB6 JUMPI PUSH1 0x20 MUL DUP3 ADD SWAP2 SWAP1 PUSH1 0x0 MSTORE PUSH1 0x20 PUSH1 0x0 KECCAK256 SWAP1 JUMPDEST DUP2 SLOAD DUP2 MSTORE PUSH1 0x20 ADD SWAP1 PUSH1 0x1 ADD SWAP1 DUP1 DUP4 GT PUSH2 0x2AA2 JUMPI JUMPDEST POP POP POP POP POP SWAP1 POP SWAP1 JUMP JUMPDEST PUSH1 0x9 SLOAD PUSH20 0xFFFFFFFFFFFFFFFFFFFFFFFFFFFFFFFFFFFFFFFF AND CALLER EQ PUSH2 0x2B41 JUMPI PUSH1 0x40 MLOAD PUSH32 0x8C379A000000000000000000000000000000000000000000000000000000000 DUP2 MSTORE PUSH1 0x20 PUSH1 0x4 DUP3 ADD MSTORE PUSH1 0xE PUSH1 0x24 DUP3 ADD MSTORE PUSH32 0x4E6F7420417574686F7269736564000000000000000000000000000000000000 PUSH1 0x44 DUP3 ADD MSTORE PUSH1 0x64 ADD PUSH2 0x8C4 JUMP JUMPDEST PUSH1 0x9 SLOAD PUSH20 0xFFFFFFFFFFFFFFFFFFFFFFFFFFFFFFFFFFFFFFFF AND PUSH2 0x2BC0 JUMPI PUSH1 0x40 MLOAD PUSH32 0x8C379A000000000000000000000000000000000000000000000000000000000 DUP2 MSTORE PUSH1 0x20 PUSH1 0x4 DUP3 ADD MSTORE PUSH1 0x11 PUSH1 0x24 DUP3 ADD MSTORE PUSH32 0x416C72656164792066696E616C697A6564000000000000000000000000000000 PUSH1 0x44 DUP3 ADD MSTORE PUSH1 0x64 ADD PUSH2 0x8C4 JUMP JUMPDEST PUSH1 0x9 DUP1 SLOAD PUSH32 0xFFFFFFFFFFFFFFFFFFFFFFFF0000000000000000000000000000000000000000 AND SWAP1 SSTORE PUSH1 0x40 MLOAD PUSH32 0x777C956560861BDF04A77B9EB7199E6BC3F770F1C569970F35AC416B86D8D872 SWAP1 PUSH1 0x0 SWAP1 LOG1 JUMP JUMPDEST PUSH1 0x0 PUSH2 0x2C1D PUSH2 0x40A3 JUMP JUMPDEST PUSH2 0x1735 PUSH32 0x0 DUP4 PUSH2 0x48DE JUMP JUMPDEST PUSH1 0x0 PUSH2 0x2C6C CALLER DUP5 DUP5 PUSH1 0xA SLOAD PUSH1 0x0 PUSH8 0xFFFFFFFFFFFFFFFF DUP2 GT ISZERO PUSH2 0x1698 JUMPI PUSH2 0x1698 PUSH2 0x504C JUMP JUMPDEST POP PUSH1 0x1 SWAP3 SWAP2 POP POP JUMP JUMPDEST PUSH1 0x9 SLOAD PUSH20 0xFFFFFFFFFFFFFFFFFFFFFFFFFFFFFFFFFFFFFFFF AND CALLER EQ PUSH2 0x2CF6 JUMPI PUSH1 0x40 MLOAD PUSH32 0x8C379A000000000000000000000000000000000000000000000000000000000 DUP2 MSTORE PUSH1 0x20 PUSH1 0x4 DUP3 ADD MSTORE PUSH1 0xE PUSH1 0x24 DUP3 ADD MSTORE PUSH32 0x4E6F7420417574686F7269736564000000000000000000000000000000000000 PUSH1 0x44 DUP3 ADD MSTORE PUSH1 0x64 ADD PUSH2 0x8C4 JUMP JUMPDEST PUSH2 0x2D00 DUP7 DUP7 PUSH2 0x493A JUMP JUMPDEST PUSH2 0x2D0A DUP7 DUP9 PUSH2 0x424A JUMP JUMPDEST PUSH2 0x2D70 JUMPI PUSH1 0x40 MLOAD PUSH32 0x8C379A000000000000000000000000000000000000000000000000000000000 DUP2 MSTORE PUSH1 0x20 PUSH1 0x4 DUP3 ADD MSTORE PUSH1 0x11 PUSH1 0x24 DUP3 ADD MSTORE PUSH32 0x496E76616C696420706172746974696F6E000000000000000000000000000000 PUSH1 0x44 DUP3 ADD MSTORE PUSH1 0x64 ADD PUSH2 0x8C4 JUMP JUMPDEST PUSH20 0xFFFFFFFFFFFFFFFFFFFFFFFFFFFFFFFFFFFFFFFF DUP8 AND PUSH1 0x0 SWAP1 DUP2 MSTORE PUSH1 0x2 PUSH1 0x20 SWAP1 DUP2 MSTORE PUSH1 0x40 DUP1 DUP4 KECCAK256 DUP10 DUP5 MSTORE SWAP1 SWAP2 MSTORE DUP2 KECCAK256 SLOAD PUSH2 0x2DAD SWAP1 PUSH1 0x1 SWAP1 PUSH2 0x5D74 JUMP JUMPDEST PUSH20 0xFFFFFFFFFFFFFFFFFFFFFFFFFFFFFFFFFFFFFFFF DUP10 AND PUSH1 0x0 SWAP1 DUP2 MSTORE PUSH1 0x1 PUSH1 0x20 MSTORE PUSH1 0x40 SWAP1 KECCAK256 DUP1 SLOAD SWAP2 SWAP3 POP DUP8 SWAP2 DUP4 SWAP1 DUP2 LT PUSH2 0x2DE9 JUMPI PUSH2 0x2DE9 PUSH2 0x5D87 JUMP JUMPDEST SWAP1 PUSH1 0x0 MSTORE PUSH1 0x20 PUSH1 0x0 KECCAK256 SWAP1 PUSH1 0x2 MUL ADD PUSH1 0x0 ADD SLOAD LT ISZERO PUSH2 0x2E63 JUMPI PUSH1 0x40 MLOAD PUSH32 0x8C379A000000000000000000000000000000000000000000000000000000000 DUP2 MSTORE PUSH1 0x20 PUSH1 0x4 DUP3 ADD MSTORE PUSH1 0x12 PUSH1 0x24 DUP3 ADD MSTORE PUSH32 0x496E73756666696369656E742076616C75650000000000000000000000000000 PUSH1 0x44 DUP3 ADD MSTORE PUSH1 0x64 ADD PUSH2 0x8C4 JUMP JUMPDEST PUSH2 0x2E91 PUSH32 0x0 DUP10 PUSH2 0x2172 DUP10 PUSH2 0x466D JUMP JUMPDEST POP PUSH2 0x2ED3 PUSH32 0x0 PUSH2 0x2EBF DUP9 PUSH2 0x466D JUMP JUMPDEST PUSH1 0x40 DUP1 MLOAD PUSH1 0x0 DUP2 MSTORE PUSH1 0x20 DUP2 ADD SWAP1 SWAP2 MSTORE PUSH2 0x4A08 JUMP JUMPDEST POP POP PUSH20 0xFFFFFFFFFFFFFFFFFFFFFFFFFFFFFFFFFFFFFFFF DUP9 AND PUSH1 0x0 SWAP1 DUP2 MSTORE PUSH1 0x1 PUSH1 0x20 MSTORE PUSH1 0x40 SWAP1 KECCAK256 DUP1 SLOAD DUP8 SWAP2 SWAP1 DUP4 SWAP1 DUP2 LT PUSH2 0x2F0F JUMPI PUSH2 0x2F0F PUSH2 0x5D87 JUMP JUMPDEST SWAP1 PUSH1 0x0 MSTORE PUSH1 0x20 PUSH1 0x0 KECCAK256 SWAP1 PUSH1 0x2 MUL ADD PUSH1 0x0 ADD SLOAD SUB PUSH2 0x2F36 JUMPI PUSH2 0x2F31 DUP9 DUP9 DUP4 PUSH2 0x4B49 JUMP JUMPDEST PUSH2 0x2FBC JUMP JUMPDEST PUSH20 0xFFFFFFFFFFFFFFFFFFFFFFFFFFFFFFFFFFFFFFFF DUP9 AND PUSH1 0x0 SWAP1 DUP2 MSTORE PUSH1 0x1 PUSH1 0x20 MSTORE PUSH1 0x40 SWAP1 KECCAK256 DUP1 SLOAD PUSH2 0x2F73 SWAP2 DUP9 SWAP2 DUP5 SWAP1 DUP2 LT PUSH2 0x22BC JUMPI PUSH2 0x22BC PUSH2 0x5D87 JUMP JUMPDEST PUSH20 0xFFFFFFFFFFFFFFFFFFFFFFFFFFFFFFFFFFFFFFFF DUP10 AND PUSH1 0x0 SWAP1 DUP2 MSTORE PUSH1 0x1 PUSH1 0x20 MSTORE PUSH1 0x40 SWAP1 KECCAK256 DUP1 SLOAD DUP4 SWAP1 DUP2 LT PUSH2 0x2FAA JUMPI PUSH2 0x2FAA PUSH2 0x5D87 JUMP JUMPDEST PUSH1 0x0 SWAP2 DUP3 MSTORE PUSH1 0x20 SWAP1 SWAP2 KECCAK256 PUSH1 0x2 SWAP1 SWAP2 MUL ADD SSTORE JUMPDEST DUP8 PUSH20 0xFFFFFFFFFFFFFFFFFFFFFFFFFFFFFFFFFFFFFFFF AND PUSH32 0x876B7CB47AA150B3A5516188B19ED308752AD4D0AE9A702543353B78163F7589 CALLER DUP9 DUP9 DUP9 DUP9 DUP9 PUSH1 0x40 MLOAD PUSH2 0x300C SWAP7 SWAP6 SWAP5 SWAP4 SWAP3 SWAP2 SWAP1 PUSH2 0x5F01 JUMP JUMPDEST PUSH1 0x40 MLOAD DUP1 SWAP2 SUB SWAP1 LOG2 POP POP POP POP POP POP POP POP JUMP JUMPDEST PUSH1 0x0 DUP2 DUP2 MSTORE PUSH1 0x6 PUSH1 0x20 MSTORE PUSH1 0x40 DUP2 KECCAK256 DUP1 SLOAD PUSH1 0x1 DUP3 ADD SLOAD PUSH1 0x2 SWAP1 SWAP3 ADD DUP1 SLOAD PUSH1 0x60 SWAP5 SWAP4 DUP5 SWAP4 SWAP2 DUP4 SWAP1 PUSH2 0x304C SWAP1 PUSH2 0x5AE1 JUMP JUMPDEST DUP1 PUSH1 0x1F ADD PUSH1 0x20 DUP1 SWAP2 DIV MUL PUSH1 0x20 ADD PUSH1 0x40 MLOAD SWAP1 DUP2 ADD PUSH1 0x40 MSTORE DUP1 SWAP3 SWAP2 SWAP1 DUP2 DUP2 MSTORE PUSH1 0x20 ADD DUP3 DUP1 SLOAD PUSH2 0x3078 SWAP1 PUSH2 0x5AE1 JUMP JUMPDEST DUP1 ISZERO PUSH2 0x30C5 JUMPI DUP1 PUSH1 0x1F LT PUSH2 0x309A JUMPI PUSH2 0x100 DUP1 DUP4 SLOAD DIV MUL DUP4 MSTORE SWAP2 PUSH1 0x20 ADD SWAP2 PUSH2 0x30C5 JUMP JUMPDEST DUP3 ADD SWAP2 SWAP1 PUSH1 0x0 MSTORE PUSH1 0x20 PUSH1 0x0 KECCAK256 SWAP1 JUMPDEST DUP2 SLOAD DUP2 MSTORE SWAP1 PUSH1 0x1 ADD SWAP1 PUSH1 0x20 ADD DUP1 DUP4 GT PUSH2 0x30A8 JUMPI DUP3 SWAP1 SUB PUSH1 0x1F AND DUP3 ADD SWAP2 JUMPDEST POP POP POP POP POP SWAP3 POP SWAP3 POP SWAP3 POP SWAP3 POP SWAP2 SWAP4 SWAP1 SWAP3 POP JUMP JUMPDEST PUSH1 0x0 PUSH2 0x30E3 PUSH2 0x40A3 JUMP JUMPDEST PUSH2 0x137C PUSH32 0x0 PUSH2 0x4CEE JUMP JUMPDEST PUSH1 0x9 SLOAD PUSH20 0xFFFFFFFFFFFFFFFFFFFFFFFFFFFFFFFFFFFFFFFF AND CALLER EQ PUSH2 0x318D JUMPI PUSH1 0x40 MLOAD PUSH32 0x8C379A000000000000000000000000000000000000000000000000000000000 DUP2 MSTORE PUSH1 0x20 PUSH1 0x4 DUP3 ADD MSTORE PUSH1 0xE PUSH1 0x24 DUP3 ADD MSTORE PUSH32 0x4E6F7420417574686F7269736564000000000000000000000000000000000000 PUSH1 0x44 DUP3 ADD MSTORE PUSH1 0x64 ADD PUSH2 0x8C4 JUMP JUMPDEST PUSH1 0x5 SLOAD PUSH1 0xFF AND PUSH2 0x31F9 JUMPI PUSH1 0x40 MLOAD PUSH32 0x8C379A000000000000000000000000000000000000000000000000000000000 DUP2 MSTORE PUSH1 0x20 PUSH1 0x4 DUP3 ADD MSTORE PUSH1 0x12 PUSH1 0x24 DUP3 ADD MSTORE PUSH32 0x49737375616E636520697320636C6F7365640000000000000000000000000000 PUSH1 0x44 DUP3 ADD MSTORE PUSH1 0x64 ADD PUSH2 0x8C4 JUMP JUMPDEST PUSH2 0x3208 PUSH1 0xA SLOAD DUP6 DUP6 DUP6 DUP6 PUSH2 0x433C JUMP JUMPDEST DUP4 PUSH20 0xFFFFFFFFFFFFFFFFFFFFFFFFFFFFFFFFFFFFFFFF AND CALLER PUSH20 0xFFFFFFFFFFFFFFFFFFFFFFFFFFFFFFFFFFFFFFFF AND PUSH32 0xE9905D62635F049C2F4E11678EBF9DC3D1F8C4A653E290759B772E47BA00D00 DUP6 DUP6 DUP6 PUSH1 0x40 MLOAD PUSH2 0x268B SWAP4 SWAP3 SWAP2 SWAP1 PUSH2 0x5EDE JUMP JUMPDEST PUSH1 0x9 SLOAD PUSH20 0xFFFFFFFFFFFFFFFFFFFFFFFFFFFFFFFFFFFFFFFF AND CALLER EQ PUSH2 0x32EA JUMPI PUSH1 0x40 MLOAD PUSH32 0x8C379A000000000000000000000000000000000000000000000000000000000 DUP2 MSTORE PUSH1 0x20 PUSH1 0x4 DUP3 ADD MSTORE PUSH1 0xE PUSH1 0x24 DUP3 ADD MSTORE PUSH32 0x4E6F7420417574686F7269736564000000000000000000000000000000000000 PUSH1 0x44 DUP3 ADD MSTORE PUSH1 0x64 ADD PUSH2 0x8C4 JUMP JUMPDEST PUSH1 0x0 DUP2 DUP2 MSTORE PUSH1 0x6 PUSH1 0x20 MSTORE PUSH1 0x40 SWAP1 KECCAK256 PUSH1 0x1 ADD SLOAD PUSH2 0x3362 JUMPI PUSH1 0x40 MLOAD PUSH32 0x8C379A000000000000000000000000000000000000000000000000000000000 DUP2 MSTORE PUSH1 0x20 PUSH1 0x4 DUP3 ADD MSTORE PUSH1 0x1A PUSH1 0x24 DUP3 ADD MSTORE PUSH32 0x446F63756D656E742073686F756C642062652065786973746564000000000000 PUSH1 0x44 DUP3 ADD MSTORE PUSH1 0x64 ADD PUSH2 0x8C4 JUMP JUMPDEST PUSH1 0x0 DUP2 DUP2 MSTORE PUSH1 0x7 PUSH1 0x20 MSTORE PUSH1 0x40 DUP2 KECCAK256 SLOAD PUSH2 0x337D SWAP1 PUSH1 0x1 SWAP1 PUSH2 0x5D74 JUMP JUMPDEST PUSH1 0x8 SLOAD SWAP1 SWAP2 POP PUSH2 0x338F SWAP1 PUSH1 0x1 SWAP1 PUSH2 0x5D74 JUMP JUMPDEST DUP2 EQ PUSH2 0x341F JUMPI PUSH1 0x8 DUP1 SLOAD PUSH2 0x33A5 SWAP1 PUSH1 0x1 SWAP1 PUSH2 0x5D74 JUMP JUMPDEST DUP2 SLOAD DUP2 LT PUSH2 0x33B5 JUMPI PUSH2 0x33B5 PUSH2 0x5D87 JUMP JUMPDEST SWAP1 PUSH1 0x0 MSTORE PUSH1 0x20 PUSH1 0x0 KECCAK256 ADD SLOAD PUSH1 0x8 DUP3 DUP2 SLOAD DUP2 LT PUSH2 0x33D3 JUMPI PUSH2 0x33D3 PUSH2 0x5D87 JUMP JUMPDEST PUSH1 0x0 SWAP2 DUP3 MSTORE PUSH1 0x20 SWAP1 SWAP2 KECCAK256 ADD SSTORE PUSH2 0x33EA DUP2 PUSH1 0x1 PUSH2 0x5F57 JUMP JUMPDEST PUSH1 0x7 PUSH1 0x0 PUSH1 0x8 DUP5 DUP2 SLOAD DUP2 LT PUSH2 0x3401 JUMPI PUSH2 0x3401 PUSH2 0x5D87 JUMP JUMPDEST SWAP1 PUSH1 0x0 MSTORE PUSH1 0x20 PUSH1 0x0 KECCAK256 ADD SLOAD DUP2 MSTORE PUSH1 0x20 ADD SWAP1 DUP2 MSTORE PUSH1 0x20 ADD PUSH1 0x0 KECCAK256 DUP2 SWAP1 SSTORE POP JUMPDEST PUSH1 0x0 DUP3 DUP2 MSTORE PUSH1 0x6 PUSH1 0x20 MSTORE PUSH1 0x40 SWAP1 DUP2 SWAP1 KECCAK256 DUP1 SLOAD SWAP2 MLOAD DUP5 SWAP3 PUSH32 0x3D9BBA27D3E360D8C80645BEED7E991454A8271BF6F269A24F7782BE0F0D0654 SWAP3 PUSH2 0x3467 SWAP3 PUSH1 0x2 SWAP1 SWAP2 ADD SWAP2 SWAP1 PUSH2 0x5F6A JUMP JUMPDEST PUSH1 0x40 MLOAD DUP1 SWAP2 SUB SWAP1 LOG2 PUSH1 0x0 DUP3 DUP2 MSTORE PUSH1 0x6 PUSH1 0x20 MSTORE PUSH1 0x40 DUP2 KECCAK256 DUP2 DUP2 SSTORE PUSH1 0x1 DUP2 ADD DUP3 SWAP1 SSTORE SWAP1 PUSH2 0x1784 PUSH1 0x2 DUP4 ADD DUP3 PUSH2 0x5002 JUMP JUMPDEST PUSH1 0x40 MLOAD PUSH32 0xDD62ED3E00000000000000000000000000000000000000000000000000000000 DUP2 MSTORE PUSH20 0xFFFFFFFFFFFFFFFFFFFFFFFFFFFFFFFFFFFFFFFF DUP4 DUP2 AND PUSH1 0x4 DUP4 ADD MSTORE DUP3 DUP2 AND PUSH1 0x24 DUP4 ADD MSTORE PUSH1 0x0 SWAP2 PUSH32 0x0 SWAP1 SWAP2 AND SWAP1 PUSH4 0xDD62ED3E SWAP1 PUSH1 0x44 ADD PUSH1 0x20 PUSH1 0x40 MLOAD DUP1 DUP4 SUB DUP2 DUP7 GAS STATICCALL ISZERO DUP1 ISZERO PUSH2 0x352E JUMPI RETURNDATASIZE PUSH1 0x0 DUP1 RETURNDATACOPY RETURNDATASIZE PUSH1 0x0 REVERT JUMPDEST POP POP POP POP PUSH1 0x40 MLOAD RETURNDATASIZE PUSH1 0x1F NOT PUSH1 0x1F DUP3 ADD AND DUP3 ADD DUP1 PUSH1 0x40 MSTORE POP DUP2 ADD SWAP1 PUSH2 0xB3E SWAP2 SWAP1 PUSH2 0x5CE3 JUMP JUMPDEST PUSH2 0x3597 PUSH1 0xA SLOAD CALLER CALLER DUP7 DUP7 DUP7 DUP1 DUP1 PUSH1 0x1F ADD PUSH1 0x20 DUP1 SWAP2 DIV MUL PUSH1 0x20 ADD PUSH1 0x40 MLOAD SWAP1 DUP2 ADD PUSH1 0x40 MSTORE DUP1 SWAP4 SWAP3 SWAP2 SWAP1 DUP2 DUP2 MSTORE PUSH1 0x20 ADD DUP4 DUP4 DUP1 DUP3 DUP5 CALLDATACOPY PUSH1 0x0 SWAP3 ADD DUP3 SWAP1 MSTORE POP SWAP3 POP PUSH2 0x25FA SWAP2 POP POP JUMP JUMPDEST PUSH1 0x40 MLOAD CALLER SWAP1 PUSH1 0x0 SWAP1 PUSH32 0xB7D0D6B60740753E9F16692A2F479472A1385AEC2420FA43225B02F2FFA1AFE7 SWAP1 PUSH2 0x35D0 SWAP1 DUP8 SWAP1 DUP8 SWAP1 DUP8 SWAP1 PUSH2 0x5EDE JUMP JUMPDEST PUSH1 0x40 MLOAD DUP1 SWAP2 SUB SWAP1 LOG3 POP POP POP JUMP JUMPDEST PUSH2 0x1AA3 CALLER DUP6 DUP6 PUSH1 0xA SLOAD DUP7 DUP7 DUP1 DUP1 PUSH1 0x1F ADD PUSH1 0x20 DUP1 SWAP2 DIV MUL PUSH1 0x20 ADD PUSH1 0x40 MLOAD SWAP1 DUP2 ADD PUSH1 0x40 MSTORE DUP1 SWAP4 SWAP3 SWAP2 SWAP1 DUP2 DUP2 MSTORE PUSH1 0x20 ADD DUP4 DUP4 DUP1 DUP3 DUP5 CALLDATACOPY PUSH1 0x0 SWAP3 ADD DUP3 SWAP1 MSTORE POP CALLER SWAP4 POP SWAP2 POP PUSH2 0x16C7 SWAP1 POP JUMP JUMPDEST PUSH1 0x0 DUP1 JUMPDEST PUSH20 0xFFFFFFFFFFFFFFFFFFFFFFFFFFFFFFFFFFFFFFFF DUP4 AND PUSH1 0x0 SWAP1 DUP2 MSTORE PUSH1 0x1 PUSH1 0x20 MSTORE PUSH1 0x40 SWAP1 KECCAK256 SLOAD DUP2 LT ISZERO PUSH2 0x36C2 JUMPI PUSH20 0xFFFFFFFFFFFFFFFFFFFFFFFFFFFFFFFFFFFFFFFF DUP4 AND PUSH1 0x0 SWAP1 DUP2 MSTORE PUSH1 0x1 PUSH1 0x20 MSTORE PUSH1 0x40 SWAP1 KECCAK256 DUP1 SLOAD DUP6 SWAP2 SWAP1 DUP4 SWAP1 DUP2 LT PUSH2 0x368F JUMPI PUSH2 0x368F PUSH2 0x5D87 JUMP JUMPDEST SWAP1 PUSH1 0x0 MSTORE PUSH1 0x20 PUSH1 0x0 KECCAK256 SWAP1 PUSH1 0x2 MUL ADD PUSH1 0x1 ADD SLOAD SUB PUSH2 0x36B0 JUMPI PUSH1 0x1 SWAP2 POP POP PUSH2 0xB41 JUMP JUMPDEST DUP1 PUSH2 0x36BA DUP2 PUSH2 0x5E00 JUMP JUMPDEST SWAP2 POP POP PUSH2 0x3628 JUMP JUMPDEST POP PUSH1 0x0 SWAP4 SWAP3 POP POP POP JUMP JUMPDEST PUSH2 0x36D4 PUSH2 0x40A3 JUMP JUMPDEST PUSH20 0xFFFFFFFFFFFFFFFFFFFFFFFFFFFFFFFFFFFFFFFF DUP2 AND PUSH2 0x3724 JUMPI PUSH1 0x40 MLOAD PUSH32 0x1E4FBDF700000000000000000000000000000000000000000000000000000000 DUP2 MSTORE PUSH1 0x0 PUSH1 0x4 DUP3 ADD MSTORE PUSH1 0x24 ADD PUSH2 0x8C4 JUMP JUMPDEST PUSH2 0x372D DUP2 PUSH2 0x45F8 JUMP JUMPDEST POP JUMP JUMPDEST PUSH1 0x0 PUSH2 0x3785 CALLER DUP7 DUP7 DUP10 DUP8 DUP8 DUP1 DUP1 PUSH1 0x1F ADD PUSH1 0x20 DUP1 SWAP2 DIV MUL PUSH1 0x20 ADD PUSH1 0x40 MLOAD SWAP1 DUP2 ADD PUSH1 0x40 MSTORE DUP1 SWAP4 SWAP3 SWAP2 SWAP1 DUP2 DUP2 MSTORE PUSH1 0x20 ADD DUP4 DUP4 DUP1 DUP3 DUP5 CALLDATACOPY PUSH1 0x0 SWAP3 ADD DUP3 SWAP1 MSTORE POP PUSH1 0x40 DUP1 MLOAD PUSH1 0x20 DUP2 ADD SWAP1 SWAP2 MSTORE SWAP1 DUP2 MSTORE CALLER SWAP4 POP SWAP2 POP PUSH2 0x3BB4 SWAP1 POP JUMP JUMPDEST POP SWAP4 SWAP5 SWAP4 POP POP POP POP JUMP JUMPDEST CALLER PUSH1 0x0 DUP2 DUP2 MSTORE PUSH1 0x4 PUSH1 0x20 SWAP1 DUP2 MSTORE PUSH1 0x40 DUP1 DUP4 KECCAK256 PUSH20 0xFFFFFFFFFFFFFFFFFFFFFFFFFFFFFFFFFFFFFFFF DUP7 AND DUP1 DUP6 MSTORE SWAP3 MSTORE DUP1 DUP4 KECCAK256 DUP1 SLOAD PUSH32 0xFFFFFFFFFFFFFFFFFFFFFFFFFFFFFFFFFFFFFFFFFFFFFFFFFFFFFFFFFFFFFF00 AND SWAP1 SSTORE MLOAD SWAP1 SWAP2 PUSH32 0x50546E66E5F44D728365DC3908C63BC5CFEEAB470722C1677E3073A6AC294AA1 SWAP2 LOG3 POP JUMP JUMPDEST PUSH1 0x0 DUP1 PUSH2 0x381C DUP4 DUP6 PUSH2 0x5F57 JUMP JUMPDEST SWAP1 POP DUP4 DUP2 LT ISZERO PUSH2 0x3830 JUMPI PUSH1 0x0 SWAP2 POP POP PUSH2 0xB41 JUMP JUMPDEST PUSH1 0x1 SWAP2 POP POP PUSH2 0xB41 JUMP JUMPDEST PUSH2 0x3844 DUP7 DUP5 PUSH2 0x493A JUMP JUMPDEST PUSH2 0x384E DUP7 DUP7 PUSH2 0x424A JUMP JUMPDEST PUSH2 0x38B4 JUMPI PUSH1 0x40 MLOAD PUSH32 0x8C379A000000000000000000000000000000000000000000000000000000000 DUP2 MSTORE PUSH1 0x20 PUSH1 0x4 DUP3 ADD MSTORE PUSH1 0x11 PUSH1 0x24 DUP3 ADD MSTORE PUSH32 0x496E76616C696420706172746974696F6E000000000000000000000000000000 PUSH1 0x44 DUP3 ADD MSTORE PUSH1 0x64 ADD PUSH2 0x8C4 JUMP JUMPDEST PUSH20 0xFFFFFFFFFFFFFFFFFFFFFFFFFFFFFFFFFFFFFFFF DUP6 AND PUSH1 0x0 SWAP1 DUP2 MSTORE PUSH1 0x2 PUSH1 0x20 SWAP1 DUP2 MSTORE PUSH1 0x40 DUP1 DUP4 KECCAK256 DUP10 DUP5 MSTORE SWAP1 SWAP2 MSTORE DUP2 KECCAK256 SLOAD PUSH2 0x38F1 SWAP1 PUSH1 0x1 SWAP1 PUSH2 0x5D74 JUMP JUMPDEST PUSH20 0xFFFFFFFFFFFFFFFFFFFFFFFFFFFFFFFFFFFFFFFF DUP8 AND PUSH1 0x0 SWAP1 DUP2 MSTORE PUSH1 0x1 PUSH1 0x20 MSTORE PUSH1 0x40 SWAP1 KECCAK256 DUP1 SLOAD SWAP2 SWAP3 POP DUP6 SWAP2 DUP4 SWAP1 DUP2 LT PUSH2 0x392D JUMPI PUSH2 0x392D PUSH2 0x5D87 JUMP JUMPDEST SWAP1 PUSH1 0x0 MSTORE PUSH1 0x20 PUSH1 0x0 KECCAK256 SWAP1 PUSH1 0x2 MUL ADD PUSH1 0x0 ADD SLOAD LT ISZERO PUSH2 0x39A7 JUMPI PUSH1 0x40 MLOAD PUSH32 0x8C379A000000000000000000000000000000000000000000000000000000000 DUP2 MSTORE PUSH1 0x20 PUSH1 0x4 DUP3 ADD MSTORE PUSH1 0x12 PUSH1 0x24 DUP3 ADD MSTORE PUSH32 0x496E73756666696369656E742076616C75650000000000000000000000000000 PUSH1 0x44 DUP3 ADD MSTORE PUSH1 0x64 ADD PUSH2 0x8C4 JUMP JUMPDEST PUSH2 0x39D1 PUSH32 0x0 DUP8 PUSH2 0x4DF4 JUMP JUMPDEST POP PUSH2 0x3A01 PUSH32 0x0 DUP8 ADDRESS PUSH2 0x21A7 DUP9 PUSH2 0x466D JUMP JUMPDEST POP PUSH2 0x3A2F PUSH32 0x0 PUSH2 0x2EBF DUP7 PUSH2 0x466D JUMP JUMPDEST POP POP PUSH20 0xFFFFFFFFFFFFFFFFFFFFFFFFFFFFFFFFFFFFFFFF DUP7 AND PUSH1 0x0 SWAP1 DUP2 MSTORE PUSH1 0x1 PUSH1 0x20 MSTORE PUSH1 0x40 SWAP1 KECCAK256 DUP1 SLOAD DUP6 SWAP2 SWAP1 DUP4 SWAP1 DUP2 LT PUSH2 0x3A6B JUMPI PUSH2 0x3A6B PUSH2 0x5D87 JUMP JUMPDEST SWAP1 PUSH1 0x0 MSTORE PUSH1 0x20 PUSH1 0x0 KECCAK256 SWAP1 PUSH1 0x2 MUL ADD PUSH1 0x0 ADD SLOAD SUB PUSH2 0x3A92 JUMPI PUSH2 0x3A8D DUP7 DUP9 DUP4 PUSH2 0x4B49 JUMP JUMPDEST PUSH2 0x3B18 JUMP JUMPDEST PUSH20 0xFFFFFFFFFFFFFFFFFFFFFFFFFFFFFFFFFFFFFFFF DUP7 AND PUSH1 0x0 SWAP1 DUP2 MSTORE PUSH1 0x1 PUSH1 0x20 MSTORE PUSH1 0x40 SWAP1 KECCAK256 DUP1 SLOAD PUSH2 0x3ACF SWAP2 DUP7 SWAP2 DUP5 SWAP1 DUP2 LT PUSH2 0x22BC JUMPI PUSH2 0x22BC PUSH2 0x5D87 JUMP JUMPDEST PUSH20 0xFFFFFFFFFFFFFFFFFFFFFFFFFFFFFFFFFFFFFFFF DUP8 AND PUSH1 0x0 SWAP1 DUP2 MSTORE PUSH1 0x1 PUSH1 0x20 MSTORE PUSH1 0x40 SWAP1 KECCAK256 DUP1 SLOAD DUP4 SWAP1 DUP2 LT PUSH2 0x3B06 JUMPI PUSH2 0x3B06 PUSH2 0x5D87 JUMP JUMPDEST PUSH1 0x0 SWAP2 DUP3 MSTORE PUSH1 0x20 SWAP1 SWAP2 KECCAK256 PUSH1 0x2 SWAP1 SWAP2 MUL ADD SSTORE JUMPDEST PUSH2 0x3B42 PUSH32 0x0 DUP8 PUSH2 0x4E50 JUMP JUMPDEST POP DUP6 PUSH20 0xFFFFFFFFFFFFFFFFFFFFFFFFFFFFFFFFFFFFFFFF AND DUP6 PUSH20 0xFFFFFFFFFFFFFFFFFFFFFFFFFFFFFFFFFFFFFFFF AND DUP9 PUSH32 0xCE306C3DBC4A497124B5A4F2BE8388B41084C1D74663DA27ECEE1186C00239BF DUP8 DUP8 PUSH1 0x40 MLOAD PUSH2 0x3BA3 SWAP3 SWAP2 SWAP1 PUSH2 0x558E JUMP JUMPDEST PUSH1 0x40 MLOAD DUP1 SWAP2 SUB SWAP1 LOG4 POP POP POP POP POP POP POP JUMP JUMPDEST PUSH2 0x3BBE DUP5 DUP9 PUSH2 0x424A JUMP JUMPDEST PUSH2 0x3C24 JUMPI PUSH1 0x40 MLOAD PUSH32 0x8C379A000000000000000000000000000000000000000000000000000000000 DUP2 MSTORE PUSH1 0x20 PUSH1 0x4 DUP3 ADD MSTORE PUSH1 0x11 PUSH1 0x24 DUP3 ADD MSTORE PUSH32 0x496E76616C696420706172746974696F6E000000000000000000000000000000 PUSH1 0x44 DUP3 ADD MSTORE PUSH1 0x64 ADD PUSH2 0x8C4 JUMP JUMPDEST PUSH20 0xFFFFFFFFFFFFFFFFFFFFFFFFFFFFFFFFFFFFFFFF DUP8 AND PUSH1 0x0 SWAP1 DUP2 MSTORE PUSH1 0x1 PUSH1 0x20 DUP2 DUP2 MSTORE PUSH1 0x40 DUP1 DUP5 KECCAK256 PUSH1 0x2 DUP4 MSTORE DUP2 DUP6 KECCAK256 DUP10 DUP7 MSTORE SWAP1 SWAP3 MSTORE SWAP1 SWAP3 KECCAK256 SLOAD DUP8 SWAP3 SWAP2 PUSH2 0x3C69 SWAP2 PUSH2 0x5D74 JUMP JUMPDEST DUP2 SLOAD DUP2 LT PUSH2 0x3C79 JUMPI PUSH2 0x3C79 PUSH2 0x5D87 JUMP JUMPDEST SWAP1 PUSH1 0x0 MSTORE PUSH1 0x20 PUSH1 0x0 KECCAK256 SWAP1 PUSH1 0x2 MUL ADD PUSH1 0x0 ADD SLOAD LT ISZERO PUSH2 0x3CF3 JUMPI PUSH1 0x40 MLOAD PUSH32 0x8C379A000000000000000000000000000000000000000000000000000000000 DUP2 MSTORE PUSH1 0x20 PUSH1 0x4 DUP3 ADD MSTORE PUSH1 0x14 PUSH1 0x24 DUP3 ADD MSTORE PUSH32 0x496E73756666696369656E742062616C616E6365000000000000000000000000 PUSH1 0x44 DUP3 ADD MSTORE PUSH1 0x64 ADD PUSH2 0x8C4 JUMP JUMPDEST PUSH20 0xFFFFFFFFFFFFFFFFFFFFFFFFFFFFFFFFFFFFFFFF DUP7 AND PUSH2 0x3D70 JUMPI PUSH1 0x40 MLOAD PUSH32 0x8C379A000000000000000000000000000000000000000000000000000000000 DUP2 MSTORE PUSH1 0x20 PUSH1 0x4 DUP3 ADD MSTORE PUSH1 0x16 PUSH1 0x24 DUP3 ADD MSTORE PUSH32 0x30782061646472657373206E6F7420616C6C6F77656400000000000000000000 PUSH1 0x44 DUP3 ADD MSTORE PUSH1 0x64 ADD PUSH2 0x8C4 JUMP JUMPDEST PUSH20 0xFFFFFFFFFFFFFFFFFFFFFFFFFFFFFFFFFFFFFFFF DUP8 AND PUSH1 0x0 SWAP1 DUP2 MSTORE PUSH1 0x2 PUSH1 0x20 SWAP1 DUP2 MSTORE PUSH1 0x40 DUP1 DUP4 KECCAK256 DUP8 DUP5 MSTORE SWAP1 SWAP2 MSTORE DUP2 KECCAK256 SLOAD PUSH2 0x3DAD SWAP1 PUSH1 0x1 SWAP1 PUSH2 0x5D74 JUMP JUMPDEST SWAP1 POP PUSH2 0x3DD9 PUSH32 0x0 DUP10 PUSH2 0x4DF4 JUMP JUMPDEST POP PUSH2 0x3E09 PUSH32 0x0 DUP10 DUP10 PUSH2 0x21A7 DUP11 PUSH2 0x466D JUMP JUMPDEST POP PUSH2 0x3E14 DUP6 DUP9 PUSH2 0x3624 JUMP JUMPDEST PUSH2 0x3E86 JUMPI PUSH20 0xFFFFFFFFFFFFFFFFFFFFFFFFFFFFFFFFFFFFFFFF DUP8 AND PUSH1 0x0 DUP2 DUP2 MSTORE PUSH1 0x1 PUSH1 0x20 DUP2 DUP2 MSTORE PUSH1 0x40 DUP1 DUP5 KECCAK256 DUP2 MLOAD DUP1 DUP4 ADD DUP4 MSTORE DUP6 DUP2 MSTORE DUP1 DUP5 ADD DUP13 DUP2 MSTORE DUP3 SLOAD DUP1 DUP8 ADD DUP5 SSTORE DUP4 DUP9 MSTORE DUP6 DUP9 KECCAK256 SWAP3 MLOAD PUSH1 0x2 SWAP2 DUP3 MUL SWAP1 SWAP4 ADD SWAP3 DUP4 SSTORE SWAP1 MLOAD SWAP2 SWAP1 SWAP6 ADD SSTORE SWAP5 DUP5 MSTORE SWAP4 SLOAD SWAP2 DUP2 MSTORE DUP4 DUP4 KECCAK256 DUP10 DUP5 MSTORE SWAP1 MSTORE SWAP2 SWAP1 KECCAK256 SSTORE JUMPDEST PUSH20 0xFFFFFFFFFFFFFFFFFFFFFFFFFFFFFFFFFFFFFFFF DUP8 AND PUSH1 0x0 SWAP1 DUP2 MSTORE PUSH1 0x2 PUSH1 0x20 SWAP1 DUP2 MSTORE PUSH1 0x40 DUP1 DUP4 KECCAK256 DUP9 DUP5 MSTORE SWAP1 SWAP2 MSTORE DUP2 KECCAK256 SLOAD PUSH2 0x3EC3 SWAP1 PUSH1 0x1 SWAP1 PUSH2 0x5D74 JUMP JUMPDEST SWAP1 POP PUSH2 0x3F19 DUP8 PUSH1 0x1 PUSH1 0x0 DUP13 PUSH20 0xFFFFFFFFFFFFFFFFFFFFFFFFFFFFFFFFFFFFFFFF AND PUSH20 0xFFFFFFFFFFFFFFFFFFFFFFFFFFFFFFFFFFFFFFFF AND DUP2 MSTORE PUSH1 0x20 ADD SWAP1 DUP2 MSTORE PUSH1 0x20 ADD PUSH1 0x0 KECCAK256 DUP5 DUP2 SLOAD DUP2 LT PUSH2 0x22BC JUMPI PUSH2 0x22BC PUSH2 0x5D87 JUMP JUMPDEST PUSH20 0xFFFFFFFFFFFFFFFFFFFFFFFFFFFFFFFFFFFFFFFF DUP11 AND PUSH1 0x0 SWAP1 DUP2 MSTORE PUSH1 0x1 PUSH1 0x20 MSTORE PUSH1 0x40 SWAP1 KECCAK256 DUP1 SLOAD DUP5 SWAP1 DUP2 LT PUSH2 0x3F50 JUMPI PUSH2 0x3F50 PUSH2 0x5D87 JUMP JUMPDEST SWAP1 PUSH1 0x0 MSTORE PUSH1 0x20 PUSH1 0x0 KECCAK256 SWAP1 PUSH1 0x2 MUL ADD PUSH1 0x0 ADD DUP2 SWAP1 SSTORE POP PUSH2 0x3FB9 DUP8 PUSH1 0x1 PUSH1 0x0 DUP12 PUSH20 0xFFFFFFFFFFFFFFFFFFFFFFFFFFFFFFFFFFFFFFFF AND PUSH20 0xFFFFFFFFFFFFFFFFFFFFFFFFFFFFFFFFFFFFFFFF AND DUP2 MSTORE PUSH1 0x20 ADD SWAP1 DUP2 MSTORE PUSH1 0x20 ADD PUSH1 0x0 KECCAK256 DUP4 DUP2 SLOAD DUP2 LT PUSH2 0x2373 JUMPI PUSH2 0x2373 PUSH2 0x5D87 JUMP JUMPDEST PUSH20 0xFFFFFFFFFFFFFFFFFFFFFFFFFFFFFFFFFFFFFFFF DUP10 AND PUSH1 0x0 SWAP1 DUP2 MSTORE PUSH1 0x1 PUSH1 0x20 MSTORE PUSH1 0x40 SWAP1 KECCAK256 DUP1 SLOAD DUP4 SWAP1 DUP2 LT PUSH2 0x3FF0 JUMPI PUSH2 0x3FF0 PUSH2 0x5D87 JUMP JUMPDEST PUSH1 0x0 SWAP2 DUP3 MSTORE PUSH1 0x20 SWAP1 SWAP2 KECCAK256 PUSH1 0x2 SWAP1 SWAP2 MUL ADD SSTORE PUSH2 0x402B PUSH32 0x0 DUP11 PUSH2 0x4E50 JUMP JUMPDEST POP DUP8 PUSH20 0xFFFFFFFFFFFFFFFFFFFFFFFFFFFFFFFFFFFFFFFF AND DUP10 PUSH20 0xFFFFFFFFFFFFFFFFFFFFFFFFFFFFFFFFFFFFFFFF AND DUP8 PUSH32 0xFF4E9A26AF4EB73B8BACFAA4ABD4FEA03D9448E7B912DC5FF4019048875AA2D4 DUP8 DUP12 DUP11 DUP10 PUSH1 0x40 MLOAD PUSH2 0x4090 SWAP5 SWAP4 SWAP3 SWAP2 SWAP1 PUSH2 0x601C JUMP JUMPDEST PUSH1 0x40 MLOAD DUP1 SWAP2 SUB SWAP1 LOG4 POP POP POP POP POP POP POP POP POP JUMP JUMPDEST PUSH1 0x0 SLOAD PUSH20 0xFFFFFFFFFFFFFFFFFFFFFFFFFFFFFFFFFFFFFFFF AND CALLER EQ PUSH2 0x1B71 JUMPI PUSH1 0x40 MLOAD PUSH32 0x118CDAA700000000000000000000000000000000000000000000000000000000 DUP2 MSTORE CALLER PUSH1 0x4 DUP3 ADD MSTORE PUSH1 0x24 ADD PUSH2 0x8C4 JUMP JUMPDEST PUSH1 0x40 MLOAD PUSH20 0xFFFFFFFFFFFFFFFFFFFFFFFFFFFFFFFFFFFFFFFF DUP4 DUP2 AND PUSH1 0x24 DUP4 ADD MSTORE DUP3 AND PUSH1 0x44 DUP3 ADD MSTORE PUSH1 0x0 SWAP1 DUP2 SWAP1 DUP2 SWAP1 PUSH2 0x167 SWAP1 PUSH32 0xAF99C63300000000000000000000000000000000000000000000000000000000 SWAP1 PUSH1 0x64 ADD JUMPDEST PUSH1 0x40 DUP1 MLOAD PUSH32 0xFFFFFFFFFFFFFFFFFFFFFFFFFFFFFFFFFFFFFFFFFFFFFFFFFFFFFFFFFFFFFFE0 DUP2 DUP5 SUB ADD DUP2 MSTORE SWAP2 DUP2 MSTORE PUSH1 0x20 DUP3 ADD DUP1 MLOAD PUSH28 0xFFFFFFFFFFFFFFFFFFFFFFFFFFFFFFFFFFFFFFFFFFFFFFFFFFFFFFFF AND PUSH32 0xFFFFFFFF00000000000000000000000000000000000000000000000000000000 SWAP1 SWAP5 AND SWAP4 SWAP1 SWAP4 OR SWAP1 SWAP3 MSTORE SWAP1 MLOAD PUSH2 0x41D7 SWAP2 SWAP1 PUSH2 0x5CFC JUMP JUMPDEST PUSH1 0x0 PUSH1 0x40 MLOAD DUP1 DUP4 SUB DUP2 PUSH1 0x0 DUP7 GAS CALL SWAP2 POP POP RETURNDATASIZE DUP1 PUSH1 0x0 DUP2 EQ PUSH2 0x4214 JUMPI PUSH1 0x40 MLOAD SWAP2 POP PUSH1 0x1F NOT PUSH1 0x3F RETURNDATASIZE ADD AND DUP3 ADD PUSH1 0x40 MSTORE RETURNDATASIZE DUP3 MSTORE RETURNDATASIZE PUSH1 0x0 PUSH1 0x20 DUP5 ADD RETURNDATACOPY PUSH2 0x4219 JUMP JUMPDEST PUSH1 0x60 SWAP2 POP JUMPDEST POP SWAP2 POP SWAP2 POP DUP2 PUSH2 0x422A JUMPI PUSH1 0x15 PUSH2 0x423E JUMP JUMPDEST DUP1 DUP1 PUSH1 0x20 ADD SWAP1 MLOAD DUP2 ADD SWAP1 PUSH2 0x423E SWAP2 SWAP1 PUSH2 0x5D2A JUMP JUMPDEST PUSH1 0x3 SIGNEXTEND SWAP6 SWAP5 POP POP POP POP POP JUMP JUMPDEST PUSH20 0xFFFFFFFFFFFFFFFFFFFFFFFFFFFFFFFFFFFFFFFF DUP2 AND PUSH1 0x0 DUP2 DUP2 MSTORE PUSH1 0x2 PUSH1 0x20 SWAP1 DUP2 MSTORE PUSH1 0x40 DUP1 DUP4 KECCAK256 DUP7 DUP5 MSTORE DUP3 MSTORE DUP1 DUP4 KECCAK256 SLOAD SWAP4 DUP4 MSTORE PUSH1 0x1 SWAP1 SWAP2 MSTORE DUP2 KECCAK256 SLOAD SWAP1 SWAP2 GT DUP1 PUSH2 0x42C2 JUMPI POP PUSH20 0xFFFFFFFFFFFFFFFFFFFFFFFFFFFFFFFFFFFFFFFF DUP3 AND PUSH1 0x0 SWAP1 DUP2 MSTORE PUSH1 0x2 PUSH1 0x20 SWAP1 DUP2 MSTORE PUSH1 0x40 DUP1 DUP4 KECCAK256 DUP7 DUP5 MSTORE SWAP1 SWAP2 MSTORE SWAP1 KECCAK256 SLOAD ISZERO JUMPDEST ISZERO PUSH2 0x42CF JUMPI POP PUSH1 0x0 PUSH2 0xB41 JUMP JUMPDEST POP PUSH1 0x1 PUSH2 0xB41 JUMP JUMPDEST PUSH1 0x9 SLOAD PUSH1 0x0 SWAP1 PUSH20 0xFFFFFFFFFFFFFFFFFFFFFFFFFFFFFFFFFFFFFFFF AND PUSH2 0x42FD JUMPI POP PUSH1 0x0 SWAP1 JUMP JUMPDEST POP PUSH1 0x1 SWAP1 JUMP JUMPDEST PUSH1 0x0 DUP1 PUSH1 0x0 PUSH2 0x167 PUSH20 0xFFFFFFFFFFFFFFFFFFFFFFFFFFFFFFFFFFFFFFFF AND PUSH4 0x6FC3CBAF PUSH1 0xE0 SHL DUP7 DUP7 PUSH1 0x40 MLOAD PUSH1 0x24 ADD PUSH2 0x414E SWAP3 SWAP2 SWAP1 PUSH2 0x606E JUMP JUMPDEST PUSH2 0x4346 DUP6 DUP5 PUSH2 0x493A JUMP JUMPDEST PUSH20 0xFFFFFFFFFFFFFFFFFFFFFFFFFFFFFFFFFFFFFFFF DUP5 AND PUSH2 0x43C3 JUMPI PUSH1 0x40 MLOAD PUSH32 0x8C379A000000000000000000000000000000000000000000000000000000000 DUP2 MSTORE PUSH1 0x20 PUSH1 0x4 DUP3 ADD MSTORE PUSH1 0x16 PUSH1 0x24 DUP3 ADD MSTORE PUSH32 0x496E76616C696420746F6B656E20726563656976657200000000000000000000 PUSH1 0x44 DUP3 ADD MSTORE PUSH1 0x64 ADD PUSH2 0x8C4 JUMP JUMPDEST PUSH2 0x4421 PUSH32 0x0 PUSH2 0x43F0 DUP6 PUSH2 0x466D JUMP JUMPDEST PUSH1 0x40 DUP1 MLOAD PUSH1 0x0 DUP1 DUP3 MSTORE PUSH1 0x20 DUP3 ADD SWAP1 SWAP3 MSTORE SWAP1 PUSH2 0x441B JUMP JUMPDEST PUSH1 0x60 DUP2 MSTORE PUSH1 0x20 ADD SWAP1 PUSH1 0x1 SWAP1 SUB SWAP1 DUP2 PUSH2 0x4406 JUMPI SWAP1 POP JUMPDEST POP PUSH2 0x4EAC JUMP JUMPDEST POP POP POP PUSH2 0x4453 PUSH32 0x0 ADDRESS DUP7 PUSH2 0x21A7 DUP8 PUSH2 0x466D JUMP JUMPDEST POP PUSH20 0xFFFFFFFFFFFFFFFFFFFFFFFFFFFFFFFFFFFFFFFF DUP5 AND PUSH1 0x0 SWAP1 DUP2 MSTORE PUSH1 0x2 PUSH1 0x20 SWAP1 DUP2 MSTORE PUSH1 0x40 DUP1 DUP4 KECCAK256 DUP9 DUP5 MSTORE SWAP1 SWAP2 MSTORE DUP2 KECCAK256 SLOAD SWAP1 DUP2 SWAP1 SUB PUSH2 0x44FF JUMPI PUSH20 0xFFFFFFFFFFFFFFFFFFFFFFFFFFFFFFFFFFFFFFFF DUP6 AND PUSH1 0x0 DUP2 DUP2 MSTORE PUSH1 0x1 PUSH1 0x20 DUP2 DUP2 MSTORE PUSH1 0x40 DUP1 DUP5 KECCAK256 DUP2 MLOAD DUP1 DUP4 ADD DUP4 MSTORE DUP11 DUP2 MSTORE DUP1 DUP5 ADD DUP14 DUP2 MSTORE DUP3 SLOAD DUP1 DUP8 ADD DUP5 SSTORE DUP4 DUP9 MSTORE DUP6 DUP9 KECCAK256 SWAP3 MLOAD PUSH1 0x2 SWAP2 DUP3 MUL SWAP1 SWAP4 ADD SWAP3 DUP4 SSTORE SWAP1 MLOAD SWAP2 SWAP1 SWAP6 ADD SSTORE SWAP5 DUP5 MSTORE SWAP4 SLOAD SWAP2 DUP2 MSTORE DUP4 DUP4 KECCAK256 DUP11 DUP5 MSTORE SWAP1 MSTORE SWAP2 SWAP1 KECCAK256 SSTORE PUSH2 0x459D JUMP JUMPDEST PUSH20 0xFFFFFFFFFFFFFFFFFFFFFFFFFFFFFFFFFFFFFFFF DUP6 AND PUSH1 0x0 SWAP1 DUP2 MSTORE PUSH1 0x1 PUSH1 0x20 DUP2 SWAP1 MSTORE PUSH1 0x40 SWAP1 SWAP2 KECCAK256 PUSH2 0x4548 SWAP2 DUP7 SWAP2 SWAP1 PUSH2 0x4538 SWAP1 DUP6 PUSH2 0x5D74 JUMP JUMPDEST DUP2 SLOAD DUP2 LT PUSH2 0x2373 JUMPI PUSH2 0x2373 PUSH2 0x5D87 JUMP JUMPDEST PUSH20 0xFFFFFFFFFFFFFFFFFFFFFFFFFFFFFFFFFFFFFFFF DUP7 AND PUSH1 0x0 SWAP1 DUP2 MSTORE PUSH1 0x1 PUSH1 0x20 DUP2 SWAP1 MSTORE PUSH1 0x40 SWAP1 SWAP2 KECCAK256 SWAP1 PUSH2 0x457B SWAP1 DUP5 PUSH2 0x5D74 JUMP JUMPDEST DUP2 SLOAD DUP2 LT PUSH2 0x458B JUMPI PUSH2 0x458B PUSH2 0x5D87 JUMP JUMPDEST PUSH1 0x0 SWAP2 DUP3 MSTORE PUSH1 0x20 SWAP1 SWAP2 KECCAK256 PUSH1 0x2 SWAP1 SWAP2 MUL ADD SSTORE JUMPDEST DUP5 PUSH20 0xFFFFFFFFFFFFFFFFFFFFFFFFFFFFFFFFFFFFFFFF AND DUP7 PUSH32 0x6032E2468B0F94DFA63C61D6C8A84842A99C049263EAE408A52B945020B6578D DUP7 DUP7 DUP7 PUSH1 0x40 MLOAD PUSH2 0x45E8 SWAP4 SWAP3 SWAP2 SWAP1 PUSH2 0x5EDE JUMP JUMPDEST PUSH1 0x40 MLOAD DUP1 SWAP2 SUB SWAP1 LOG3 POP POP POP POP POP POP JUMP JUMPDEST PUSH1 0x0 DUP1 SLOAD PUSH20 0xFFFFFFFFFFFFFFFFFFFFFFFFFFFFFFFFFFFFFFFF DUP4 DUP2 AND PUSH32 0xFFFFFFFFFFFFFFFFFFFFFFFF0000000000000000000000000000000000000000 DUP4 AND DUP2 OR DUP5 SSTORE PUSH1 0x40 MLOAD SWAP2 SWAP1 SWAP3 AND SWAP3 DUP4 SWAP2 PUSH32 0x8BE0079C531659141344CD1FD0A4F28419497F9722A3DAAFE3B4186F6B6457E0 SWAP2 SWAP1 LOG3 POP POP JUMP JUMPDEST PUSH1 0x0 PUSH8 0xFFFFFFFFFFFFFFFF DUP3 GT ISZERO PUSH2 0x4707 JUMPI PUSH1 0x40 MLOAD PUSH32 0x8C379A000000000000000000000000000000000000000000000000000000000 DUP2 MSTORE PUSH1 0x20 PUSH1 0x4 DUP3 ADD MSTORE PUSH1 0x26 PUSH1 0x24 DUP3 ADD MSTORE PUSH32 0x53616665436173743A2076616C756520646F65736E27742066697420696E2036 PUSH1 0x44 DUP3 ADD MSTORE PUSH32 0x3420626974730000000000000000000000000000000000000000000000000000 PUSH1 0x64 DUP3 ADD MSTORE PUSH1 0x84 ADD PUSH2 0x8C4 JUMP JUMPDEST POP SWAP1 JUMP JUMPDEST PUSH1 0x40 DUP1 MLOAD PUSH20 0xFFFFFFFFFFFFFFFFFFFFFFFFFFFFFFFFFFFFFFFF DUP6 DUP2 AND PUSH1 0x24 DUP4 ADD MSTORE DUP5 AND PUSH1 0x44 DUP3 ADD MSTORE PUSH1 0x7 DUP4 SWAP1 SIGNEXTEND PUSH1 0x64 DUP1 DUP4 ADD SWAP2 SWAP1 SWAP2 MSTORE DUP3 MLOAD DUP1 DUP4 SUB SWAP1 SWAP2 ADD DUP2 MSTORE PUSH1 0x84 SWAP1 SWAP2 ADD DUP3 MSTORE PUSH1 0x20 DUP2 ADD DUP1 MLOAD PUSH28 0xFFFFFFFFFFFFFFFFFFFFFFFFFFFFFFFFFFFFFFFFFFFFFFFFFFFFFFFF AND PUSH32 0xEFEF57F900000000000000000000000000000000000000000000000000000000 OR SWAP1 MSTORE SWAP1 MLOAD PUSH1 0x0 SWAP2 DUP3 SWAP2 DUP3 SWAP2 PUSH2 0x167 SWAP2 PUSH2 0x47B1 SWAP2 SWAP1 PUSH2 0x5CFC JUMP JUMPDEST PUSH1 0x0 PUSH1 0x40 MLOAD DUP1 DUP4 SUB DUP2 PUSH1 0x0 DUP7 GAS CALL SWAP2 POP POP RETURNDATASIZE DUP1 PUSH1 0x0 DUP2 EQ PUSH2 0x47EE JUMPI PUSH1 0x40 MLOAD SWAP2 POP PUSH1 0x1F NOT PUSH1 0x3F RETURNDATASIZE ADD AND DUP3 ADD PUSH1 0x40 MSTORE RETURNDATASIZE DUP3 MSTORE RETURNDATASIZE PUSH1 0x0 PUSH1 0x20 DUP5 ADD RETURNDATACOPY PUSH2 0x47F3 JUMP JUMPDEST PUSH1 0x60 SWAP2 POP JUMPDEST POP SWAP2 POP SWAP2 POP DUP2 PUSH2 0x4804 JUMPI PUSH1 0x15 PUSH2 0x4818 JUMP JUMPDEST DUP1 DUP1 PUSH1 0x20 ADD SWAP1 MLOAD DUP2 ADD SWAP1 PUSH2 0x4818 SWAP2 SWAP1 PUSH2 0x5D2A JUMP JUMPDEST PUSH1 0x3 SIGNEXTEND SWAP7 SWAP6 POP POP POP POP POP POP JUMP JUMPDEST PUSH1 0x40 MLOAD PUSH20 0xFFFFFFFFFFFFFFFFFFFFFFFFFFFFFFFFFFFFFFFF DUP6 DUP2 AND PUSH1 0x24 DUP4 ADD MSTORE DUP5 DUP2 AND PUSH1 0x44 DUP4 ADD MSTORE DUP4 AND PUSH1 0x64 DUP3 ADD MSTORE PUSH1 0x7 DUP3 SWAP1 SIGNEXTEND PUSH1 0x84 DUP3 ADD MSTORE PUSH1 0x0 SWAP1 DUP2 SWAP1 DUP2 SWAP1 PUSH2 0x167 SWAP1 PUSH32 0xECA3691700000000000000000000000000000000000000000000000000000000 SWAP1 PUSH1 0xA4 ADD PUSH2 0x1161 JUMP JUMPDEST PUSH1 0x0 DUP3 DUP3 GT ISZERO PUSH2 0x48A5 JUMPI PUSH2 0x48A5 PUSH2 0x618C JUMP JUMPDEST PUSH2 0xB3E DUP3 DUP5 PUSH2 0x5D74 JUMP JUMPDEST PUSH1 0x0 PUSH2 0x48BB DUP3 DUP5 PUSH2 0x5F57 JUMP JUMPDEST SWAP1 POP DUP3 DUP2 LT ISZERO PUSH2 0xB41 JUMPI PUSH2 0xB41 PUSH2 0x618C JUMP JUMPDEST PUSH1 0x0 DUP3 DUP3 GT PUSH2 0x1807 JUMPI POP PUSH1 0x1 PUSH2 0xB41 JUMP JUMPDEST PUSH1 0x40 MLOAD PUSH20 0xFFFFFFFFFFFFFFFFFFFFFFFFFFFFFFFFFFFFFFFF DUP4 DUP2 AND PUSH1 0x24 DUP4 ADD MSTORE DUP3 AND PUSH1 0x44 DUP3 ADD MSTORE PUSH1 0x0 SWAP1 DUP2 SWAP1 DUP2 SWAP1 PUSH2 0x167 SWAP1 PUSH32 0x8F8D7F9900000000000000000000000000000000000000000000000000000000 SWAP1 PUSH1 0x64 ADD PUSH2 0x414E JUMP JUMPDEST DUP1 PUSH2 0x49A1 JUMPI PUSH1 0x40 MLOAD PUSH32 0x8C379A000000000000000000000000000000000000000000000000000000000 DUP2 MSTORE PUSH1 0x20 PUSH1 0x4 DUP3 ADD MSTORE PUSH1 0x16 PUSH1 0x24 DUP3 ADD MSTORE PUSH32 0x5A65726F2076616C7565206E6F7420616C6C6F77656400000000000000000000 PUSH1 0x44 DUP3 ADD MSTORE PUSH1 0x64 ADD PUSH2 0x8C4 JUMP JUMPDEST DUP2 PUSH2 0x1D62 JUMPI PUSH1 0x40 MLOAD PUSH32 0x8C379A000000000000000000000000000000000000000000000000000000000 DUP2 MSTORE PUSH1 0x20 PUSH1 0x4 DUP3 ADD MSTORE PUSH1 0x11 PUSH1 0x24 DUP3 ADD MSTORE PUSH32 0x496E76616C696420706172746974696F6E000000000000000000000000000000 PUSH1 0x44 DUP3 ADD MSTORE PUSH1 0x64 ADD PUSH2 0x8C4 JUMP JUMPDEST PUSH1 0x0 DUP1 PUSH1 0x0 DUP1 PUSH2 0x167 PUSH20 0xFFFFFFFFFFFFFFFFFFFFFFFFFFFFFFFFFFFFFFFF AND PUSH4 0xD6910D06 PUSH1 0xE0 SHL DUP9 DUP9 DUP9 PUSH1 0x40 MLOAD PUSH1 0x24 ADD PUSH2 0x4A44 SWAP4 SWAP3 SWAP2 SWAP1 PUSH2 0x61BB JUMP JUMPDEST PUSH1 0x40 DUP1 MLOAD PUSH32 0xFFFFFFFFFFFFFFFFFFFFFFFFFFFFFFFFFFFFFFFFFFFFFFFFFFFFFFFFFFFFFFE0 DUP2 DUP5 SUB ADD DUP2 MSTORE SWAP2 DUP2 MSTORE PUSH1 0x20 DUP3 ADD DUP1 MLOAD PUSH28 0xFFFFFFFFFFFFFFFFFFFFFFFFFFFFFFFFFFFFFFFFFFFFFFFFFFFFFFFF AND PUSH32 0xFFFFFFFF00000000000000000000000000000000000000000000000000000000 SWAP1 SWAP5 AND SWAP4 SWAP1 SWAP4 OR SWAP1 SWAP3 MSTORE SWAP1 MLOAD PUSH2 0x4ACD SWAP2 SWAP1 PUSH2 0x5CFC JUMP JUMPDEST PUSH1 0x0 PUSH1 0x40 MLOAD DUP1 DUP4 SUB DUP2 PUSH1 0x0 DUP7 GAS CALL SWAP2 POP POP RETURNDATASIZE DUP1 PUSH1 0x0 DUP2 EQ PUSH2 0x4B0A JUMPI PUSH1 0x40 MLOAD SWAP2 POP PUSH1 0x1F NOT PUSH1 0x3F RETURNDATASIZE ADD AND DUP3 ADD PUSH1 0x40 MSTORE RETURNDATASIZE DUP3 MSTORE RETURNDATASIZE PUSH1 0x0 PUSH1 0x20 DUP5 ADD RETURNDATACOPY PUSH2 0x4B0F JUMP JUMPDEST PUSH1 0x60 SWAP2 POP JUMPDEST POP SWAP2 POP SWAP2 POP DUP2 PUSH2 0x4B22 JUMPI PUSH1 0x15 PUSH1 0x0 PUSH2 0x4B36 JUMP JUMPDEST DUP1 DUP1 PUSH1 0x20 ADD SWAP1 MLOAD DUP2 ADD SWAP1 PUSH2 0x4B36 SWAP2 SWAP1 PUSH2 0x623F JUMP JUMPDEST PUSH1 0x3 SWAP2 SWAP1 SWAP2 SIGNEXTEND SWAP9 SWAP1 SWAP8 POP SWAP6 POP POP POP POP POP POP JUMP JUMPDEST PUSH20 0xFFFFFFFFFFFFFFFFFFFFFFFFFFFFFFFFFFFFFFFF DUP4 AND PUSH1 0x0 SWAP1 DUP2 MSTORE PUSH1 0x1 PUSH1 0x20 DUP2 SWAP1 MSTORE PUSH1 0x40 SWAP1 SWAP2 KECCAK256 SLOAD PUSH2 0x4B7C SWAP2 SWAP1 PUSH2 0x5D74 JUMP JUMPDEST DUP2 EQ PUSH2 0x4CB8 JUMPI PUSH20 0xFFFFFFFFFFFFFFFFFFFFFFFFFFFFFFFFFFFFFFFF DUP4 AND PUSH1 0x0 SWAP1 DUP2 MSTORE PUSH1 0x1 PUSH1 0x20 DUP2 SWAP1 MSTORE PUSH1 0x40 SWAP1 SWAP2 KECCAK256 DUP1 SLOAD SWAP1 SWAP2 PUSH2 0x4BB7 SWAP2 PUSH2 0x5D74 JUMP JUMPDEST DUP2 SLOAD DUP2 LT PUSH2 0x4BC7 JUMPI PUSH2 0x4BC7 PUSH2 0x5D87 JUMP JUMPDEST SWAP1 PUSH1 0x0 MSTORE PUSH1 0x20 PUSH1 0x0 KECCAK256 SWAP1 PUSH1 0x2 MUL ADD PUSH1 0x1 PUSH1 0x0 DUP6 PUSH20 0xFFFFFFFFFFFFFFFFFFFFFFFFFFFFFFFFFFFFFFFF AND PUSH20 0xFFFFFFFFFFFFFFFFFFFFFFFFFFFFFFFFFFFFFFFF AND DUP2 MSTORE PUSH1 0x20 ADD SWAP1 DUP2 MSTORE PUSH1 0x20 ADD PUSH1 0x0 KECCAK256 DUP3 DUP2 SLOAD DUP2 LT PUSH2 0x4C25 JUMPI PUSH2 0x4C25 PUSH2 0x5D87 JUMP JUMPDEST PUSH1 0x0 SWAP2 DUP3 MSTORE PUSH1 0x20 SWAP1 SWAP2 KECCAK256 DUP3 SLOAD PUSH1 0x2 SWAP1 SWAP3 MUL ADD SWAP1 DUP2 SSTORE PUSH1 0x1 SWAP2 DUP3 ADD SLOAD SWAP1 DUP3 ADD SSTORE PUSH2 0x4C4F SWAP1 DUP3 SWAP1 PUSH2 0x5F57 JUMP JUMPDEST PUSH20 0xFFFFFFFFFFFFFFFFFFFFFFFFFFFFFFFFFFFFFFFF DUP5 AND PUSH1 0x0 SWAP1 DUP2 MSTORE PUSH1 0x2 PUSH1 0x20 SWAP1 DUP2 MSTORE PUSH1 0x40 DUP1 DUP4 KECCAK256 PUSH1 0x1 SWAP1 SWAP3 MSTORE DUP3 KECCAK256 DUP1 SLOAD SWAP2 SWAP3 SWAP2 DUP6 SWAP1 DUP2 LT PUSH2 0x4C93 JUMPI PUSH2 0x4C93 PUSH2 0x5D87 JUMP JUMPDEST SWAP1 PUSH1 0x0 MSTORE PUSH1 0x20 PUSH1 0x0 KECCAK256 SWAP1 PUSH1 0x2 MUL ADD PUSH1 0x1 ADD SLOAD DUP2 MSTORE PUSH1 0x20 ADD SWAP1 DUP2 MSTORE PUSH1 0x20 ADD PUSH1 0x0 KECCAK256 DUP2 SWAP1 SSTORE POP JUMPDEST POP PUSH20 0xFFFFFFFFFFFFFFFFFFFFFFFFFFFFFFFFFFFFFFFF SWAP1 SWAP2 AND PUSH1 0x0 SWAP1 DUP2 MSTORE PUSH1 0x2 PUSH1 0x20 SWAP1 DUP2 MSTORE PUSH1 0x40 DUP1 DUP4 KECCAK256 SWAP4 DUP4 MSTORE SWAP3 SWAP1 MSTORE SWAP1 DUP2 KECCAK256 SSTORE JUMP JUMPDEST PUSH1 0x40 DUP1 MLOAD PUSH20 0xFFFFFFFFFFFFFFFFFFFFFFFFFFFFFFFFFFFFFFFF DUP4 AND PUSH1 0x24 DUP1 DUP4 ADD SWAP2 SWAP1 SWAP2 MSTORE DUP3 MLOAD DUP1 DUP4 SUB SWAP1 SWAP2 ADD DUP2 MSTORE PUSH1 0x44 SWAP1 SWAP2 ADD DUP3 MSTORE PUSH1 0x20 DUP2 ADD DUP1 MLOAD PUSH28 0xFFFFFFFFFFFFFFFFFFFFFFFFFFFFFFFFFFFFFFFFFFFFFFFFFFFFFFFF AND PUSH32 0x7C41AD2C00000000000000000000000000000000000000000000000000000000 OR SWAP1 MSTORE SWAP1 MLOAD PUSH1 0x0 SWAP2 DUP3 SWAP2 DUP3 SWAP2 PUSH2 0x167 SWAP2 PUSH2 0x4D82 SWAP2 SWAP1 PUSH2 0x5CFC JUMP JUMPDEST PUSH1 0x0 PUSH1 0x40 MLOAD DUP1 DUP4 SUB DUP2 PUSH1 0x0 DUP7 GAS CALL SWAP2 POP POP RETURNDATASIZE DUP1 PUSH1 0x0 DUP2 EQ PUSH2 0x4DBF JUMPI PUSH1 0x40 MLOAD SWAP2 POP PUSH1 0x1F NOT PUSH1 0x3F RETURNDATASIZE ADD AND DUP3 ADD PUSH1 0x40 MSTORE RETURNDATASIZE DUP3 MSTORE RETURNDATASIZE PUSH1 0x0 PUSH1 0x20 DUP5 ADD RETURNDATACOPY PUSH2 0x4DC4 JUMP JUMPDEST PUSH1 0x60 SWAP2 POP JUMPDEST POP SWAP2 POP SWAP2 POP DUP2 PUSH2 0x4DD5 JUMPI PUSH1 0x15 PUSH2 0x4DE9 JUMP JUMPDEST DUP1 DUP1 PUSH1 0x20 ADD SWAP1 MLOAD DUP2 ADD SWAP1 PUSH2 0x4DE9 SWAP2 SWAP1 PUSH2 0x5D2A JUMP JUMPDEST PUSH1 0x3 SIGNEXTEND SWAP5 SWAP4 POP POP POP POP JUMP JUMPDEST PUSH1 0x40 MLOAD PUSH20 0xFFFFFFFFFFFFFFFFFFFFFFFFFFFFFFFFFFFFFFFF DUP4 DUP2 AND PUSH1 0x24 DUP4 ADD MSTORE DUP3 AND PUSH1 0x44 DUP3 ADD MSTORE PUSH1 0x0 SWAP1 DUP2 SWAP1 DUP2 SWAP1 PUSH2 0x167 SWAP1 PUSH32 0x52F9138700000000000000000000000000000000000000000000000000000000 SWAP1 PUSH1 0x64 ADD PUSH2 0x414E JUMP JUMPDEST PUSH1 0x40 MLOAD PUSH20 0xFFFFFFFFFFFFFFFFFFFFFFFFFFFFFFFFFFFFFFFF DUP4 DUP2 AND PUSH1 0x24 DUP4 ADD MSTORE DUP3 AND PUSH1 0x44 DUP3 ADD MSTORE PUSH1 0x0 SWAP1 DUP2 SWAP1 DUP2 SWAP1 PUSH2 0x167 SWAP1 PUSH32 0x5B8F858400000000000000000000000000000000000000000000000000000000 SWAP1 PUSH1 0x64 ADD PUSH2 0x414E JUMP JUMPDEST PUSH1 0x0 DUP1 PUSH1 0x60 PUSH1 0x0 DUP1 PUSH2 0x167 PUSH20 0xFFFFFFFFFFFFFFFFFFFFFFFFFFFFFFFFFFFFFFFF AND PUSH4 0xE0F4059A PUSH1 0xE0 SHL DUP10 DUP10 DUP10 PUSH1 0x40 MLOAD PUSH1 0x24 ADD PUSH2 0x4EEA SWAP4 SWAP3 SWAP2 SWAP1 PUSH2 0x6269 JUMP JUMPDEST PUSH1 0x40 DUP1 MLOAD PUSH32 0xFFFFFFFFFFFFFFFFFFFFFFFFFFFFFFFFFFFFFFFFFFFFFFFFFFFFFFFFFFFFFFE0 DUP2 DUP5 SUB ADD DUP2 MSTORE SWAP2 DUP2 MSTORE PUSH1 0x20 DUP3 ADD DUP1 MLOAD PUSH28 0xFFFFFFFFFFFFFFFFFFFFFFFFFFFFFFFFFFFFFFFFFFFFFFFFFFFFFFFF AND PUSH32 0xFFFFFFFF00000000000000000000000000000000000000000000000000000000 SWAP1 SWAP5 AND SWAP4 SWAP1 SWAP4 OR SWAP1 SWAP3 MSTORE SWAP1 MLOAD PUSH2 0x4F73 SWAP2 SWAP1 PUSH2 0x5CFC JUMP JUMPDEST PUSH1 0x0 PUSH1 0x40 MLOAD DUP1 DUP4 SUB DUP2 PUSH1 0x0 DUP7 GAS CALL SWAP2 POP POP RETURNDATASIZE DUP1 PUSH1 0x0 DUP2 EQ PUSH2 0x4FB0 JUMPI PUSH1 0x40 MLOAD SWAP2 POP PUSH1 0x1F NOT PUSH1 0x3F RETURNDATASIZE ADD AND DUP3 ADD PUSH1 0x40 MSTORE RETURNDATASIZE DUP3 MSTORE RETURNDATASIZE PUSH1 0x0 PUSH1 0x20 DUP5 ADD RETURNDATACOPY PUSH2 0x4FB5 JUMP JUMPDEST PUSH1 0x60 SWAP2 POP JUMPDEST POP SWAP2 POP SWAP2 POP DUP2 PUSH2 0x4FD8 JUMPI PUSH1 0x40 DUP1 MLOAD PUSH1 0x0 DUP1 DUP3 MSTORE PUSH1 0x20 DUP3 ADD SWAP1 SWAP3 MSTORE PUSH1 0x15 SWAP2 SWAP1 PUSH2 0x4FEC JUMP JUMPDEST DUP1 DUP1 PUSH1 0x20 ADD SWAP1 MLOAD DUP2 ADD SWAP1 PUSH2 0x4FEC SWAP2 SWAP1 PUSH2 0x6311 JUMP JUMPDEST PUSH1 0x3 SWAP3 SWAP1 SWAP3 SIGNEXTEND SWAP11 SWAP1 SWAP10 POP SWAP1 SWAP8 POP SWAP6 POP POP POP POP POP POP JUMP JUMPDEST POP DUP1 SLOAD PUSH2 0x500E SWAP1 PUSH2 0x5AE1 JUMP JUMPDEST PUSH1 0x0 DUP3 SSTORE DUP1 PUSH1 0x1F LT PUSH2 0x501E JUMPI POP POP JUMP JUMPDEST PUSH1 0x1F ADD PUSH1 0x20 SWAP1 DIV SWAP1 PUSH1 0x0 MSTORE PUSH1 0x20 PUSH1 0x0 KECCAK256 SWAP1 DUP2 ADD SWAP1 PUSH2 0x372D SWAP2 SWAP1 JUMPDEST DUP1 DUP3 GT ISZERO PUSH2 0x4707 JUMPI PUSH1 0x0 DUP2 SSTORE PUSH1 0x1 ADD PUSH2 0x5038 JUMP JUMPDEST PUSH32 0x4E487B7100000000000000000000000000000000000000000000000000000000 PUSH1 0x0 MSTORE PUSH1 0x41 PUSH1 0x4 MSTORE PUSH1 0x24 PUSH1 0x0 REVERT JUMPDEST PUSH1 0x40 DUP1 MLOAD SWAP1 DUP2 ADD PUSH8 0xFFFFFFFFFFFFFFFF DUP2 GT DUP3 DUP3 LT OR ISZERO PUSH2 0x509E JUMPI PUSH2 0x509E PUSH2 0x504C JUMP JUMPDEST PUSH1 0x40 MSTORE SWAP1 JUMP JUMPDEST PUSH1 0x40 MLOAD PUSH1 0xA0 DUP2 ADD PUSH8 0xFFFFFFFFFFFFFFFF DUP2 GT DUP3 DUP3 LT OR ISZERO PUSH2 0x509E JUMPI PUSH2 0x509E PUSH2 0x504C JUMP JUMPDEST PUSH1 0x40 MLOAD PUSH1 0x1F DUP3 ADD PUSH32 0xFFFFFFFFFFFFFFFFFFFFFFFFFFFFFFFFFFFFFFFFFFFFFFFFFFFFFFFFFFFFFFE0 AND DUP2 ADD PUSH8 0xFFFFFFFFFFFFFFFF DUP2 GT DUP3 DUP3 LT OR ISZERO PUSH2 0x510E JUMPI PUSH2 0x510E PUSH2 0x504C JUMP JUMPDEST PUSH1 0x40 MSTORE SWAP2 SWAP1 POP JUMP JUMPDEST PUSH1 0x0 PUSH8 0xFFFFFFFFFFFFFFFF DUP4 GT ISZERO PUSH2 0x5130 JUMPI PUSH2 0x5130 PUSH2 0x504C JUMP JUMPDEST PUSH2 0x5161 PUSH1 0x20 PUSH32 0xFFFFFFFFFFFFFFFFFFFFFFFFFFFFFFFFFFFFFFFFFFFFFFFFFFFFFFFFFFFFFFE0 PUSH1 0x1F DUP7 ADD AND ADD PUSH2 0x50C7 JUMP JUMPDEST SWAP1 POP DUP3 DUP2 MSTORE DUP4 DUP4 DUP4 ADD GT ISZERO PUSH2 0x5175 JUMPI PUSH1 0x0 DUP1 REVERT JUMPDEST DUP3 DUP3 PUSH1 0x20 DUP4 ADD CALLDATACOPY PUSH1 0x0 PUSH1 0x20 DUP5 DUP4 ADD ADD MSTORE SWAP4 SWAP3 POP POP POP JUMP JUMPDEST PUSH1 0x0 DUP1 PUSH1 0x0 PUSH1 0x60 DUP5 DUP7 SUB SLT ISZERO PUSH2 0x51A1 JUMPI PUSH1 0x0 DUP1 REVERT JUMPDEST DUP4 CALLDATALOAD SWAP3 POP PUSH1 0x20 DUP5 ADD CALLDATALOAD PUSH8 0xFFFFFFFFFFFFFFFF DUP2 GT ISZERO PUSH2 0x51BF JUMPI PUSH1 0x0 DUP1 REVERT JUMPDEST DUP5 ADD PUSH1 0x1F DUP2 ADD DUP7 SGT PUSH2 0x51D0 JUMPI PUSH1 0x0 DUP1 REVERT JUMPDEST PUSH2 0x51DF DUP7 DUP3 CALLDATALOAD PUSH1 0x20 DUP5 ADD PUSH2 0x5116 JUMP JUMPDEST SWAP3 POP POP PUSH1 0x40 DUP5 ADD CALLDATALOAD SWAP1 POP SWAP3 POP SWAP3 POP SWAP3 JUMP JUMPDEST DUP1 CALLDATALOAD PUSH20 0xFFFFFFFFFFFFFFFFFFFFFFFFFFFFFFFFFFFFFFFF DUP2 AND DUP2 EQ PUSH2 0x1738 JUMPI PUSH1 0x0 DUP1 REVERT JUMPDEST PUSH1 0x0 DUP1 PUSH1 0x40 DUP4 DUP6 SUB SLT ISZERO PUSH2 0x5227 JUMPI PUSH1 0x0 DUP1 REVERT JUMPDEST PUSH2 0x5230 DUP4 PUSH2 0x51F0 JUMP JUMPDEST SWAP5 PUSH1 0x20 SWAP4 SWAP1 SWAP4 ADD CALLDATALOAD SWAP4 POP POP POP JUMP JUMPDEST PUSH1 0x0 DUP1 PUSH1 0x40 DUP4 DUP6 SUB SLT ISZERO PUSH2 0x5251 JUMPI PUSH1 0x0 DUP1 REVERT JUMPDEST DUP3 CALLDATALOAD SWAP2 POP PUSH2 0x5261 PUSH1 0x20 DUP5 ADD PUSH2 0x51F0 JUMP JUMPDEST SWAP1 POP SWAP3 POP SWAP3 SWAP1 POP JUMP JUMPDEST PUSH1 0x0 DUP1 DUP4 PUSH1 0x1F DUP5 ADD SLT PUSH2 0x527C JUMPI PUSH1 0x0 DUP1 REVERT JUMPDEST POP DUP2 CALLDATALOAD PUSH8 0xFFFFFFFFFFFFFFFF DUP2 GT ISZERO PUSH2 0x5294 JUMPI PUSH1 0x0 DUP1 REVERT JUMPDEST PUSH1 0x20 DUP4 ADD SWAP2 POP DUP4 PUSH1 0x20 DUP3 DUP6 ADD ADD GT ISZERO PUSH2 0x52AC JUMPI PUSH1 0x0 DUP1 REVERT JUMPDEST SWAP3 POP SWAP3 SWAP1 POP JUMP JUMPDEST PUSH1 0x0 DUP1 PUSH1 0x0 DUP1 PUSH1 0x0 PUSH1 0x80 DUP7 DUP9 SUB SLT ISZERO PUSH2 0x52CB JUMPI PUSH1 0x0 DUP1 REVERT JUMPDEST PUSH2 0x52D4 DUP7 PUSH2 0x51F0 JUMP JUMPDEST SWAP5 POP PUSH2 0x52E2 PUSH1 0x20 DUP8 ADD PUSH2 0x51F0 JUMP JUMPDEST SWAP4 POP PUSH1 0x40 DUP7 ADD CALLDATALOAD SWAP3 POP PUSH1 0x60 DUP7 ADD CALLDATALOAD PUSH8 0xFFFFFFFFFFFFFFFF DUP2 GT ISZERO PUSH2 0x5305 JUMPI PUSH1 0x0 DUP1 REVERT JUMPDEST PUSH2 0x5311 DUP9 DUP3 DUP10 ADD PUSH2 0x526A JUMP JUMPDEST SWAP7 SWAP10 SWAP6 SWAP9 POP SWAP4 SWAP7 POP SWAP3 SWAP5 SWAP4 SWAP3 POP POP POP JUMP JUMPDEST PUSH1 0x0 DUP1 PUSH1 0x0 DUP1 PUSH1 0x0 DUP1 PUSH1 0x0 PUSH1 0xA0 DUP9 DUP11 SUB SLT ISZERO PUSH2 0x533D JUMPI PUSH1 0x0 DUP1 REVERT JUMPDEST DUP8 CALLDATALOAD SWAP7 POP PUSH2 0x534D PUSH1 0x20 DUP10 ADD PUSH2 0x51F0 JUMP JUMPDEST SWAP6 POP PUSH1 0x40 DUP9 ADD CALLDATALOAD SWAP5 POP PUSH1 0x60 DUP9 ADD CALLDATALOAD PUSH8 0xFFFFFFFFFFFFFFFF DUP1 DUP3 GT ISZERO PUSH2 0x5371 JUMPI PUSH1 0x0 DUP1 REVERT JUMPDEST PUSH2 0x537D DUP12 DUP4 DUP13 ADD PUSH2 0x526A JUMP JUMPDEST SWAP1 SWAP7 POP SWAP5 POP PUSH1 0x80 DUP11 ADD CALLDATALOAD SWAP2 POP DUP1 DUP3 GT ISZERO PUSH2 0x5396 JUMPI PUSH1 0x0 DUP1 REVERT JUMPDEST POP PUSH2 0x53A3 DUP11 DUP3 DUP12 ADD PUSH2 0x526A JUMP JUMPDEST SWAP9 SWAP12 SWAP8 SWAP11 POP SWAP6 SWAP9 POP SWAP4 SWAP7 SWAP3 SWAP6 SWAP3 SWAP4 POP POP POP JUMP JUMPDEST PUSH1 0x0 DUP1 PUSH1 0x0 DUP1 PUSH1 0x80 DUP6 DUP8 SUB SLT ISZERO PUSH2 0x53CC JUMPI PUSH1 0x0 DUP1 REVERT JUMPDEST PUSH2 0x53D5 DUP6 PUSH2 0x51F0 JUMP JUMPDEST SWAP4 POP PUSH2 0x53E3 PUSH1 0x20 DUP7 ADD PUSH2 0x51F0 JUMP JUMPDEST SWAP3 POP PUSH2 0x53F1 PUSH1 0x40 DUP7 ADD PUSH2 0x51F0 JUMP JUMPDEST SWAP4 SWAP7 SWAP3 SWAP6 POP SWAP3 SWAP4 PUSH1 0x60 ADD CALLDATALOAD SWAP3 POP POP JUMP JUMPDEST PUSH1 0x0 DUP1 PUSH1 0x0 DUP1 PUSH1 0x60 DUP6 DUP8 SUB SLT ISZERO PUSH2 0x5417 JUMPI PUSH1 0x0 DUP1 REVERT JUMPDEST PUSH2 0x5420 DUP6 PUSH2 0x51F0 JUMP JUMPDEST SWAP4 POP PUSH1 0x20 DUP6 ADD CALLDATALOAD SWAP3 POP PUSH1 0x40 DUP6 ADD CALLDATALOAD PUSH8 0xFFFFFFFFFFFFFFFF DUP2 GT ISZERO PUSH2 0x5443 JUMPI PUSH1 0x0 DUP1 REVERT JUMPDEST PUSH2 0x544F DUP8 DUP3 DUP9 ADD PUSH2 0x526A JUMP JUMPDEST SWAP6 SWAP9 SWAP5 SWAP8 POP SWAP6 POP POP POP POP JUMP JUMPDEST PUSH1 0x0 DUP1 PUSH1 0x0 PUSH1 0x60 DUP5 DUP7 SUB SLT ISZERO PUSH2 0x5470 JUMPI PUSH1 0x0 DUP1 REVERT JUMPDEST PUSH2 0x5479 DUP5 PUSH2 0x51F0 JUMP JUMPDEST SWAP3 POP PUSH2 0x5487 PUSH1 0x20 DUP6 ADD PUSH2 0x51F0 JUMP JUMPDEST SWAP2 POP PUSH1 0x40 DUP5 ADD CALLDATALOAD SWAP1 POP SWAP3 POP SWAP3 POP SWAP3 JUMP JUMPDEST PUSH1 0x0 PUSH1 0x20 DUP3 DUP5 SUB SLT ISZERO PUSH2 0x54A9 JUMPI PUSH1 0x0 DUP1 REVERT JUMPDEST PUSH2 0xB3E DUP3 PUSH2 0x51F0 JUMP JUMPDEST PUSH1 0x0 DUP3 PUSH1 0x1F DUP4 ADD SLT PUSH2 0x54C3 JUMPI PUSH1 0x0 DUP1 REVERT JUMPDEST PUSH2 0xB3E DUP4 DUP4 CALLDATALOAD PUSH1 0x20 DUP6 ADD PUSH2 0x5116 JUMP JUMPDEST PUSH1 0x0 DUP1 PUSH1 0x40 DUP4 DUP6 SUB SLT ISZERO PUSH2 0x54E5 JUMPI PUSH1 0x0 DUP1 REVERT JUMPDEST PUSH2 0x54EE DUP4 PUSH2 0x51F0 JUMP JUMPDEST SWAP2 POP PUSH1 0x20 DUP4 ADD CALLDATALOAD PUSH8 0xFFFFFFFFFFFFFFFF DUP2 GT ISZERO PUSH2 0x550A JUMPI PUSH1 0x0 DUP1 REVERT JUMPDEST PUSH2 0x5516 DUP6 DUP3 DUP7 ADD PUSH2 0x54B2 JUMP JUMPDEST SWAP2 POP POP SWAP3 POP SWAP3 SWAP1 POP JUMP JUMPDEST PUSH1 0x0 JUMPDEST DUP4 DUP2 LT ISZERO PUSH2 0x553B JUMPI DUP2 DUP2 ADD MLOAD DUP4 DUP3 ADD MSTORE PUSH1 0x20 ADD PUSH2 0x5523 JUMP JUMPDEST POP POP PUSH1 0x0 SWAP2 ADD MSTORE JUMP JUMPDEST PUSH1 0x0 DUP2 MLOAD DUP1 DUP5 MSTORE PUSH2 0x555C DUP2 PUSH1 0x20 DUP7 ADD PUSH1 0x20 DUP7 ADD PUSH2 0x5520 JUMP JUMPDEST PUSH1 0x1F ADD PUSH32 0xFFFFFFFFFFFFFFFFFFFFFFFFFFFFFFFFFFFFFFFFFFFFFFFFFFFFFFFFFFFFFFE0 AND SWAP3 SWAP1 SWAP3 ADD PUSH1 0x20 ADD SWAP3 SWAP2 POP POP JUMP JUMPDEST DUP3 DUP2 MSTORE PUSH1 0x40 PUSH1 0x20 DUP3 ADD MSTORE PUSH1 0x0 PUSH2 0x55A7 PUSH1 0x40 DUP4 ADD DUP5 PUSH2 0x5544 JUMP JUMPDEST SWAP5 SWAP4 POP POP POP POP JUMP JUMPDEST PUSH1 0x0 DUP1 PUSH1 0x0 DUP1 PUSH1 0x60 DUP6 DUP8 SUB SLT ISZERO PUSH2 0x55C5 JUMPI PUSH1 0x0 DUP1 REVERT JUMPDEST DUP5 CALLDATALOAD SWAP4 POP PUSH1 0x20 DUP6 ADD CALLDATALOAD SWAP3 POP PUSH1 0x40 DUP6 ADD CALLDATALOAD PUSH8 0xFFFFFFFFFFFFFFFF DUP2 GT ISZERO PUSH2 0x5443 JUMPI PUSH1 0x0 DUP1 REVERT JUMPDEST PUSH1 0x0 PUSH8 0xFFFFFFFFFFFFFFFF DUP3 GT ISZERO PUSH2 0x5604 JUMPI PUSH2 0x5604 PUSH2 0x504C JUMP JUMPDEST POP PUSH1 0x5 SHL PUSH1 0x20 ADD SWAP1 JUMP JUMPDEST DUP1 ISZERO ISZERO DUP2 EQ PUSH2 0x372D JUMPI PUSH1 0x0 DUP1 REVERT JUMPDEST PUSH1 0x0 PUSH1 0x20 DUP1 DUP4 DUP6 SUB SLT ISZERO PUSH2 0x562F JUMPI PUSH1 0x0 DUP1 REVERT JUMPDEST DUP3 CALLDATALOAD PUSH8 0xFFFFFFFFFFFFFFFF DUP1 DUP3 GT ISZERO PUSH2 0x5647 JUMPI PUSH1 0x0 DUP1 REVERT JUMPDEST DUP2 DUP6 ADD SWAP2 POP DUP6 PUSH1 0x1F DUP4 ADD SLT PUSH2 0x565B JUMPI PUSH1 0x0 DUP1 REVERT JUMPDEST DUP2 CALLDATALOAD PUSH2 0x566E PUSH2 0x5669 DUP3 PUSH2 0x55EA JUMP JUMPDEST PUSH2 0x50C7 JUMP JUMPDEST DUP2 DUP2 MSTORE PUSH1 0x5 SWAP2 SWAP1 SWAP2 SHL DUP4 ADD DUP5 ADD SWAP1 DUP5 DUP2 ADD SWAP1 DUP9 DUP4 GT ISZERO PUSH2 0x568D JUMPI PUSH1 0x0 DUP1 REVERT JUMPDEST DUP6 DUP6 ADD JUMPDEST DUP4 DUP2 LT ISZERO PUSH2 0x57AF JUMPI DUP1 CALLDATALOAD DUP6 DUP2 GT ISZERO PUSH2 0x56A8 JUMPI PUSH1 0x0 DUP1 REVERT JUMPDEST DUP7 ADD PUSH32 0xFFFFFFFFFFFFFFFFFFFFFFFFFFFFFFFFFFFFFFFFFFFFFFFFFFFFFFFFFFFFFFE0 PUSH1 0x40 DUP3 DUP14 SUB DUP3 ADD SLT ISZERO PUSH2 0x56DD JUMPI PUSH1 0x0 DUP1 REVERT JUMPDEST PUSH2 0x56E5 PUSH2 0x507B JUMP JUMPDEST DUP10 DUP4 ADD CALLDATALOAD DUP2 MSTORE PUSH1 0x40 DUP4 ADD CALLDATALOAD DUP9 DUP2 GT ISZERO PUSH2 0x56FD JUMPI PUSH1 0x0 DUP1 REVERT JUMPDEST SWAP3 SWAP1 SWAP3 ADD SWAP2 PUSH1 0xA0 DUP4 DUP15 SUB DUP4 ADD SLT ISZERO PUSH2 0x5714 JUMPI PUSH1 0x0 DUP1 REVERT JUMPDEST PUSH2 0x571C PUSH2 0x50A4 JUMP JUMPDEST SWAP2 POP DUP10 DUP4 ADD CALLDATALOAD PUSH2 0x572B DUP2 PUSH2 0x560E JUMP JUMPDEST DUP3 MSTORE PUSH2 0x5739 PUSH1 0x40 DUP5 ADD PUSH2 0x51F0 JUMP JUMPDEST DUP11 DUP4 ADD MSTORE PUSH1 0x60 DUP4 ADD CALLDATALOAD DUP9 DUP2 GT ISZERO PUSH2 0x574F JUMPI PUSH1 0x0 DUP1 REVERT JUMPDEST PUSH2 0x575D DUP15 DUP13 DUP4 DUP8 ADD ADD PUSH2 0x54B2 JUMP JUMPDEST PUSH1 0x40 DUP5 ADD MSTORE POP PUSH1 0x80 DUP4 ADD CALLDATALOAD DUP9 DUP2 GT ISZERO PUSH2 0x5775 JUMPI PUSH1 0x0 DUP1 REVERT JUMPDEST PUSH2 0x5783 DUP15 DUP13 DUP4 DUP8 ADD ADD PUSH2 0x54B2 JUMP JUMPDEST PUSH1 0x60 DUP5 ADD MSTORE POP PUSH2 0x5795 PUSH1 0xA0 DUP5 ADD PUSH2 0x51F0 JUMP JUMPDEST PUSH1 0x80 DUP4 ADD MSTORE DUP1 DUP11 ADD SWAP2 SWAP1 SWAP2 MSTORE DUP5 MSTORE POP SWAP2 DUP7 ADD SWAP2 DUP7 ADD PUSH2 0x5691 JUMP JUMPDEST POP SWAP9 SWAP8 POP POP POP POP POP POP POP POP JUMP JUMPDEST PUSH1 0x0 DUP1 PUSH1 0x0 DUP1 PUSH1 0x0 PUSH1 0x80 DUP7 DUP9 SUB SLT ISZERO PUSH2 0x57D4 JUMPI PUSH1 0x0 DUP1 REVERT JUMPDEST DUP6 CALLDATALOAD SWAP5 POP PUSH2 0x52E2 PUSH1 0x20 DUP8 ADD PUSH2 0x51F0 JUMP JUMPDEST PUSH1 0x0 DUP1 PUSH1 0x0 PUSH1 0x60 DUP5 DUP7 SUB SLT ISZERO PUSH2 0x57F9 JUMPI PUSH1 0x0 DUP1 REVERT JUMPDEST DUP4 CALLDATALOAD SWAP3 POP PUSH2 0x5809 PUSH1 0x20 DUP6 ADD PUSH2 0x51F0 JUMP JUMPDEST SWAP2 POP PUSH2 0x5817 PUSH1 0x40 DUP6 ADD PUSH2 0x51F0 JUMP JUMPDEST SWAP1 POP SWAP3 POP SWAP3 POP SWAP3 JUMP JUMPDEST PUSH1 0x20 DUP1 DUP3 MSTORE DUP3 MLOAD DUP3 DUP3 ADD DUP2 SWAP1 MSTORE PUSH1 0x0 SWAP2 SWAP1 DUP5 DUP3 ADD SWAP1 PUSH1 0x40 DUP6 ADD SWAP1 DUP5 JUMPDEST DUP2 DUP2 LT ISZERO PUSH2 0x5858 JUMPI DUP4 MLOAD DUP4 MSTORE SWAP3 DUP5 ADD SWAP3 SWAP2 DUP5 ADD SWAP2 PUSH1 0x1 ADD PUSH2 0x583C JUMP JUMPDEST POP SWAP1 SWAP7 SWAP6 POP POP POP POP POP POP JUMP JUMPDEST PUSH1 0x0 PUSH1 0x20 DUP3 DUP5 SUB SLT ISZERO PUSH2 0x5876 JUMPI PUSH1 0x0 DUP1 REVERT JUMPDEST POP CALLDATALOAD SWAP2 SWAP1 POP JUMP JUMPDEST PUSH1 0x0 DUP1 PUSH1 0x0 DUP1 PUSH1 0x0 DUP1 PUSH1 0x0 DUP1 PUSH1 0xC0 DUP10 DUP12 SUB SLT ISZERO PUSH2 0x5899 JUMPI PUSH1 0x0 DUP1 REVERT JUMPDEST DUP9 CALLDATALOAD SWAP8 POP PUSH2 0x58A9 PUSH1 0x20 DUP11 ADD PUSH2 0x51F0 JUMP JUMPDEST SWAP7 POP PUSH2 0x58B7 PUSH1 0x40 DUP11 ADD PUSH2 0x51F0 JUMP JUMPDEST SWAP6 POP PUSH1 0x60 DUP10 ADD CALLDATALOAD SWAP5 POP PUSH1 0x80 DUP10 ADD CALLDATALOAD PUSH8 0xFFFFFFFFFFFFFFFF DUP1 DUP3 GT ISZERO PUSH2 0x58DB JUMPI PUSH1 0x0 DUP1 REVERT JUMPDEST PUSH2 0x58E7 DUP13 DUP4 DUP14 ADD PUSH2 0x526A JUMP JUMPDEST SWAP1 SWAP7 POP SWAP5 POP PUSH1 0xA0 DUP12 ADD CALLDATALOAD SWAP2 POP DUP1 DUP3 GT ISZERO PUSH2 0x5900 JUMPI PUSH1 0x0 DUP1 REVERT JUMPDEST POP PUSH2 0x590D DUP12 DUP3 DUP13 ADD PUSH2 0x526A JUMP JUMPDEST SWAP10 SWAP13 SWAP9 SWAP12 POP SWAP7 SWAP10 POP SWAP5 SWAP8 SWAP4 SWAP7 SWAP3 SWAP6 SWAP5 POP POP POP JUMP JUMPDEST PUSH1 0x0 DUP1 PUSH1 0x0 DUP1 PUSH1 0x0 DUP1 PUSH1 0x0 DUP1 PUSH1 0xC0 DUP10 DUP12 SUB SLT ISZERO PUSH2 0x593D JUMPI PUSH1 0x0 DUP1 REVERT JUMPDEST PUSH2 0x5946 DUP10 PUSH2 0x51F0 JUMP JUMPDEST SWAP8 POP PUSH2 0x5954 PUSH1 0x20 DUP11 ADD PUSH2 0x51F0 JUMP JUMPDEST SWAP7 POP PUSH1 0x40 DUP10 ADD CALLDATALOAD SWAP6 POP PUSH1 0x60 DUP10 ADD CALLDATALOAD SWAP5 POP PUSH1 0x80 DUP10 ADD CALLDATALOAD PUSH8 0xFFFFFFFFFFFFFFFF DUP1 DUP3 GT ISZERO PUSH2 0x58DB JUMPI PUSH1 0x0 DUP1 REVERT JUMPDEST PUSH1 0x0 DUP1 PUSH1 0x0 DUP1 PUSH1 0x0 DUP1 PUSH1 0xA0 DUP8 DUP10 SUB SLT ISZERO PUSH2 0x5998 JUMPI PUSH1 0x0 DUP1 REVERT JUMPDEST PUSH2 0x59A1 DUP8 PUSH2 0x51F0 JUMP JUMPDEST SWAP6 POP PUSH2 0x59AF PUSH1 0x20 DUP9 ADD PUSH2 0x51F0 JUMP JUMPDEST SWAP5 POP PUSH1 0x40 DUP8 ADD CALLDATALOAD SWAP4 POP PUSH1 0x60 DUP8 ADD CALLDATALOAD SWAP3 POP PUSH1 0x80 DUP8 ADD CALLDATALOAD PUSH8 0xFFFFFFFFFFFFFFFF DUP2 GT ISZERO PUSH2 0x59D9 JUMPI PUSH1 0x0 DUP1 REVERT JUMPDEST PUSH2 0x59E5 DUP10 DUP3 DUP11 ADD PUSH2 0x526A JUMP JUMPDEST SWAP8 SWAP11 SWAP7 SWAP10 POP SWAP5 SWAP8 POP SWAP3 SWAP6 SWAP4 SWAP5 SWAP3 POP POP POP JUMP JUMPDEST PUSH1 0x0 DUP1 PUSH1 0x0 DUP1 PUSH1 0x0 DUP1 PUSH1 0x0 PUSH1 0xA0 DUP9 DUP11 SUB SLT ISZERO PUSH2 0x5A12 JUMPI PUSH1 0x0 DUP1 REVERT JUMPDEST PUSH2 0x5A1B DUP9 PUSH2 0x51F0 JUMP JUMPDEST SWAP7 POP PUSH1 0x20 DUP9 ADD CALLDATALOAD SWAP6 POP PUSH1 0x40 DUP9 ADD CALLDATALOAD SWAP5 POP PUSH1 0x60 DUP9 ADD CALLDATALOAD PUSH8 0xFFFFFFFFFFFFFFFF DUP1 DUP3 GT ISZERO PUSH2 0x5371 JUMPI PUSH1 0x0 DUP1 REVERT JUMPDEST PUSH1 0x60 DUP2 MSTORE PUSH1 0x0 PUSH2 0x5A59 PUSH1 0x60 DUP4 ADD DUP7 PUSH2 0x5544 JUMP JUMPDEST PUSH1 0x20 DUP4 ADD SWAP5 SWAP1 SWAP5 MSTORE POP PUSH1 0x40 ADD MSTORE SWAP2 SWAP1 POP JUMP JUMPDEST PUSH1 0x0 DUP1 PUSH1 0x40 DUP4 DUP6 SUB SLT ISZERO PUSH2 0x5A7E JUMPI PUSH1 0x0 DUP1 REVERT JUMPDEST PUSH2 0x5A87 DUP4 PUSH2 0x51F0 JUMP JUMPDEST SWAP2 POP PUSH2 0x5261 PUSH1 0x20 DUP5 ADD PUSH2 0x51F0 JUMP JUMPDEST PUSH1 0x0 DUP1 PUSH1 0x0 PUSH1 0x40 DUP5 DUP7 SUB SLT ISZERO PUSH2 0x5AAA JUMPI PUSH1 0x0 DUP1 REVERT JUMPDEST DUP4 CALLDATALOAD SWAP3 POP PUSH1 0x20 DUP5 ADD CALLDATALOAD PUSH8 0xFFFFFFFFFFFFFFFF DUP2 GT ISZERO PUSH2 0x5AC8 JUMPI PUSH1 0x0 DUP1 REVERT JUMPDEST PUSH2 0x5AD4 DUP7 DUP3 DUP8 ADD PUSH2 0x526A JUMP JUMPDEST SWAP5 SWAP8 SWAP1 SWAP7 POP SWAP4 SWAP5 POP POP POP POP JUMP JUMPDEST PUSH1 0x1 DUP2 DUP2 SHR SWAP1 DUP3 AND DUP1 PUSH2 0x5AF5 JUMPI PUSH1 0x7F DUP3 AND SWAP2 POP JUMPDEST PUSH1 0x20 DUP3 LT DUP2 SUB PUSH2 0x5B2E JUMPI PUSH32 0x4E487B7100000000000000000000000000000000000000000000000000000000 PUSH1 0x0 MSTORE PUSH1 0x22 PUSH1 0x4 MSTORE PUSH1 0x24 PUSH1 0x0 REVERT JUMPDEST POP SWAP2 SWAP1 POP JUMP JUMPDEST PUSH1 0x1F DUP3 GT ISZERO PUSH2 0x5B7E JUMPI PUSH1 0x0 DUP2 DUP2 MSTORE PUSH1 0x20 DUP2 KECCAK256 PUSH1 0x1F DUP6 ADD PUSH1 0x5 SHR DUP2 ADD PUSH1 0x20 DUP7 LT ISZERO PUSH2 0x5B5B JUMPI POP DUP1 JUMPDEST PUSH1 0x1F DUP6 ADD PUSH1 0x5 SHR DUP3 ADD SWAP2 POP JUMPDEST DUP2 DUP2 LT ISZERO PUSH2 0x5B7A JUMPI DUP3 DUP2 SSTORE PUSH1 0x1 ADD PUSH2 0x5B67 JUMP JUMPDEST POP POP POP JUMPDEST POP POP POP JUMP JUMPDEST DUP2 MLOAD PUSH8 0xFFFFFFFFFFFFFFFF DUP2 GT ISZERO PUSH2 0x5B9D JUMPI PUSH2 0x5B9D PUSH2 0x504C JUMP JUMPDEST PUSH2 0x5BB1 DUP2 PUSH2 0x5BAB DUP5 SLOAD PUSH2 0x5AE1 JUMP JUMPDEST DUP5 PUSH2 0x5B34 JUMP JUMPDEST PUSH1 0x20 DUP1 PUSH1 0x1F DUP4 GT PUSH1 0x1 DUP2 EQ PUSH2 0x5C04 JUMPI PUSH1 0x0 DUP5 ISZERO PUSH2 0x5BCE JUMPI POP DUP6 DUP4 ADD MLOAD JUMPDEST PUSH32 0xFFFFFFFFFFFFFFFFFFFFFFFFFFFFFFFFFFFFFFFFFFFFFFFFFFFFFFFFFFFFFFFF PUSH1 0x3 DUP7 SWAP1 SHL SHR NOT AND PUSH1 0x1 DUP6 SWAP1 SHL OR DUP6 SSTORE PUSH2 0x5B7A JUMP JUMPDEST PUSH1 0x0 DUP6 DUP2 MSTORE PUSH1 0x20 DUP2 KECCAK256 PUSH32 0xFFFFFFFFFFFFFFFFFFFFFFFFFFFFFFFFFFFFFFFFFFFFFFFFFFFFFFFFFFFFFFE0 DUP7 AND SWAP2 JUMPDEST DUP3 DUP2 LT ISZERO PUSH2 0x5C51 JUMPI DUP9 DUP7 ADD MLOAD DUP3 SSTORE SWAP5 DUP5 ADD SWAP5 PUSH1 0x1 SWAP1 SWAP2 ADD SWAP1 DUP5 ADD PUSH2 0x5C32 JUMP JUMPDEST POP DUP6 DUP3 LT ISZERO PUSH2 0x5C8D JUMPI DUP8 DUP6 ADD MLOAD PUSH32 0xFFFFFFFFFFFFFFFFFFFFFFFFFFFFFFFFFFFFFFFFFFFFFFFFFFFFFFFFFFFFFFFF PUSH1 0x3 DUP9 SWAP1 SHL PUSH1 0xF8 AND SHR NOT AND DUP2 SSTORE JUMPDEST POP POP POP POP POP PUSH1 0x1 SWAP1 DUP2 SHL ADD SWAP1 SSTORE POP JUMP JUMPDEST PUSH1 0x40 DUP2 MSTORE PUSH1 0x0 PUSH2 0x5CB0 PUSH1 0x40 DUP4 ADD DUP6 PUSH2 0x5544 JUMP JUMPDEST SWAP1 POP DUP3 PUSH1 0x20 DUP4 ADD MSTORE SWAP4 SWAP3 POP POP POP JUMP JUMPDEST PUSH1 0x0 PUSH1 0x20 DUP3 DUP5 SUB SLT ISZERO PUSH2 0x5CD1 JUMPI PUSH1 0x0 DUP1 REVERT JUMPDEST DUP2 MLOAD PUSH2 0x5CDC DUP2 PUSH2 0x560E JUMP JUMPDEST SWAP4 SWAP3 POP POP POP JUMP JUMPDEST PUSH1 0x0 PUSH1 0x20 DUP3 DUP5 SUB SLT ISZERO PUSH2 0x5CF5 JUMPI PUSH1 0x0 DUP1 REVERT JUMPDEST POP MLOAD SWAP2 SWAP1 POP JUMP JUMPDEST PUSH1 0x0 DUP3 MLOAD PUSH2 0x5D0E DUP2 DUP5 PUSH1 0x20 DUP8 ADD PUSH2 0x5520 JUMP JUMPDEST SWAP2 SWAP1 SWAP2 ADD SWAP3 SWAP2 POP POP JUMP JUMPDEST DUP1 MLOAD PUSH1 0x3 DUP2 SWAP1 SIGNEXTEND DUP2 EQ PUSH2 0x1738 JUMPI PUSH1 0x0 DUP1 REVERT JUMPDEST PUSH1 0x0 PUSH1 0x20 DUP3 DUP5 SUB SLT ISZERO PUSH2 0x5D3C JUMPI PUSH1 0x0 DUP1 REVERT JUMPDEST PUSH2 0xB3E DUP3 PUSH2 0x5D18 JUMP JUMPDEST PUSH32 0x4E487B7100000000000000000000000000000000000000000000000000000000 PUSH1 0x0 MSTORE PUSH1 0x11 PUSH1 0x4 MSTORE PUSH1 0x24 PUSH1 0x0 REVERT JUMPDEST DUP2 DUP2 SUB DUP2 DUP2 GT ISZERO PUSH2 0xB41 JUMPI PUSH2 0xB41 PUSH2 0x5D45 JUMP JUMPDEST PUSH32 0x4E487B7100000000000000000000000000000000000000000000000000000000 PUSH1 0x0 MSTORE PUSH1 0x32 PUSH1 0x4 MSTORE PUSH1 0x24 PUSH1 0x0 REVERT JUMPDEST PUSH20 0xFFFFFFFFFFFFFFFFFFFFFFFFFFFFFFFFFFFFFFFF DUP4 AND DUP2 MSTORE PUSH1 0x40 PUSH1 0x20 DUP3 ADD MSTORE PUSH1 0x0 PUSH2 0x55A7 PUSH1 0x40 DUP4 ADD DUP5 PUSH2 0x5544 JUMP JUMPDEST DUP3 ISZERO ISZERO DUP2 MSTORE PUSH1 0x40 PUSH1 0x20 DUP3 ADD MSTORE PUSH1 0x0 PUSH2 0x55A7 PUSH1 0x40 DUP4 ADD DUP5 PUSH2 0x5544 JUMP JUMPDEST PUSH1 0x0 PUSH32 0xFFFFFFFFFFFFFFFFFFFFFFFFFFFFFFFFFFFFFFFFFFFFFFFFFFFFFFFFFFFFFFFF DUP3 SUB PUSH2 0x5E31 JUMPI PUSH2 0x5E31 PUSH2 0x5D45 JUMP JUMPDEST POP PUSH1 0x1 ADD SWAP1 JUMP JUMPDEST DUP2 DUP4 MSTORE DUP2 DUP2 PUSH1 0x20 DUP6 ADD CALLDATACOPY POP PUSH1 0x0 PUSH1 0x20 DUP3 DUP5 ADD ADD MSTORE PUSH1 0x0 PUSH1 0x20 PUSH32 0xFFFFFFFFFFFFFFFFFFFFFFFFFFFFFFFFFFFFFFFFFFFFFFFFFFFFFFFFFFFFFFE0 PUSH1 0x1F DUP5 ADD AND DUP5 ADD ADD SWAP1 POP SWAP3 SWAP2 POP POP JUMP JUMPDEST PUSH20 0xFFFFFFFFFFFFFFFFFFFFFFFFFFFFFFFFFFFFFFFF DUP9 AND DUP2 MSTORE DUP7 PUSH1 0x20 DUP3 ADD MSTORE DUP6 PUSH1 0x40 DUP3 ADD MSTORE PUSH1 0xA0 PUSH1 0x60 DUP3 ADD MSTORE PUSH1 0x0 PUSH2 0x5EBD PUSH1 0xA0 DUP4 ADD DUP7 DUP9 PUSH2 0x5E38 JUMP JUMPDEST DUP3 DUP2 SUB PUSH1 0x80 DUP5 ADD MSTORE PUSH2 0x5ED0 DUP2 DUP6 DUP8 PUSH2 0x5E38 JUMP JUMPDEST SWAP11 SWAP10 POP POP POP POP POP POP POP POP POP POP JUMP JUMPDEST DUP4 DUP2 MSTORE PUSH1 0x40 PUSH1 0x20 DUP3 ADD MSTORE PUSH1 0x0 PUSH2 0x5EF8 PUSH1 0x40 DUP4 ADD DUP5 DUP7 PUSH2 0x5E38 JUMP JUMPDEST SWAP6 SWAP5 POP POP POP POP POP JUMP JUMPDEST PUSH20 0xFFFFFFFFFFFFFFFFFFFFFFFFFFFFFFFFFFFFFFFF DUP8 AND DUP2 MSTORE DUP6 PUSH1 0x20 DUP3 ADD MSTORE PUSH1 0x80 PUSH1 0x40 DUP3 ADD MSTORE PUSH1 0x0 PUSH2 0x5F37 PUSH1 0x80 DUP4 ADD DUP7 DUP9 PUSH2 0x5E38 JUMP JUMPDEST DUP3 DUP2 SUB PUSH1 0x60 DUP5 ADD MSTORE PUSH2 0x5F4A DUP2 DUP6 DUP8 PUSH2 0x5E38 JUMP JUMPDEST SWAP10 SWAP9 POP POP POP POP POP POP POP POP POP JUMP JUMPDEST DUP1 DUP3 ADD DUP1 DUP3 GT ISZERO PUSH2 0xB41 JUMPI PUSH2 0xB41 PUSH2 0x5D45 JUMP JUMPDEST PUSH1 0x40 DUP2 MSTORE PUSH1 0x0 DUP1 DUP5 SLOAD PUSH2 0x5F7C DUP2 PUSH2 0x5AE1 JUMP JUMPDEST DUP1 PUSH1 0x40 DUP7 ADD MSTORE PUSH1 0x60 PUSH1 0x1 DUP1 DUP5 AND PUSH1 0x0 DUP2 EQ PUSH2 0x5F9E JUMPI PUSH1 0x1 DUP2 EQ PUSH2 0x5FD6 JUMPI PUSH2 0x6007 JUMP JUMPDEST PUSH32 0xFFFFFFFFFFFFFFFFFFFFFFFFFFFFFFFFFFFFFFFFFFFFFFFFFFFFFFFFFFFFFF00 DUP6 AND DUP4 DUP10 ADD MSTORE DUP3 DUP5 ISZERO ISZERO PUSH1 0x5 SHL DUP10 ADD ADD SWAP6 POP PUSH2 0x6007 JUMP JUMPDEST DUP10 PUSH1 0x0 MSTORE PUSH1 0x20 DUP1 PUSH1 0x0 KECCAK256 PUSH1 0x0 JUMPDEST DUP7 DUP2 LT ISZERO PUSH2 0x5FFE JUMPI DUP2 SLOAD DUP12 DUP3 ADD DUP8 ADD MSTORE SWAP1 DUP5 ADD SWAP1 DUP3 ADD PUSH2 0x5FE3 JUMP JUMPDEST DUP11 ADD DUP6 ADD SWAP8 POP POP POP JUMPDEST POP POP POP POP POP PUSH1 0x20 SWAP3 SWAP1 SWAP3 ADD SWAP3 SWAP1 SWAP3 MSTORE SWAP3 SWAP2 POP POP JUMP JUMPDEST PUSH20 0xFFFFFFFFFFFFFFFFFFFFFFFFFFFFFFFFFFFFFFFF DUP6 AND DUP2 MSTORE DUP4 PUSH1 0x20 DUP3 ADD MSTORE PUSH1 0x80 PUSH1 0x40 DUP3 ADD MSTORE PUSH1 0x0 PUSH2 0x6051 PUSH1 0x80 DUP4 ADD DUP6 PUSH2 0x5544 JUMP JUMPDEST DUP3 DUP2 SUB PUSH1 0x60 DUP5 ADD MSTORE PUSH2 0x6063 DUP2 DUP6 PUSH2 0x5544 JUMP JUMPDEST SWAP8 SWAP7 POP POP POP POP POP POP POP JUMP JUMPDEST PUSH1 0x0 PUSH1 0x40 DUP1 DUP4 ADD PUSH20 0xFFFFFFFFFFFFFFFFFFFFFFFFFFFFFFFFFFFFFFFF DUP1 DUP8 AND DUP6 MSTORE PUSH1 0x20 DUP4 DUP2 DUP8 ADD MSTORE DUP3 DUP8 MLOAD DUP1 DUP6 MSTORE PUSH1 0x60 SWAP5 POP DUP5 DUP9 ADD SWAP2 POP DUP5 DUP2 PUSH1 0x5 SHL DUP10 ADD ADD DUP4 DUP11 ADD PUSH1 0x0 JUMPDEST DUP4 DUP2 LT ISZERO PUSH2 0x617B JUMPI DUP11 DUP4 SUB PUSH32 0xFFFFFFFFFFFFFFFFFFFFFFFFFFFFFFFFFFFFFFFFFFFFFFFFFFFFFFFFFFFFFFA0 ADD DUP6 MSTORE DUP2 MLOAD DUP1 MLOAD DUP5 MSTORE DUP7 ADD MLOAD DUP7 DUP5 ADD DUP11 SWAP1 MSTORE DUP1 MLOAD ISZERO ISZERO DUP11 DUP6 ADD MSTORE DUP1 DUP8 ADD MLOAD DUP9 AND DUP10 DUP6 ADD MSTORE DUP10 DUP2 ADD MLOAD PUSH1 0xA0 PUSH1 0x80 DUP1 DUP8 ADD DUP3 SWAP1 MSTORE PUSH2 0x611E PUSH1 0xE0 DUP9 ADD DUP5 PUSH2 0x5544 JUMP JUMPDEST SWAP3 POP DUP12 DUP5 ADD MLOAD PUSH32 0xFFFFFFFFFFFFFFFFFFFFFFFFFFFFFFFFFFFFFFFFFFFFFFFFFFFFFFFFFFFFFFC0 DUP9 DUP6 SUB ADD DUP4 DUP10 ADD MSTORE PUSH2 0x6157 DUP5 DUP3 PUSH2 0x5544 JUMP JUMPDEST SWAP2 SWAP1 SWAP5 ADD MLOAD DUP12 AND PUSH1 0xC0 SWAP8 SWAP1 SWAP8 ADD SWAP7 SWAP1 SWAP7 MSTORE POP POP POP SWAP4 DUP6 ADD SWAP4 SWAP1 DUP6 ADD SWAP1 PUSH1 0x1 ADD PUSH2 0x60B3 JUMP JUMPDEST POP SWAP1 SWAP12 SWAP11 POP POP POP POP POP POP POP POP POP POP POP JUMP JUMPDEST PUSH32 0x4E487B7100000000000000000000000000000000000000000000000000000000 PUSH1 0x0 MSTORE PUSH1 0x1 PUSH1 0x4 MSTORE PUSH1 0x24 PUSH1 0x0 REVERT JUMPDEST PUSH1 0x0 PUSH1 0x60 DUP3 ADD PUSH20 0xFFFFFFFFFFFFFFFFFFFFFFFFFFFFFFFFFFFFFFFF DUP7 AND DUP4 MSTORE PUSH1 0x20 PUSH1 0x7 DUP7 DUP2 SIGNEXTEND DUP3 DUP7 ADD MSTORE PUSH1 0x60 PUSH1 0x40 DUP7 ADD MSTORE DUP3 DUP7 MLOAD DUP1 DUP6 MSTORE PUSH1 0x80 DUP8 ADD SWAP2 POP DUP4 DUP9 ADD SWAP5 POP PUSH1 0x0 JUMPDEST DUP2 DUP2 LT ISZERO PUSH2 0x621E JUMPI DUP6 MLOAD DUP5 SIGNEXTEND DUP4 MSTORE SWAP5 DUP5 ADD SWAP5 SWAP2 DUP5 ADD SWAP2 PUSH1 0x1 ADD PUSH2 0x6200 JUMP JUMPDEST POP SWAP1 SWAP10 SWAP9 POP POP POP POP POP POP POP POP POP JUMP JUMPDEST DUP1 MLOAD PUSH1 0x7 DUP2 SWAP1 SIGNEXTEND DUP2 EQ PUSH2 0x1738 JUMPI PUSH1 0x0 DUP1 REVERT JUMPDEST PUSH1 0x0 DUP1 PUSH1 0x40 DUP4 DUP6 SUB SLT ISZERO PUSH2 0x6252 JUMPI PUSH1 0x0 DUP1 REVERT JUMPDEST PUSH2 0x625B DUP4 PUSH2 0x5D18 JUMP JUMPDEST SWAP2 POP PUSH2 0x5261 PUSH1 0x20 DUP5 ADD PUSH2 0x622D JUMP JUMPDEST PUSH1 0x0 PUSH1 0x60 DUP3 ADD PUSH20 0xFFFFFFFFFFFFFFFFFFFFFFFFFFFFFFFFFFFFFFFF DUP7 AND DUP4 MSTORE PUSH1 0x20 DUP6 PUSH1 0x7 SIGNEXTEND DUP2 DUP6 ADD MSTORE PUSH1 0x60 PUSH1 0x40 DUP6 ADD MSTORE DUP2 DUP6 MLOAD DUP1 DUP5 MSTORE PUSH1 0x80 DUP7 ADD SWAP2 POP PUSH1 0x80 DUP2 PUSH1 0x5 SHL DUP8 ADD ADD SWAP4 POP DUP3 DUP8 ADD PUSH1 0x0 JUMPDEST DUP3 DUP2 LT ISZERO PUSH2 0x6302 JUMPI PUSH32 0xFFFFFFFFFFFFFFFFFFFFFFFFFFFFFFFFFFFFFFFFFFFFFFFFFFFFFFFFFFFFFF80 DUP9 DUP8 SUB ADD DUP5 MSTORE PUSH2 0x62F0 DUP7 DUP4 MLOAD PUSH2 0x5544 JUMP JUMPDEST SWAP6 POP SWAP3 DUP5 ADD SWAP3 SWAP1 DUP5 ADD SWAP1 PUSH1 0x1 ADD PUSH2 0x62B6 JUMP JUMPDEST POP SWAP4 SWAP10 SWAP9 POP POP POP POP POP POP POP POP POP JUMP JUMPDEST PUSH1 0x0 DUP1 PUSH1 0x0 PUSH1 0x60 DUP5 DUP7 SUB SLT ISZERO PUSH2 0x6326 JUMPI PUSH1 0x0 DUP1 REVERT JUMPDEST PUSH2 0x632F DUP5 PUSH2 0x5D18 JUMP JUMPDEST SWAP3 POP PUSH1 0x20 PUSH2 0x633E DUP2 DUP7 ADD PUSH2 0x622D JUMP JUMPDEST SWAP3 POP PUSH1 0x40 DUP6 ADD MLOAD PUSH8 0xFFFFFFFFFFFFFFFF DUP2 GT ISZERO PUSH2 0x635A JUMPI PUSH1 0x0 DUP1 REVERT JUMPDEST DUP6 ADD PUSH1 0x1F DUP2 ADD DUP8 SGT PUSH2 0x636B JUMPI PUSH1 0x0 DUP1 REVERT JUMPDEST DUP1 MLOAD PUSH2 0x6379 PUSH2 0x5669 DUP3 PUSH2 0x55EA JUMP JUMPDEST DUP2 DUP2 MSTORE PUSH1 0x5 SWAP2 SWAP1 SWAP2 SHL DUP3 ADD DUP4 ADD SWAP1 DUP4 DUP2 ADD SWAP1 DUP10 DUP4 GT ISZERO PUSH2 0x6398 JUMPI PUSH1 0x0 DUP1 REVERT JUMPDEST SWAP3 DUP5 ADD SWAP3 JUMPDEST DUP3 DUP5 LT ISZERO PUSH2 0x63BD JUMPI PUSH2 0x63AE DUP5 PUSH2 0x622D JUMP JUMPDEST DUP3 MSTORE SWAP3 DUP5 ADD SWAP3 SWAP1 DUP5 ADD SWAP1 PUSH2 0x639D JUMP JUMPDEST DUP1 SWAP6 POP POP POP POP POP POP SWAP3 POP SWAP3 POP SWAP3 JUMP INVALID LOG2 PUSH5 0x6970667358 0x22 SLT KECCAK256 0xC0 PC 0xA8 0xAB 0xB3 0x22 SWAP4 0xB5 PUSH26 0xE5D97FD7DCD0C24A27E2D4920DDF81CAACE1E78435E7F464736F PUSH13 0x63430008140033000000000000 "},"methodIdentifiers":{"_validPartitionForReceiver(bytes32,address)":"f2e35647","allowance(address,address)":"dd62ed3e","approve(address,uint256)":"095ea7b3","authorizeOperator(address)":"959b8c3f","authorizeOperatorByPartition(bytes32,address)":"103ef9e1","balanceOf(address)":"70a08231","balanceOfByPartition(bytes32,address)":"30e82803","canTransfer(address,uint256,bytes)":"1badb25c","canTransferByPartition(address,address,bytes32,uint256,bytes)":"9945e70e","canTransferFrom(address,address,uint256,bytes)":"122eb575","controller()":"f77c4791","controllerRedeem(address,bytes32,uint256,bytes,bytes)":"b0a7fea4","controllerTransfer(address,address,bytes32,uint256,bytes,bytes)":"9464fb8c","finalizeControllable()":"a213934f","getAllDocuments()":"9fa5f50b","getDocument(bytes32)":"b10d6b41","isControllable()":"4c783bf5","isIssuable()":"2f1cae85","isOperator(address,address)":"b6363cf2","isOperatorForPartition(bytes32,address,address)":"6d77cad6","issue(address,uint256,bytes)":"bb3acde9","issueByPartition(bytes32,address,uint256,bytes)":"67c84919","operatorRedeemByPartition(bytes32,address,uint256,bytes,bytes)":"13d557bc","operatorTransferByPartition(bytes32,address,address,uint256,bytes,bytes)":"8c0dee9c","owner()":"8da5cb5b","ownerGrantTokenKyc(address)":"a5a8404e","ownerPauseToken()":"b1e35092","ownerRevokeTokenKyc(address)":"2414d303","ownerUpdateTokenKeys((uint256,(bool,address,bytes,bytes,address))[])":"64d53b4f","partitionsOf(address)":"740ab8f4","redeem(uint256,bytes)":"e77c646d","redeemByPartition(bytes32,uint256,bytes)":"62eb0068","redeemFrom(address,uint256,bytes)":"9675193c","redirectForToken(address,bytes)":"618dc65e","removeDocument(bytes32)":"c3501848","renounceOwnership()":"715018a6","revokeOperator(address)":"fad8b32a","revokeOperatorByPartition(bytes32,address)":"168ecec5","setDocument(bytes32,string,bytes32)":"010648ca","token()":"fc0c546a","totalSupply()":"18160ddd","transfer(address,uint256)":"a9059cbb","transferByPartition(bytes32,address,uint256,bytes)":"f3d490db","transferFrom(address,address,address,uint256)":"15dacbea","transferFrom(address,address,uint256)":"23b872dd","transferFromNFT(address,address,address,uint256)":"9b23d3d9","transferFromWithData(address,address,uint256,bytes)":"ee532f31","transferOwnership(address)":"f2fde38b","transferWithData(address,uint256,bytes)":"2535f762","withdrawHbar(uint256)":"76420f8f"}}}}}